{
  "_format": "hh-sol-artifact-1",
  "contractName": "CrowdfundAdmin",
  "sourceName": "contracts/CrowdfundAdmin.sol",
  "abi": [
    {
      "inputs": [],
      "stateMutability": "nonpayable",
      "type": "constructor"
    },
    {
      "anonymous": false,
      "inputs": [
        {
          "indexed": true,
          "internalType": "address",
          "name": "admin",
          "type": "address"
        }
      ],
      "name": "AdminAdded",
      "type": "event"
    },
    {
      "anonymous": false,
      "inputs": [
        {
          "indexed": true,
          "internalType": "address",
          "name": "admin",
          "type": "address"
        }
      ],
      "name": "AdminRemoved",
      "type": "event"
    },
    {
      "anonymous": false,
      "inputs": [
        {
          "indexed": true,
          "internalType": "address",
          "name": "project",
          "type": "address"
        },
        {
          "indexed": true,
          "internalType": "address",
          "name": "approver",
          "type": "address"
        },
        {
          "indexed": false,
          "internalType": "string",
          "name": "reason",
          "type": "string"
        }
      ],
      "name": "ProjectApproved",
      "type": "event"
    },
    {
      "anonymous": false,
      "inputs": [
        {
          "indexed": true,
          "internalType": "address",
          "name": "project",
          "type": "address"
        },
        {
          "indexed": true,
          "internalType": "address",
          "name": "rejector",
          "type": "address"
        },
        {
          "indexed": false,
          "internalType": "string",
          "name": "reason",
          "type": "string"
        }
      ],
      "name": "ProjectRejected",
      "type": "event"
    },
    {
      "inputs": [
        {
          "internalType": "address",
          "name": "newAdmin",
          "type": "address"
        }
      ],
      "name": "addAdmin",
      "outputs": [],
      "stateMutability": "nonpayable",
      "type": "function"
    },
    {
      "inputs": [],
      "name": "admin",
      "outputs": [
        {
          "internalType": "address",
          "name": "",
          "type": "address"
        }
      ],
      "stateMutability": "view",
      "type": "function"
    },
    {
      "inputs": [
        {
          "internalType": "uint256",
          "name": "",
          "type": "uint256"
        }
      ],
      "name": "allProjects",
      "outputs": [
        {
          "internalType": "address",
          "name": "",
          "type": "address"
        }
      ],
      "stateMutability": "view",
      "type": "function"
    },
    {
      "inputs": [
        {
          "internalType": "address",
          "name": "project",
          "type": "address"
        },
        {
          "internalType": "string",
          "name": "reason",
          "type": "string"
        }
      ],
      "name": "approveProject",
      "outputs": [],
      "stateMutability": "nonpayable",
      "type": "function"
    },
    {
      "inputs": [
        {
          "internalType": "address",
          "name": "adminAddress",
          "type": "address"
        }
      ],
      "name": "checkAdmin",
      "outputs": [
        {
          "internalType": "bool",
          "name": "",
          "type": "bool"
        }
      ],
      "stateMutability": "view",
      "type": "function"
    },
    {
      "inputs": [],
      "name": "getAdminProjects",
      "outputs": [
        {
          "internalType": "address[]",
          "name": "",
          "type": "address[]"
        }
      ],
      "stateMutability": "view",
      "type": "function"
    },
    {
      "inputs": [
        {
          "internalType": "address",
          "name": "",
          "type": "address"
        }
      ],
      "name": "isAdmin",
      "outputs": [
        {
          "internalType": "bool",
          "name": "",
          "type": "bool"
        }
      ],
      "stateMutability": "view",
      "type": "function"
    },
    {
      "inputs": [
        {
          "internalType": "address",
          "name": "project",
          "type": "address"
        },
        {
          "internalType": "string",
          "name": "reason",
          "type": "string"
        }
      ],
      "name": "rejectProject",
      "outputs": [],
      "stateMutability": "nonpayable",
      "type": "function"
    },
    {
      "inputs": [
        {
          "internalType": "address",
          "name": "adminToRemove",
          "type": "address"
        }
      ],
      "name": "removeAdmin",
      "outputs": [],
      "stateMutability": "nonpayable",
      "type": "function"
    }
  ],
  "bytecode": "0x608060405234801561001057600080fd5b50600080546001600160a01b0319163390811782558152600260205260409020805460ff191660011790556108e18061004a6000396000f3fe608060405234801561001057600080fd5b50600436106100935760003560e01c80639026dee8116100665780639026dee81461010957806391528a721461011c5780639645f13614610131578063ba84794914610144578063f851a4401461015757610093565b80631785f53c1461009857806324d7806c146100ad57806353b3194c146100d657806370480275146100f6575b600080fd5b6100ab6100a6366004610661565b61015f565b005b6100c06100bb366004610661565b61026c565b6040516100cd9190610779565b60405180910390f35b6100e96100e4366004610700565b610281565b6040516100cd9190610718565b6100ab610104366004610661565b6102ab565b6100c0610117366004610661565b610385565b6101246103a7565b6040516100cd919061072c565b6100ab61013f366004610682565b610409565b6100ab610152366004610682565b610510565b6100e961063b565b3360009081526002602090815260409182902054825180840190935260098352682737ba1030b236b4b760b91b9183019190915260ff166101bc5760405162461bcd60e51b81526004016101b391906107b3565b60405180910390fd5b506000546001600160a01b03828116911614156101eb5760405162461bcd60e51b81526004016101b39061083d565b6001600160a01b03811660009081526002602052604090205460ff166102235760405162461bcd60e51b81526004016101b390610874565b6001600160a01b038116600081815260026020526040808220805460ff19169055517fa3b62bc36326052d97ea62d63c3d60308ed4c3ea8ac079dd8499f1e9c4f80c0f9190a250565b60026020526000908152604090205460ff1681565b6001818154811061029157600080fd5b6000918252602090912001546001600160a01b0316905081565b3360009081526002602090815260409182902054825180840190935260098352682737ba1030b236b4b760b91b9183019190915260ff166102ff5760405162461bcd60e51b81526004016101b391906107b3565b506001600160a01b03811660009081526002602052604090205460ff16156103395760405162461bcd60e51b81526004016101b390610806565b6001600160a01b038116600081815260026020526040808220805460ff19166001179055517f44d6d25963f097ad14f29f06854a01f575648a1ef82f30e562ccd3889717e3399190a250565b6001600160a01b03811660009081526002602052604090205460ff165b919050565b606060018054806020026020016040519081016040528092919081815260200182805480156103ff57602002820191906000526020600020905b81546001600160a01b031681526001909101906020018083116103e1575b5050505050905090565b3360009081526002602090815260409182902054825180840190935260098352682737ba1030b236b4b760b91b9183019190915260ff1661045d5760405162461bcd60e51b81526004016101b391906107b3565b506040516378340a8960e01b81526001600160a01b038416906378340a899061048c9085908590600401610784565b600060405180830381600087803b1580156104a657600080fd5b505af11580156104ba573d6000803e3d6000fd5b50505050336001600160a01b0316836001600160a01b03167f74553020d0c86eda9cab5b665c2fc06fc51de4d1618972f0ab06f7e2741900c98484604051610503929190610784565b60405180910390a3505050565b3360009081526002602090815260409182902054825180840190935260098352682737ba1030b236b4b760b91b9183019190915260ff166105645760405162461bcd60e51b81526004016101b391906107b3565b50826001600160a01b031663b4e830f16040518163ffffffff1660e01b8152600401600060405180830381600087803b1580156105a057600080fd5b505af11580156105b4573d6000803e3d6000fd5b50506001805480820182556000919091527fb10e2d527612073b26eecdfd717e6a320cf44b4afac2b0732d9fcbe2b7fa0cf60180546001600160a01b0319166001600160a01b0387169081179091556040513393509091507f5a57b9a3eaaad67eb6c71a8b3fe3000712a5162e43e7ea7e3b1eb31084e54bb2906105039086908690610784565b6000546001600160a01b031681565b80356001600160a01b03811681146103a257600080fd5b600060208284031215610672578081fd5b61067b8261064a565b9392505050565b600080600060408486031215610696578182fd5b61069f8461064a565b9250602084013567ffffffffffffffff808211156106bb578384fd5b818601915086601f8301126106ce578384fd5b8135818111156106dc578485fd5b8760208285010111156106ed578485fd5b6020830194508093505050509250925092565b600060208284031215610711578081fd5b5035919050565b6001600160a01b0391909116815260200190565b6020808252825182820181905260009190848201906040850190845b8181101561076d5783516001600160a01b031683529284019291840191600101610748565b50909695505050505050565b901515815260200190565b60006020825282602083015282846040840137818301604090810191909152601f909201601f19160101919050565b6000602080835283518082850152825b818110156107df578581018301518582016040015282016107c3565b818111156107f05783604083870101525b50601f01601f1916929092016040019392505050565b6020808252601b908201527f4164647265737320697320616c726561647920616e2061646d696e0000000000604082015260600190565b6020808252601b908201527f43616e6e6f742072656d6f7665207072696d6172792061646d696e0000000000604082015260600190565b60208082526017908201527f41646472657373206973206e6f7420616e2061646d696e00000000000000000060408201526060019056fea2646970667358221220f87706b0ff4fab7b45764147cd5b111da8f1eb42f9f906ae9fee5720fce07b0564736f6c63430008000033",
  "linkReferences": {},
  "deployedLinkReferences": {}
}