{"contracts/CrowdfundProject.sol":{"CrowdfundProject":{"abi":[{"inputs":[{"internalType":"address","name":"_admin","type":"address"},{"components":[{"internalType":"address","name":"creator","type":"address"},{"internalType":"string","name":"title","type":"string"},{"internalType":"string","name":"description","type":"string"},{"components":[{"internalType":"string","name":"title","type":"string"},{"internalType":"string","name":"extension","type":"string"},{"internalType":"string","name":"ipfsHash","type":"string"}],"internalType":"struct CrowdfundStructs.Document[]","name":"documents","type":"tuple[]"},{"internalType":"uint256","name":"startDate","type":"uint256"},{"internalType":"uint256","name":"endDate","type":"uint256"},{"internalType":"uint256","name":"returnNotifyDate","type":"uint256"},{"internalType":"uint256","name":"raiseAmount","type":"uint256"},{"internalType":"uint256","name":"minInvestment","type":"uint256"},{"internalType":"uint256","name":"maxInvestment","type":"uint256"}],"internalType":"struct CrowdfundStructs.ProjectInfo","name":"init","type":"tuple"},{"internalType":"address","name":"_paymentToken","type":"address"}],"stateMutability":"nonpayable","type":"constructor"},{"anonymous":false,"inputs":[{"indexed":true,"internalType":"address","name":"investor","type":"address"},{"indexed":false,"internalType":"uint256","name":"amount","type":"uint256"}],"name":"FundsInvested","type":"event"},{"anonymous":false,"inputs":[{"indexed":false,"internalType":"uint256","name":"amount","type":"uint256"},{"indexed":false,"internalType":"uint256","name":"profitPercentage","type":"uint256"}],"name":"FundsReturned","type":"event"},{"anonymous":false,"inputs":[{"indexed":true,"internalType":"address","name":"creator","type":"address"},{"indexed":false,"internalType":"uint256","name":"amount","type":"uint256"}],"name":"FundsWithdrawn","type":"event"},{"anonymous":false,"inputs":[{"indexed":true,"internalType":"address","name":"admin","type":"address"},{"indexed":false,"internalType":"uint256","name":"amount","type":"uint256"}],"name":"PlatformFeeTransferred","type":"event"},{"anonymous":false,"inputs":[{"indexed":true,"internalType":"address","name":"approver","type":"address"}],"name":"ProjectApproved","type":"event"},{"anonymous":false,"inputs":[{"indexed":true,"internalType":"address","name":"rejector","type":"address"},{"indexed":false,"internalType":"string","name":"reason","type":"string"}],"name":"ProjectRejected","type":"event"},{"anonymous":false,"inputs":[{"indexed":true,"internalType":"address","name":"investor","type":"address"},{"indexed":false,"internalType":"uint256","name":"amount","type":"uint256"}],"name":"ReturnsWithdrawn","type":"event"},{"inputs":[],"name":"PLATFORM_FEE_PERCENT","outputs":[{"internalType":"uint256","name":"","type":"uint256"}],"stateMutability":"view","type":"function"},{"inputs":[],"name":"admin","outputs":[{"internalType":"address","name":"","type":"address"}],"stateMutability":"view","type":"function"},{"inputs":[],"name":"approveProject","outputs":[],"stateMutability":"nonpayable","type":"function"},{"inputs":[],"name":"claimRefund","outputs":[],"stateMutability":"nonpayable","type":"function"},{"inputs":[],"name":"creator","outputs":[{"internalType":"address","name":"","type":"address"}],"stateMutability":"view","type":"function"},{"inputs":[],"name":"factory","outputs":[{"internalType":"address","name":"","type":"address"}],"stateMutability":"view","type":"function"},{"inputs":[{"internalType":"address","name":"investor","type":"address"}],"name":"getInvestment","outputs":[{"internalType":"uint256","name":"","type":"uint256"}],"stateMutability":"view","type":"function"},{"inputs":[{"internalType":"address","name":"investor","type":"address"}],"name":"getInvestorProjectsWithAmounts","outputs":[{"internalType":"address[]","name":"","type":"address[]"},{"internalType":"uint256[]","name":"","type":"uint256[]"}],"stateMutability":"view","type":"function"},{"inputs":[],"name":"getInvestors","outputs":[{"internalType":"address[]","name":"","type":"address[]"}],"stateMutability":"view","type":"function"},{"inputs":[],"name":"getMyInvestments","outputs":[{"internalType":"address[]","name":"","type":"address[]"}],"stateMutability":"view","type":"function"},{"inputs":[],"name":"getPaymentToken","outputs":[{"internalType":"address","name":"","type":"address"}],"stateMutability":"view","type":"function"},{"inputs":[],"name":"getProjectInfo","outputs":[{"components":[{"internalType":"address","name":"creator","type":"address"},{"internalType":"string","name":"title","type":"string"},{"internalType":"string","name":"description","type":"string"},{"components":[{"internalType":"string","name":"title","type":"string"},{"internalType":"string","name":"extension","type":"string"},{"internalType":"string","name":"ipfsHash","type":"string"}],"internalType":"struct CrowdfundStructs.Document[]","name":"documents","type":"tuple[]"},{"internalType":"uint256","name":"startDate","type":"uint256"},{"internalType":"uint256","name":"endDate","type":"uint256"},{"internalType":"uint256","name":"returnNotifyDate","type":"uint256"},{"internalType":"uint256","name":"raiseAmount","type":"uint256"},{"internalType":"uint256","name":"minInvestment","type":"uint256"},{"internalType":"uint256","name":"maxInvestment","type":"uint256"}],"internalType":"struct CrowdfundStructs.ProjectInfo","name":"","type":"tuple"}],"stateMutability":"view","type":"function"},{"inputs":[],"name":"getRejectionReason","outputs":[{"internalType":"string","name":"","type":"string"}],"stateMutability":"view","type":"function"},{"inputs":[],"name":"getReturnInfo","outputs":[{"components":[{"internalType":"uint256","name":"returnedAmount","type":"uint256"},{"internalType":"uint256","name":"profitPercentage","type":"uint256"},{"internalType":"uint256","name":"returnDate","type":"uint256"},{"internalType":"bool","name":"isReturned","type":"bool"}],"internalType":"struct CrowdfundStructs.ProjectReturn","name":"","type":"tuple"}],"stateMutability":"view","type":"function"},{"inputs":[],"name":"getStatus","outputs":[{"internalType":"enum CrowdfundStructs.ProjectStatus","name":"","type":"uint8"}],"stateMutability":"view","type":"function"},{"inputs":[],"name":"getTotalRaised","outputs":[{"internalType":"uint256","name":"","type":"uint256"}],"stateMutability":"view","type":"function"},{"inputs":[{"internalType":"address","name":"","type":"address"}],"name":"hasClaimedRefund","outputs":[{"internalType":"bool","name":"","type":"bool"}],"stateMutability":"view","type":"function"},{"inputs":[],"name":"hasCreatorRepaid","outputs":[{"internalType":"bool","name":"","type":"bool"}],"stateMutability":"view","type":"function"},{"inputs":[],"name":"hasCreatorWithdrawnFunds","outputs":[{"internalType":"bool","name":"","type":"bool"}],"stateMutability":"view","type":"function"},{"inputs":[{"internalType":"address","name":"user","type":"address"}],"name":"hasUserClaimedRefund","outputs":[{"internalType":"bool","name":"","type":"bool"}],"stateMutability":"view","type":"function"},{"inputs":[{"internalType":"address","name":"user","type":"address"}],"name":"hasUserWithdrawnReturns","outputs":[{"internalType":"bool","name":"","type":"bool"}],"stateMutability":"view","type":"function"},{"inputs":[{"internalType":"address","name":"","type":"address"}],"name":"hasWithdrawnReturns","outputs":[{"internalType":"bool","name":"","type":"bool"}],"stateMutability":"view","type":"function"},{"inputs":[{"internalType":"uint256","name":"amount","type":"uint256"}],"name":"invest","outputs":[],"stateMutability":"payable","type":"function"},{"inputs":[{"internalType":"address","name":"","type":"address"}],"name":"investments","outputs":[{"internalType":"uint256","name":"","type":"uint256"}],"stateMutability":"view","type":"function"},{"inputs":[{"internalType":"uint256","name":"","type":"uint256"}],"name":"investors","outputs":[{"internalType":"address","name":"","type":"address"}],"stateMutability":"view","type":"function"},{"inputs":[],"name":"markAsDefaulted","outputs":[],"stateMutability":"nonpayable","type":"function"},{"inputs":[],"name":"paymentToken","outputs":[{"internalType":"address","name":"","type":"address"}],"stateMutability":"view","type":"function"},{"inputs":[{"internalType":"string","name":"reason","type":"string"}],"name":"rejectProject","outputs":[],"stateMutability":"nonpayable","type":"function"},{"inputs":[{"internalType":"uint256","name":"amount","type":"uint256"}],"name":"returnFunds","outputs":[],"stateMutability":"payable","type":"function"},{"inputs":[],"name":"withdrawFunds","outputs":[],"stateMutability":"nonpayable","type":"function"},{"inputs":[],"name":"withdrawReturns","outputs":[],"stateMutability":"nonpayable","type":"function"}],"devdoc":{"author":"Mazyar Zirak <mazyarzirak1@gmail.com>","kind":"dev","methods":{},"title":"CrowdfundProject","version":1},"evm":{"bytecode":{"linkReferences":{},"object":"6101006040523480156200001257600080fd5b506040516200379638038062003796833981016040819052620000359162000698565b6001600055608082015160a0830151604080518082019091526012815271496e76616c696420646174652072616e676560701b60208201529110620000985760405162461bcd60e51b81526004016200008f9190620007d7565b60405180910390fd5b508160a001518260c001511160405180604001604052806012815260200171496e76616c696420646174652072616e676560701b81525090620000f05760405162461bcd60e51b81526004016200008f9190620007d7565b5081610120015182610100015111156040518060400160405280600e81526020016d125b9d985b1a5908185b5bdd5b9d60921b81525090620001475760405162461bcd60e51b81526004016200008f9190620007d7565b508160e0015182610120015111156040518060400160405280600e81526020016d125b9d985b1a5908185b5bdd5b9d60921b815250906200019d5760405162461bcd60e51b81526004016200008f9190620007d7565b506001600160a01b038116620001c75760405162461bcd60e51b81526004016200008f906200080c565b6001600160601b0319606084811b821660805233811b60a0528351811b821660c05282901b1660e052620001fb82620002de565b604080516080810182526000808252602080830182905260e08601516001600160801b0316838501528351908101909352825260608101919091528051600f8054909190829060ff191660018360058111156200026857634e487b7160e01b600052602160045260246000fd5b02179055506020828101518254610100600160881b0319166101006001600160801b039283160217835560408401516001840180546001600160801b0319169190921617905560608301518051620002c7926002850192019062000440565b50506016805460ff19169055506200092a92505050565b8051600180546001600160a01b0319166001600160a01b0390921691909117815560208083015180516200031792600292019062000440565b50604082015180516200033591600284019160209091019062000440565b506080820151600482015560a0820151600582015560c0820151600682015560e082015160078201556101008201516008820155610120820151600982015560005b8260600151518110156200043b578160030183606001518281518110620003ae57634e487b7160e01b600052603260045260246000fd5b602090810291909101810151825460018101845560009384529282902081518051929460030290910192620003e99284929091019062000440565b50602082810151805162000404926001850192019062000440565b50604082015180516200042291600284019160209091019062000440565b50505080806200043290620008ec565b91505062000377565b505050565b8280546200044e90620008af565b90600052602060002090601f016020900481019282620004725760008555620004bd565b82601f106200048d57805160ff1916838001178555620004bd565b82800160010185558215620004bd579182015b82811115620004bd578251825591602001919060010190620004a0565b50620004cb929150620004cf565b5090565b5b80821115620004cb5760008155600101620004d0565b80516001600160a01b0381168114620004fe57600080fd5b919050565b600082601f83011262000514578081fd5b815160206001600160401b038083111562000533576200053362000914565b62000542828385020162000850565b83815282810190868401865b86811015620006185781518901606080601f19838e030112156200057057898afd5b604080518281018181108a821117156200058e576200058e62000914565b8252838a015189811115620005a1578c8dfd5b620005b18f8c8388010162000626565b8252508184015189811115620005c5578c8dfd5b620005d58f8c8388010162000626565b828c015250918301519188831115620005ec578b8cfd5b620005fc8e8b8587010162000626565b918101919091528652505092850192908501906001016200054e565b509098975050505050505050565b600082601f83011262000637578081fd5b81516001600160401b0381111562000653576200065362000914565b62000668601f8201601f191660200162000850565b8181528460208386010111156200067d578283fd5b620006908260208301602087016200087c565b949350505050565b600080600060608486031215620006ad578283fd5b620006b884620004e6565b60208501519093506001600160401b0380821115620006d5578384fd5b8186019150610140808389031215620006ec578485fd5b620006f78162000850565b90506200070483620004e6565b815260208301518281111562000718578586fd5b620007268982860162000626565b6020830152506040830151828111156200073e578586fd5b6200074c8982860162000626565b60408301525060608301518281111562000764578586fd5b620007728982860162000503565b6060830152506080830151608082015260a083015160a082015260c083015160c082015260e083015160e08201526101009150818301518282015261012091508183015182820152809450505050620007ce60408501620004e6565b90509250925092565b6000602082528251806020840152620007f88160408501602087016200087c565b601f01601f19169190910160400192915050565b60208082526024908201527f5061796d656e7420746f6b656e2063616e6e6f74206265207a65726f206164646040820152637265737360e01b606082015260800190565b6040518181016001600160401b038111828210171562000874576200087462000914565b604052919050565b60005b83811015620008995781810151838201526020016200087f565b83811115620008a9576000848401525b50505050565b600281046001821680620008c457607f821691505b60208210811415620008e657634e487b7160e01b600052602260045260246000fd5b50919050565b60006000198214156200090d57634e487b7160e01b81526011600452602481fd5b5060010190565b634e487b7160e01b600052604160045260246000fd5b60805160601c60a05160601c60c05160601c60e05160601c612dbd620009d96000396000818161070a015281816108410152818161094801528181610d3101528181610f08015281816110f301528181611350015281816120be01526121b601526000818161054a015281816105c50152818161097501528181610a3a0152610f890152600061219201526000818161086e01528181610a9b0152818161145f01526121da0152612dbd6000f3fe6080604052600436106101d85760003560e01c806367c897fe11610102578063b2f5a54c11610095578063b573c27311610064578063b573c273146104e9578063c45a015514610509578063d41c3a651461051e578063f851a44014610533576101d8565b8063b2f5a54c1461047c578063b3a907ee14610491578063b4e830f1146104bf578063b5545a3c146104d4576101d8565b806396b98862116100d157806396b98862146104125780639f55029314610432578063a732818114610447578063abe7c13014610467576101d8565b806367c897fe1461039057806368a94dfc146103b257806368bf37cb146103d257806378340a89146103f2576101d8565b80633feb5f2b1161017a5780634e69d560116101495780634e69d56014610315578063521fed2b14610337578063560d52d4146103595780635fc2f0951461036e576101d8565b80633feb5f2b146102b857806345755dd6146102d85780634c7ce18a146102eb5780634ccc1ae114610300576101d8565b806324600fc3116101b657806324600fc314610257578063259730891461026e5780632afcf480146102905780633013ce29146102a3576101d8565b806302d05d3f146101dd57806310329d4d14610208578063146b58df1461022a575b600080fd5b3480156101e957600080fd5b506101f2610548565b6040516101ff919061269c565b60405180910390f35b34801561021457600080fd5b5061021d61056c565b6040516101ff9190612749565b34801561023657600080fd5b5061024a61024536600461244b565b610575565b6040516101ff9190612c55565b34801561026357600080fd5b5061026c610590565b005b34801561027a57600080fd5b50610283610b07565b6040516101ff919061277c565b61026c61029e36600461253a565b610b9d565b3480156102af57600080fd5b506101f2610f06565b3480156102c457600080fd5b506101f26102d336600461253a565b610f2a565b61026c6102e636600461253a565b610f54565b3480156102f757600080fd5b5061026c611253565b34801561030c57600080fd5b5061026c611448565b34801561032157600080fd5b5061032a6115b8565b6040516101ff9190612754565b34801561034357600080fd5b5061034c6115c7565b6040516101ff9190612c28565b34801561036557600080fd5b5061024a611601565b34801561037a57600080fd5b50610383611606565b6040516101ff91906126ed565b34801561039c57600080fd5b506103a5611760565b6040516101ff9190612b6a565b3480156103be57600080fd5b5061021d6103cd36600461244b565b611b00565b3480156103de57600080fd5b5061021d6103ed36600461244b565b611b15565b3480156103fe57600080fd5b5061026c61040d366004612499565b611b33565b34801561041e57600080fd5b5061024a61042d36600461244b565b611c10565b34801561043e57600080fd5b5061024a611c22565b34801561045357600080fd5b5061021d61046236600461244b565b611c36565b34801561047357600080fd5b5061021d611c4b565b34801561048857600080fd5b50610383611c54565b34801561049d57600080fd5b506104b16104ac36600461244b565b611cb5565b6040516101ff929190612700565b3480156104cb57600080fd5b5061026c611f28565b3480156104e057600080fd5b5061026c611fd8565b3480156104f557600080fd5b5061021d61050436600461244b565b612172565b34801561051557600080fd5b506101f2612190565b34801561052a57600080fd5b506101f26121b4565b34801561053f57600080fd5b506101f26121d8565b7f000000000000000000000000000000000000000000000000000000000000000081565b60165460ff1681565b6001600160a01b031660009081526012602052604090205490565b6105986121fc565b60408051808201909152600b81526a2737ba1031b932b0ba37b960a91b6020820152336001600160a01b037f0000000000000000000000000000000000000000000000000000000000000000161461060c5760405162461bcd60e51b8152600401610603919061277c565b60405180910390fd5b506003600f5460ff16600581111561063457634e487b7160e01b600052602160045260246000fd5b146040518060400160405280601281526020017150726f6a656374206e6f742061637469766560701b8152509061067e5760405162461bcd60e51b8152600401610603919061277c565b50600654604080518082019091526012815271496e76616c696420646174652072616e676560701b6020820152904210156106cc5760405162461bcd60e51b8152600401610603919061277c565b5060165460ff16156106f05760405162461bcd60e51b8152600401610603906128d6565b6040516370a0823160e01b81526000906001600160a01b037f000000000000000000000000000000000000000000000000000000000000000016906370a082319061073f90309060040161269c565b60206040518083038186803b15801561075757600080fd5b505afa15801561076b573d6000803e3d6000fd5b505050506040513d601f19601f8201168201806040525081019061078f9190612552565b905060008111604051806040016040528060128152602001714e6f7420656e6f7567682062616c616e636560701b815250906107de5760405162461bcd60e51b8152600401610603919061277c565b50600f546000906064906108029060019061010090046001600160801b0316612ccf565b61080c9190612caf565b9050600061081a8284612cee565b6016805460ff1916600117905560405163a9059cbb60e01b81529091506001600160a01b037f0000000000000000000000000000000000000000000000000000000000000000169063a9059cbb90610898907f00000000000000000000000000000000000000000000000000000000000000009086906004016126d4565b602060405180830381600087803b1580156108b257600080fd5b505af11580156108c6573d6000803e3d6000fd5b505050506040513d601f19601f820116820180604052508101906108ea9190612479565b6040518060400160405280600f81526020016e151c985b9cd9995c8819985a5b1959608a1b815250906109305760405162461bcd60e51b8152600401610603919061277c565b5060405163a9059cbb60e01b81526001600160a01b037f0000000000000000000000000000000000000000000000000000000000000000169063a9059cbb9061099f907f00000000000000000000000000000000000000000000000000000000000000009085906004016126d4565b602060405180830381600087803b1580156109b957600080fd5b505af11580156109cd573d6000803e3d6000fd5b505050506040513d601f19601f820116820180604052508101906109f19190612479565b6040518060400160405280600f81526020016e151c985b9cd9995c8819985a5b1959608a1b81525090610a375760405162461bcd60e51b8152600401610603919061277c565b507f00000000000000000000000000000000000000000000000000000000000000006001600160a01b03167feaff4b37086828766ad3268786972c0cd24259d4c87a80f9d3963a3c3d999b0d82604051610a919190612c55565b60405180910390a27f00000000000000000000000000000000000000000000000000000000000000006001600160a01b03167fb22271622602af8e76f473a71b98890df40dc7fd2c2a5a574fdaa6d8fdbf228183604051610af29190612c55565b60405180910390a2505050610b05612226565b565b6060600f6002018054610b1990612d05565b80601f0160208091040260200160405190810160405280929190818152602001828054610b4590612d05565b8015610b925780601f10610b6757610100808354040283529160200191610b92565b820191906000526020600020905b815481529060010190602001808311610b7557829003601f168201915b505050505090505b90565b610ba56121fc565b600f3415610bc55760405162461bcd60e51b8152600401610603906129f7565b60008211610be55760405162461bcd60e51b81526004016106039061290d565b6002815460ff166005811115610c0b57634e487b7160e01b600052602160045260246000fd5b1480610c3a57506003815460ff166005811115610c3857634e487b7160e01b600052602160045260246000fd5b145b610c565760405162461bcd60e51b81526004016106039061278f565b600554421015610c785760405162461bcd60e51b8152600401610603906127d3565b600654421115610c9a5760405162461bcd60e51b815260040161060390612989565b600954821015610cbc5760405162461bcd60e51b815260040161060390612b33565b600a54821115610cde5760405162461bcd60e51b815260040161060390612803565b6008548154610cfc90849061010090046001600160801b0316612c97565b1115610d1a5760405162461bcd60e51b81526004016106039061283a565b6040516323b872dd60e01b81526001600160a01b037f000000000000000000000000000000000000000000000000000000000000000016906323b872dd90610d6a903390309087906004016126b0565b602060405180830381600087803b158015610d8457600080fd5b505af1158015610d98573d6000803e3d6000fd5b505050506040513d601f19601f82011682018060405250810190610dbc9190612479565b610dd85760405162461bcd60e51b815260040161060390612a97565b33600090815260126020526040902054610e2f57601580546001810182556000919091527f55f448fdea98c4d29eb340757ef0a66cd03dbb9538908a6a81d96026b71ec4750180546001600160a01b031916331790555b3360009081526012602052604081208054849290610e4e908490612c97565b9091555050805482908290600190610e7590849061010090046001600160801b0316612c6c565b82546001600160801b0391821661010093840a908102908302199091161790925560018401548454919091048216911614159050610eb957805460ff191660031781555b336001600160a01b03167f922308d0a22c67ff6f9852774e95fa4f7d10c9ecb1e430f0461143597003d37783604051610ef29190612c55565b60405180910390a250610f03612226565b50565b7f000000000000000000000000000000000000000000000000000000000000000081565b60158181548110610f3a57600080fd5b6000918252602090912001546001600160a01b0316905081565b610f5c6121fc565b60408051808201909152600b81526a2737ba1031b932b0ba37b960a91b6020820152336001600160a01b037f00000000000000000000000000000000000000000000000000000000000000001614610fc75760405162461bcd60e51b8152600401610603919061277c565b506003600f5460ff166005811115610fef57634e487b7160e01b600052602160045260246000fd5b146040518060400160405280601281526020017150726f6a656374206e6f742061637469766560701b815250906110395760405162461bcd60e51b8152600401610603919061277c565b5034156110585760405162461bcd60e51b8152600401610603906129f7565b600e54604080518082019091526016815275119d5b991cc8185b1c9958591e481c995d1d5c9b995960521b60208201529060ff16156110aa5760405162461bcd60e51b8152600401610603919061277c565b50600f5461010090046001600160801b0316808210156110dc5760405162461bcd60e51b815260040161060390612944565b6040516323b872dd60e01b81526001600160a01b037f000000000000000000000000000000000000000000000000000000000000000016906323b872dd9061112c903390309087906004016126b0565b602060405180830381600087803b15801561114657600080fd5b505af115801561115a573d6000803e3d6000fd5b505050506040513d601f19601f8201168201806040525081019061117e9190612479565b61119a5760405162461bcd60e51b815260040161060390612a97565b60006111a68284612cee565b90506000826111b6836064612ccf565b6111c09190612caf565b60408051608081018252868152602081018390524281830181905260016060909201829052600b889055600c849055600d55600e805460ff199081169092179055600f80549091166004179055519091507fe5e9cfeede9ff1fc77b415bf8346e29706d16794b3bdeca347ac54a7fd3e0c3c906112409086908490612c5e565b60405180910390a1505050610f03612226565b61125b6121fc565b600e5460ff1661127d5760405162461bcd60e51b81526004016106039061289f565b336000908152601260205260409020546112a95760405162461bcd60e51b815260040161060390612a3a565b3360009081526014602052604090205460ff16156112d95760405162461bcd60e51b8152600401610603906129c0565b33600090815260126020526040812054600b54600f549192909161010090046001600160801b0316908161130d8486612ccf565b6113179190612caf565b336000818152601260209081526040808320839055601490915290819020805460ff191660011790555163a9059cbb60e01b81529192507f00000000000000000000000000000000000000000000000000000000000000006001600160a01b03169163a9059cbb9161138d9185906004016126d4565b602060405180830381600087803b1580156113a757600080fd5b505af11580156113bb573d6000803e3d6000fd5b505050506040513d601f19601f820116820180604052508101906113df9190612479565b6113fb5760405162461bcd60e51b815260040161060390612a97565b336001600160a01b03167f0f9fa24c1d9febdaf99508f4923a7b5add9bd70eab45c8fc614509df79894938826040516114349190612c55565b60405180910390a250505050610b05612226565b604051631204dbdd60e31b81526001600160a01b037f00000000000000000000000000000000000000000000000000000000000000001690639026dee89061149490339060040161269c565b60206040518083038186803b1580156114ac57600080fd5b505afa1580156114c0573d6000803e3d6000fd5b505050506040513d601f19601f820116820180604052508101906114e49190612479565b604051806040016040528060098152602001682737ba1030b236b4b760b91b815250906115245760405162461bcd60e51b8152600401610603919061277c565b50600754421161153357600080fd5b6003600f5460ff16600581111561155a57634e487b7160e01b600052602160045260246000fd5b1460405180604001604052806016815260200175496e76616c69642070726f6a6563742073746174757360501b815250906115a85760405162461bcd60e51b8152600401610603919061277c565b50600f805460ff19166005179055565b60006115c261222d565b905090565b6115cf61232c565b5060408051608081018252600b548152600c546020820152600d5491810191909152600e5460ff161515606082015290565b600181565b60155460609060009067ffffffffffffffff81111561163557634e487b7160e01b600052604160045260246000fd5b60405190808252806020026020018201604052801561165e578160200160208202803683370190505b5090506000805b601554811015611758576000601260006015848154811061169657634e487b7160e01b600052603260045260246000fd5b60009182526020808320909101546001600160a01b03168352820192909252604001902054111561174657601581815481106116e257634e487b7160e01b600052603260045260246000fd5b9060005260206000200160009054906101000a90046001600160a01b031683838151811061172057634e487b7160e01b600052603260045260246000fd5b6001600160a01b03909216602092830291909101909101528161174281612d40565b9250505b8061175081612d40565b915050611665565b508152905090565b611768612356565b604080516101408101909152600180546001600160a01b031682526002805460208401919061179690612d05565b80601f01602080910402602001604051908101604052809291908181526020018280546117c290612d05565b801561180f5780601f106117e45761010080835404028352916020019161180f565b820191906000526020600020905b8154815290600101906020018083116117f257829003601f168201915b5050505050815260200160028201805461182890612d05565b80601f016020809104026020016040519081016040528092919081815260200182805461185490612d05565b80156118a15780601f10611876576101008083540402835291602001916118a1565b820191906000526020600020905b81548152906001019060200180831161188457829003601f168201915b5050505050815260200160038201805480602002602001604051908101604052809291908181526020016000905b82821015611ab7578382906000526020600020906003020160405180606001604052908160008201805461190290612d05565b80601f016020809104026020016040519081016040528092919081815260200182805461192e90612d05565b801561197b5780601f106119505761010080835404028352916020019161197b565b820191906000526020600020905b81548152906001019060200180831161195e57829003601f168201915b5050505050815260200160018201805461199490612d05565b80601f01602080910402602001604051908101604052809291908181526020018280546119c090612d05565b8015611a0d5780601f106119e257610100808354040283529160200191611a0d565b820191906000526020600020905b8154815290600101906020018083116119f057829003601f168201915b50505050508152602001600282018054611a2690612d05565b80601f0160208091040260200160405190810160405280929190818152602001828054611a5290612d05565b8015611a9f5780601f10611a7457610100808354040283529160200191611a9f565b820191906000526020600020905b815481529060010190602001808311611a8257829003601f168201915b505050505081525050815260200190600101906118cf565b5050505081526020016004820154815260200160058201548152602001600682015481526020016007820154815260200160088201548152602001600982015481525050905090565b60136020526000908152604090205460ff1681565b6001600160a01b031660009081526014602052604090205460ff1690565b600f6000815460ff166005811115611b5b57634e487b7160e01b600052602160045260246000fd5b1460405180604001604052806016815260200175496e76616c69642070726f6a6563742073746174757360501b81525090611ba95760405162461bcd60e51b8152600401610603919061277c565b50805460ff191660011781558151611bca90600283019060208501906123b2565b50336001600160a01b03167f4e44df7f496ec6f3f7ee9440788a0edd9b6cbd27982eb4c7ad22bd5b35c463eb83604051611c04919061277c565b60405180910390a25050565b60126020526000908152604090205481565b600f5461010090046001600160801b031690565b60146020526000908152604090205460ff1681565b600e5460ff1690565b60606015805480602002602001604051908101604052809291908181526020018280548015610b9257602002820191906000526020600020905b81546001600160a01b03168152600190910190602001808311611c8e575050505050905090565b6060806000805b601554811015611d385760006012600060158481548110611ced57634e487b7160e01b600052603260045260246000fd5b60009182526020808320909101546001600160a01b031683528201929092526040019020541115611d265781611d2281612d40565b9250505b80611d3081612d40565b915050611cbc565b5060008167ffffffffffffffff811115611d6257634e487b7160e01b600052604160045260246000fd5b604051908082528060200260200182016040528015611d8b578160200160208202803683370190505b50905060008267ffffffffffffffff811115611db757634e487b7160e01b600052604160045260246000fd5b604051908082528060200260200182016040528015611de0578160200160208202803683370190505b5090506000805b601554811015611f1b5760006012600060158481548110611e1857634e487b7160e01b600052603260045260246000fd5b60009182526020808320909101546001600160a01b031683528201929092526040019020541115611f095730848381518110611e6457634e487b7160e01b600052603260045260246000fd5b60200260200101906001600160a01b031690816001600160a01b0316815250506012600060158381548110611ea957634e487b7160e01b600052603260045260246000fd5b60009182526020808320909101546001600160a01b031683528201929092526040019020548351849084908110611ef057634e487b7160e01b600052603260045260246000fd5b602090810291909101015281611f0581612d40565b9250505b80611f1381612d40565b915050611de7565b5091945092505050915091565b600f6000815460ff166005811115611f5057634e487b7160e01b600052602160045260246000fd5b1460405180604001604052806016815260200175496e76616c69642070726f6a6563742073746174757360501b81525090611f9e5760405162461bcd60e51b8152600401610603919061277c565b50805460ff1916600217815560405133907f8b16df08b6a45161a2accfac7e351325ff3df2aed213dd821e0be370c010831c90600090a250565b611fe06121fc565b6005611fea61222d565b600581111561200957634e487b7160e01b600052602160045260246000fd5b146120265760405162461bcd60e51b815260040161060390612868565b336000908152601260205260409020546120525760405162461bcd60e51b815260040161060390612ac5565b3360009081526013602052604090205460ff16156120825760405162461bcd60e51b815260040161060390612a67565b336000818152601260209081526040808320805490849055601390925291829020805460ff19166001179055905163a9059cbb60e01b815290917f00000000000000000000000000000000000000000000000000000000000000006001600160a01b03169163a9059cbb916120fb9185906004016126d4565b602060405180830381600087803b15801561211557600080fd5b505af1158015612129573d6000803e3d6000fd5b505050506040513d601f19601f8201168201806040525081019061214d9190612479565b6121695760405162461bcd60e51b815260040161060390612a97565b50610b05612226565b6001600160a01b031660009081526013602052604090205460ff1690565b7f000000000000000000000000000000000000000000000000000000000000000081565b7f000000000000000000000000000000000000000000000000000000000000000090565b7f000000000000000000000000000000000000000000000000000000000000000081565b6002600054141561221f5760405162461bcd60e51b815260040161060390612afc565b6002600055565b6001600055565b6000600f81815460ff16600581111561225657634e487b7160e01b600052602160045260246000fd5b1415612266576000915050610b9a565b6001815460ff16600581111561228c57634e487b7160e01b600052602160045260246000fd5b141561229c576001915050610b9a565b6002815460ff1660058111156122c257634e487b7160e01b600052602160045260246000fd5b1415612323576005544210156122dc576002915050610b9a565b60065442116122ef576003915050610b9a565b600181015481546001600160801b0391821661010090910490911610612319576004915050610b9a565b6005915050610b9a565b5460ff16905090565b60405180608001604052806000815260200160008152602001600081526020016000151581525090565b60405180610140016040528060006001600160a01b031681526020016060815260200160608152602001606081526020016000815260200160008152602001600081526020016000815260200160008152602001600081525090565b8280546123be90612d05565b90600052602060002090601f0160209004810192826123e05760008555612426565b82601f106123f957805160ff1916838001178555612426565b82800160010185558215612426579182015b8281111561242657825182559160200191906001019061240b565b50612432929150612436565b5090565b5b808211156124325760008155600101612437565b60006020828403121561245c578081fd5b81356001600160a01b0381168114612472578182fd5b9392505050565b60006020828403121561248a578081fd5b81518015158114612472578182fd5b600060208083850312156124ab578182fd5b823567ffffffffffffffff808211156124c2578384fd5b818501915085601f8301126124d5578384fd5b8135818111156124e7576124e7612d71565b604051601f8201601f191681018501838111828210171561250a5761250a612d71565b6040528181528382018501881015612520578586fd5b818585018683013790810190930193909352509392505050565b60006020828403121561254b578081fd5b5035919050565b600060208284031215612563578081fd5b5051919050565b6001600160a01b03169052565b6000815180845260208085019450808401835b838110156125af5781516001600160a01b03168752958201959082019060010161258a565b509495945050505050565b60008282518085526020808601955080818302840101818601855b8481101561264457601f198684030189528151606081518186526125fb82870182612651565b91505085820151858203878701526126138282612651565b915050604080830151925085820381870152506126308183612651565b9a86019a94505050908301906001016125d5565b5090979650505050505050565b60008151808452815b818110156126765760208185018101518683018201520161265a565b818111156126875782602083870101525b50601f01601f19169290920160200192915050565b6001600160a01b0391909116815260200190565b6001600160a01b039384168152919092166020820152604081019190915260600190565b6001600160a01b03929092168252602082015260400190565b6000602082526124726020830184612577565b6000604082526127136040830185612577565b828103602084810191909152845180835285820192820190845b818110156126445784518352938301939183019160010161272d565b901515815260200190565b602081016006831061277657634e487b7160e01b600052602160045260246000fd5b91905290565b6000602082526124726020830184612651565b60208082526024908201527f50726f6a656374206e6f7420617661696c61626c6520666f7220696e766573746040820152631b595b9d60e21b606082015260800190565b602080825260169082015275125b9d995cdd1b595b9d081b9bdd081cdd185c9d195960521b604082015260600190565b60208082526018908201527f41626f7665206d6178696d756d20696e766573746d656e740000000000000000604082015260600190565b602080825260149082015273115e18d959591cc8199d5b991a5b99c819dbd85b60621b604082015260600190565b60208082526017908201527f50726f6a656374206973206e6f74206465666572726564000000000000000000604082015260600190565b60208082526019908201527f52657475726e73206e6f7420617661696c61626c652079657400000000000000604082015260600190565b60208082526017908201527f46756e647320616c72656164792077697468647261776e000000000000000000604082015260600190565b6020808252601d908201527f416d6f756e74206d7573742062652067726561746572207468616e2030000000604082015260600190565b60208082526025908201527f4d757374207265706179206174206c65617374207468652072616973656420616040820152641b5bdd5b9d60da1b606082015260800190565b60208082526017908201527f496e766573746d656e7420706572696f6420656e646564000000000000000000604082015260600190565b60208082526019908201527f416c72656164792077697468647261776e2072657475726e7300000000000000604082015260600190565b60208082526023908201527f4554482f424e42206e6f742061636365707465642c207573652055534454206f6040820152626e6c7960e81b606082015260800190565b602080825260139082015272139bc81a5b9d995cdd1b595b9d08199bdd5b99606a1b604082015260600190565b602080825260169082015275105b1c9958591e4818db185a5b5959081c99599d5b9960521b604082015260600190565b6020808252601490820152731554d115081d1c985b9cd9995c8819985a5b195960621b604082015260600190565b60208082526017908201527f4e6f20696e766573746d656e7420746f20726566756e64000000000000000000604082015260600190565b6020808252601f908201527f5265656e7472616e637947756172643a207265656e7472616e742063616c6c00604082015260600190565b60208082526018908201527f42656c6f77206d696e696d756d20696e766573746d656e740000000000000000604082015260600190565b600060208252612b7e60208301845161256a565b6020830151610140806040850152612b9a610160850183612651565b91506040850151601f1980868503016060870152612bb88483612651565b9350606087015191508086850301608087015250612bd683826125ba565b925050608085015160a085015260a085015160c085015260c085015160e085015260e0850151610100818187015280870151915050610120818187015280870151838701525050508091505092915050565b81518152602080830151908201526040808301519082015260609182015115159181019190915260800190565b90815260200190565b918252602082015260400190565b60006001600160801b03808316818516808303821115612c8e57612c8e612d5b565b01949350505050565b60008219821115612caa57612caa612d5b565b500190565b600082612cca57634e487b7160e01b81526012600452602481fd5b500490565b6000816000190483118215151615612ce957612ce9612d5b565b500290565b600082821015612d0057612d00612d5b565b500390565b600281046001821680612d1957607f821691505b60208210811415612d3a57634e487b7160e01b600052602260045260246000fd5b50919050565b6000600019821415612d5457612d54612d5b565b5060010190565b634e487b7160e01b600052601160045260246000fd5b634e487b7160e01b600052604160045260246000fdfea2646970667358221220e70d57f157ce86ef0c9b933f8415ce77befb45b18ad2182441e66179c6a50f8164736f6c63430008000033","opcodes":"PUSH2 0x100 PUSH1 0x40 MSTORE CALLVALUE DUP1 ISZERO PUSH3 0x12 JUMPI PUSH1 0x0 DUP1 REVERT JUMPDEST POP PUSH1 0x40 MLOAD PUSH3 0x3796 CODESIZE SUB DUP1 PUSH3 0x3796 DUP4 CODECOPY DUP2 ADD PUSH1 0x40 DUP2 SWAP1 MSTORE PUSH3 0x35 SWAP2 PUSH3 0x698 JUMP JUMPDEST PUSH1 0x1 PUSH1 0x0 SSTORE PUSH1 0x80 DUP3 ADD MLOAD PUSH1 0xA0 DUP4 ADD MLOAD PUSH1 0x40 DUP1 MLOAD DUP1 DUP3 ADD SWAP1 SWAP2 MSTORE PUSH1 0x12 DUP2 MSTORE PUSH18 0x496E76616C696420646174652072616E6765 PUSH1 0x70 SHL PUSH1 0x20 DUP3 ADD MSTORE SWAP2 LT PUSH3 0x98 JUMPI PUSH1 0x40 MLOAD PUSH3 0x461BCD PUSH1 0xE5 SHL DUP2 MSTORE PUSH1 0x4 ADD PUSH3 0x8F SWAP2 SWAP1 PUSH3 0x7D7 JUMP JUMPDEST PUSH1 0x40 MLOAD DUP1 SWAP2 SUB SWAP1 REVERT JUMPDEST POP DUP2 PUSH1 0xA0 ADD MLOAD DUP3 PUSH1 0xC0 ADD MLOAD GT PUSH1 0x40 MLOAD DUP1 PUSH1 0x40 ADD PUSH1 0x40 MSTORE DUP1 PUSH1 0x12 DUP2 MSTORE PUSH1 0x20 ADD PUSH18 0x496E76616C696420646174652072616E6765 PUSH1 0x70 SHL DUP2 MSTORE POP SWAP1 PUSH3 0xF0 JUMPI PUSH1 0x40 MLOAD PUSH3 0x461BCD PUSH1 0xE5 SHL DUP2 MSTORE PUSH1 0x4 ADD PUSH3 0x8F SWAP2 SWAP1 PUSH3 0x7D7 JUMP JUMPDEST POP DUP2 PUSH2 0x120 ADD MLOAD DUP3 PUSH2 0x100 ADD MLOAD GT ISZERO PUSH1 0x40 MLOAD DUP1 PUSH1 0x40 ADD PUSH1 0x40 MSTORE DUP1 PUSH1 0xE DUP2 MSTORE PUSH1 0x20 ADD PUSH14 0x125B9D985B1A5908185B5BDD5B9D PUSH1 0x92 SHL DUP2 MSTORE POP SWAP1 PUSH3 0x147 JUMPI PUSH1 0x40 MLOAD PUSH3 0x461BCD PUSH1 0xE5 SHL DUP2 MSTORE PUSH1 0x4 ADD PUSH3 0x8F SWAP2 SWAP1 PUSH3 0x7D7 JUMP JUMPDEST POP DUP2 PUSH1 0xE0 ADD MLOAD DUP3 PUSH2 0x120 ADD MLOAD GT ISZERO PUSH1 0x40 MLOAD DUP1 PUSH1 0x40 ADD PUSH1 0x40 MSTORE DUP1 PUSH1 0xE DUP2 MSTORE PUSH1 0x20 ADD PUSH14 0x125B9D985B1A5908185B5BDD5B9D PUSH1 0x92 SHL DUP2 MSTORE POP SWAP1 PUSH3 0x19D JUMPI PUSH1 0x40 MLOAD PUSH3 0x461BCD PUSH1 0xE5 SHL DUP2 MSTORE PUSH1 0x4 ADD PUSH3 0x8F SWAP2 SWAP1 PUSH3 0x7D7 JUMP JUMPDEST POP PUSH1 0x1 PUSH1 0x1 PUSH1 0xA0 SHL SUB DUP2 AND PUSH3 0x1C7 JUMPI PUSH1 0x40 MLOAD PUSH3 0x461BCD PUSH1 0xE5 SHL DUP2 MSTORE PUSH1 0x4 ADD PUSH3 0x8F SWAP1 PUSH3 0x80C JUMP JUMPDEST PUSH1 0x1 PUSH1 0x1 PUSH1 0x60 SHL SUB NOT PUSH1 0x60 DUP5 DUP2 SHL DUP3 AND PUSH1 0x80 MSTORE CALLER DUP2 SHL PUSH1 0xA0 MSTORE DUP4 MLOAD DUP2 SHL DUP3 AND PUSH1 0xC0 MSTORE DUP3 SWAP1 SHL AND PUSH1 0xE0 MSTORE PUSH3 0x1FB DUP3 PUSH3 0x2DE JUMP JUMPDEST PUSH1 0x40 DUP1 MLOAD PUSH1 0x80 DUP2 ADD DUP3 MSTORE PUSH1 0x0 DUP1 DUP3 MSTORE PUSH1 0x20 DUP1 DUP4 ADD DUP3 SWAP1 MSTORE PUSH1 0xE0 DUP7 ADD MLOAD PUSH1 0x1 PUSH1 0x1 PUSH1 0x80 SHL SUB AND DUP4 DUP6 ADD MSTORE DUP4 MLOAD SWAP1 DUP2 ADD SWAP1 SWAP4 MSTORE DUP3 MSTORE PUSH1 0x60 DUP2 ADD SWAP2 SWAP1 SWAP2 MSTORE DUP1 MLOAD PUSH1 0xF DUP1 SLOAD SWAP1 SWAP2 SWAP1 DUP3 SWAP1 PUSH1 0xFF NOT AND PUSH1 0x1 DUP4 PUSH1 0x5 DUP2 GT ISZERO PUSH3 0x268 JUMPI PUSH4 0x4E487B71 PUSH1 0xE0 SHL PUSH1 0x0 MSTORE PUSH1 0x21 PUSH1 0x4 MSTORE PUSH1 0x24 PUSH1 0x0 REVERT JUMPDEST MUL OR SWAP1 SSTORE POP PUSH1 0x20 DUP3 DUP2 ADD MLOAD DUP3 SLOAD PUSH2 0x100 PUSH1 0x1 PUSH1 0x88 SHL SUB NOT AND PUSH2 0x100 PUSH1 0x1 PUSH1 0x1 PUSH1 0x80 SHL SUB SWAP3 DUP4 AND MUL OR DUP4 SSTORE PUSH1 0x40 DUP5 ADD MLOAD PUSH1 0x1 DUP5 ADD DUP1 SLOAD PUSH1 0x1 PUSH1 0x1 PUSH1 0x80 SHL SUB NOT AND SWAP2 SWAP1 SWAP3 AND OR SWAP1 SSTORE PUSH1 0x60 DUP4 ADD MLOAD DUP1 MLOAD PUSH3 0x2C7 SWAP3 PUSH1 0x2 DUP6 ADD SWAP3 ADD SWAP1 PUSH3 0x440 JUMP JUMPDEST POP POP PUSH1 0x16 DUP1 SLOAD PUSH1 0xFF NOT AND SWAP1 SSTORE POP PUSH3 0x92A SWAP3 POP POP POP JUMP JUMPDEST DUP1 MLOAD PUSH1 0x1 DUP1 SLOAD PUSH1 0x1 PUSH1 0x1 PUSH1 0xA0 SHL SUB NOT AND PUSH1 0x1 PUSH1 0x1 PUSH1 0xA0 SHL SUB SWAP1 SWAP3 AND SWAP2 SWAP1 SWAP2 OR DUP2 SSTORE PUSH1 0x20 DUP1 DUP4 ADD MLOAD DUP1 MLOAD PUSH3 0x317 SWAP3 PUSH1 0x2 SWAP3 ADD SWAP1 PUSH3 0x440 JUMP JUMPDEST POP PUSH1 0x40 DUP3 ADD MLOAD DUP1 MLOAD PUSH3 0x335 SWAP2 PUSH1 0x2 DUP5 ADD SWAP2 PUSH1 0x20 SWAP1 SWAP2 ADD SWAP1 PUSH3 0x440 JUMP JUMPDEST POP PUSH1 0x80 DUP3 ADD MLOAD PUSH1 0x4 DUP3 ADD SSTORE PUSH1 0xA0 DUP3 ADD MLOAD PUSH1 0x5 DUP3 ADD SSTORE PUSH1 0xC0 DUP3 ADD MLOAD PUSH1 0x6 DUP3 ADD SSTORE PUSH1 0xE0 DUP3 ADD MLOAD PUSH1 0x7 DUP3 ADD SSTORE PUSH2 0x100 DUP3 ADD MLOAD PUSH1 0x8 DUP3 ADD SSTORE PUSH2 0x120 DUP3 ADD MLOAD PUSH1 0x9 DUP3 ADD SSTORE PUSH1 0x0 JUMPDEST DUP3 PUSH1 0x60 ADD MLOAD MLOAD DUP2 LT ISZERO PUSH3 0x43B JUMPI DUP2 PUSH1 0x3 ADD DUP4 PUSH1 0x60 ADD MLOAD DUP3 DUP2 MLOAD DUP2 LT PUSH3 0x3AE JUMPI PUSH4 0x4E487B71 PUSH1 0xE0 SHL PUSH1 0x0 MSTORE PUSH1 0x32 PUSH1 0x4 MSTORE PUSH1 0x24 PUSH1 0x0 REVERT JUMPDEST PUSH1 0x20 SWAP1 DUP2 MUL SWAP2 SWAP1 SWAP2 ADD DUP2 ADD MLOAD DUP3 SLOAD PUSH1 0x1 DUP2 ADD DUP5 SSTORE PUSH1 0x0 SWAP4 DUP5 MSTORE SWAP3 DUP3 SWAP1 KECCAK256 DUP2 MLOAD DUP1 MLOAD SWAP3 SWAP5 PUSH1 0x3 MUL SWAP1 SWAP2 ADD SWAP3 PUSH3 0x3E9 SWAP3 DUP5 SWAP3 SWAP1 SWAP2 ADD SWAP1 PUSH3 0x440 JUMP JUMPDEST POP PUSH1 0x20 DUP3 DUP2 ADD MLOAD DUP1 MLOAD PUSH3 0x404 SWAP3 PUSH1 0x1 DUP6 ADD SWAP3 ADD SWAP1 PUSH3 0x440 JUMP JUMPDEST POP PUSH1 0x40 DUP3 ADD MLOAD DUP1 MLOAD PUSH3 0x422 SWAP2 PUSH1 0x2 DUP5 ADD SWAP2 PUSH1 0x20 SWAP1 SWAP2 ADD SWAP1 PUSH3 0x440 JUMP JUMPDEST POP POP POP DUP1 DUP1 PUSH3 0x432 SWAP1 PUSH3 0x8EC JUMP JUMPDEST SWAP2 POP POP PUSH3 0x377 JUMP JUMPDEST POP POP POP JUMP JUMPDEST DUP3 DUP1 SLOAD PUSH3 0x44E SWAP1 PUSH3 0x8AF JUMP JUMPDEST SWAP1 PUSH1 0x0 MSTORE PUSH1 0x20 PUSH1 0x0 KECCAK256 SWAP1 PUSH1 0x1F ADD PUSH1 0x20 SWAP1 DIV DUP2 ADD SWAP3 DUP3 PUSH3 0x472 JUMPI PUSH1 0x0 DUP6 SSTORE PUSH3 0x4BD JUMP JUMPDEST DUP3 PUSH1 0x1F LT PUSH3 0x48D JUMPI DUP1 MLOAD PUSH1 0xFF NOT AND DUP4 DUP1 ADD OR DUP6 SSTORE PUSH3 0x4BD JUMP JUMPDEST DUP3 DUP1 ADD PUSH1 0x1 ADD DUP6 SSTORE DUP3 ISZERO PUSH3 0x4BD JUMPI SWAP2 DUP3 ADD JUMPDEST DUP3 DUP2 GT ISZERO PUSH3 0x4BD JUMPI DUP3 MLOAD DUP3 SSTORE SWAP2 PUSH1 0x20 ADD SWAP2 SWAP1 PUSH1 0x1 ADD SWAP1 PUSH3 0x4A0 JUMP JUMPDEST POP PUSH3 0x4CB SWAP3 SWAP2 POP PUSH3 0x4CF JUMP JUMPDEST POP SWAP1 JUMP JUMPDEST JUMPDEST DUP1 DUP3 GT ISZERO PUSH3 0x4CB JUMPI PUSH1 0x0 DUP2 SSTORE PUSH1 0x1 ADD PUSH3 0x4D0 JUMP JUMPDEST DUP1 MLOAD PUSH1 0x1 PUSH1 0x1 PUSH1 0xA0 SHL SUB DUP2 AND DUP2 EQ PUSH3 0x4FE JUMPI PUSH1 0x0 DUP1 REVERT JUMPDEST SWAP2 SWAP1 POP JUMP JUMPDEST PUSH1 0x0 DUP3 PUSH1 0x1F DUP4 ADD SLT PUSH3 0x514 JUMPI DUP1 DUP2 REVERT JUMPDEST DUP2 MLOAD PUSH1 0x20 PUSH1 0x1 PUSH1 0x1 PUSH1 0x40 SHL SUB DUP1 DUP4 GT ISZERO PUSH3 0x533 JUMPI PUSH3 0x533 PUSH3 0x914 JUMP JUMPDEST PUSH3 0x542 DUP3 DUP4 DUP6 MUL ADD PUSH3 0x850 JUMP JUMPDEST DUP4 DUP2 MSTORE DUP3 DUP2 ADD SWAP1 DUP7 DUP5 ADD DUP7 JUMPDEST DUP7 DUP2 LT ISZERO PUSH3 0x618 JUMPI DUP2 MLOAD DUP10 ADD PUSH1 0x60 DUP1 PUSH1 0x1F NOT DUP4 DUP15 SUB ADD SLT ISZERO PUSH3 0x570 JUMPI DUP10 DUP11 REVERT JUMPDEST PUSH1 0x40 DUP1 MLOAD DUP3 DUP2 ADD DUP2 DUP2 LT DUP11 DUP3 GT OR ISZERO PUSH3 0x58E JUMPI PUSH3 0x58E PUSH3 0x914 JUMP JUMPDEST DUP3 MSTORE DUP4 DUP11 ADD MLOAD DUP10 DUP2 GT ISZERO PUSH3 0x5A1 JUMPI DUP13 DUP14 REVERT JUMPDEST PUSH3 0x5B1 DUP16 DUP13 DUP4 DUP9 ADD ADD PUSH3 0x626 JUMP JUMPDEST DUP3 MSTORE POP DUP2 DUP5 ADD MLOAD DUP10 DUP2 GT ISZERO PUSH3 0x5C5 JUMPI DUP13 DUP14 REVERT JUMPDEST PUSH3 0x5D5 DUP16 DUP13 DUP4 DUP9 ADD ADD PUSH3 0x626 JUMP JUMPDEST DUP3 DUP13 ADD MSTORE POP SWAP2 DUP4 ADD MLOAD SWAP2 DUP9 DUP4 GT ISZERO PUSH3 0x5EC JUMPI DUP12 DUP13 REVERT JUMPDEST PUSH3 0x5FC DUP15 DUP12 DUP6 DUP8 ADD ADD PUSH3 0x626 JUMP JUMPDEST SWAP2 DUP2 ADD SWAP2 SWAP1 SWAP2 MSTORE DUP7 MSTORE POP POP SWAP3 DUP6 ADD SWAP3 SWAP1 DUP6 ADD SWAP1 PUSH1 0x1 ADD PUSH3 0x54E JUMP JUMPDEST POP SWAP1 SWAP9 SWAP8 POP POP POP POP POP POP POP POP JUMP JUMPDEST PUSH1 0x0 DUP3 PUSH1 0x1F DUP4 ADD SLT PUSH3 0x637 JUMPI DUP1 DUP2 REVERT JUMPDEST DUP2 MLOAD PUSH1 0x1 PUSH1 0x1 PUSH1 0x40 SHL SUB DUP2 GT ISZERO PUSH3 0x653 JUMPI PUSH3 0x653 PUSH3 0x914 JUMP JUMPDEST PUSH3 0x668 PUSH1 0x1F DUP3 ADD PUSH1 0x1F NOT AND PUSH1 0x20 ADD PUSH3 0x850 JUMP JUMPDEST DUP2 DUP2 MSTORE DUP5 PUSH1 0x20 DUP4 DUP7 ADD ADD GT ISZERO PUSH3 0x67D JUMPI DUP3 DUP4 REVERT JUMPDEST PUSH3 0x690 DUP3 PUSH1 0x20 DUP4 ADD PUSH1 0x20 DUP8 ADD PUSH3 0x87C JUMP JUMPDEST SWAP5 SWAP4 POP POP POP POP JUMP JUMPDEST PUSH1 0x0 DUP1 PUSH1 0x0 PUSH1 0x60 DUP5 DUP7 SUB SLT ISZERO PUSH3 0x6AD JUMPI DUP3 DUP4 REVERT JUMPDEST PUSH3 0x6B8 DUP5 PUSH3 0x4E6 JUMP JUMPDEST PUSH1 0x20 DUP6 ADD MLOAD SWAP1 SWAP4 POP PUSH1 0x1 PUSH1 0x1 PUSH1 0x40 SHL SUB DUP1 DUP3 GT ISZERO PUSH3 0x6D5 JUMPI DUP4 DUP5 REVERT JUMPDEST DUP2 DUP7 ADD SWAP2 POP PUSH2 0x140 DUP1 DUP4 DUP10 SUB SLT ISZERO PUSH3 0x6EC JUMPI DUP5 DUP6 REVERT JUMPDEST PUSH3 0x6F7 DUP2 PUSH3 0x850 JUMP JUMPDEST SWAP1 POP PUSH3 0x704 DUP4 PUSH3 0x4E6 JUMP JUMPDEST DUP2 MSTORE PUSH1 0x20 DUP4 ADD MLOAD DUP3 DUP2 GT ISZERO PUSH3 0x718 JUMPI DUP6 DUP7 REVERT JUMPDEST PUSH3 0x726 DUP10 DUP3 DUP7 ADD PUSH3 0x626 JUMP JUMPDEST PUSH1 0x20 DUP4 ADD MSTORE POP PUSH1 0x40 DUP4 ADD MLOAD DUP3 DUP2 GT ISZERO PUSH3 0x73E JUMPI DUP6 DUP7 REVERT JUMPDEST PUSH3 0x74C DUP10 DUP3 DUP7 ADD PUSH3 0x626 JUMP JUMPDEST PUSH1 0x40 DUP4 ADD MSTORE POP PUSH1 0x60 DUP4 ADD MLOAD DUP3 DUP2 GT ISZERO PUSH3 0x764 JUMPI DUP6 DUP7 REVERT JUMPDEST PUSH3 0x772 DUP10 DUP3 DUP7 ADD PUSH3 0x503 JUMP JUMPDEST PUSH1 0x60 DUP4 ADD MSTORE POP PUSH1 0x80 DUP4 ADD MLOAD PUSH1 0x80 DUP3 ADD MSTORE PUSH1 0xA0 DUP4 ADD MLOAD PUSH1 0xA0 DUP3 ADD MSTORE PUSH1 0xC0 DUP4 ADD MLOAD PUSH1 0xC0 DUP3 ADD MSTORE PUSH1 0xE0 DUP4 ADD MLOAD PUSH1 0xE0 DUP3 ADD MSTORE PUSH2 0x100 SWAP2 POP DUP2 DUP4 ADD MLOAD DUP3 DUP3 ADD MSTORE PUSH2 0x120 SWAP2 POP DUP2 DUP4 ADD MLOAD DUP3 DUP3 ADD MSTORE DUP1 SWAP5 POP POP POP POP PUSH3 0x7CE PUSH1 0x40 DUP6 ADD PUSH3 0x4E6 JUMP JUMPDEST SWAP1 POP SWAP3 POP SWAP3 POP SWAP3 JUMP JUMPDEST PUSH1 0x0 PUSH1 0x20 DUP3 MSTORE DUP3 MLOAD DUP1 PUSH1 0x20 DUP5 ADD MSTORE PUSH3 0x7F8 DUP2 PUSH1 0x40 DUP6 ADD PUSH1 0x20 DUP8 ADD PUSH3 0x87C JUMP JUMPDEST PUSH1 0x1F ADD PUSH1 0x1F NOT AND SWAP2 SWAP1 SWAP2 ADD PUSH1 0x40 ADD SWAP3 SWAP2 POP POP JUMP JUMPDEST PUSH1 0x20 DUP1 DUP3 MSTORE PUSH1 0x24 SWAP1 DUP3 ADD MSTORE PUSH32 0x5061796D656E7420746F6B656E2063616E6E6F74206265207A65726F20616464 PUSH1 0x40 DUP3 ADD MSTORE PUSH4 0x72657373 PUSH1 0xE0 SHL PUSH1 0x60 DUP3 ADD MSTORE PUSH1 0x80 ADD SWAP1 JUMP JUMPDEST PUSH1 0x40 MLOAD DUP2 DUP2 ADD PUSH1 0x1 PUSH1 0x1 PUSH1 0x40 SHL SUB DUP2 GT DUP3 DUP3 LT OR ISZERO PUSH3 0x874 JUMPI PUSH3 0x874 PUSH3 0x914 JUMP JUMPDEST PUSH1 0x40 MSTORE SWAP2 SWAP1 POP JUMP JUMPDEST PUSH1 0x0 JUMPDEST DUP4 DUP2 LT ISZERO PUSH3 0x899 JUMPI DUP2 DUP2 ADD MLOAD DUP4 DUP3 ADD MSTORE PUSH1 0x20 ADD PUSH3 0x87F JUMP JUMPDEST DUP4 DUP2 GT ISZERO PUSH3 0x8A9 JUMPI PUSH1 0x0 DUP5 DUP5 ADD MSTORE JUMPDEST POP POP POP POP JUMP JUMPDEST PUSH1 0x2 DUP2 DIV PUSH1 0x1 DUP3 AND DUP1 PUSH3 0x8C4 JUMPI PUSH1 0x7F DUP3 AND SWAP2 POP JUMPDEST PUSH1 0x20 DUP3 LT DUP2 EQ ISZERO PUSH3 0x8E6 JUMPI PUSH4 0x4E487B71 PUSH1 0xE0 SHL PUSH1 0x0 MSTORE PUSH1 0x22 PUSH1 0x4 MSTORE PUSH1 0x24 PUSH1 0x0 REVERT JUMPDEST POP SWAP2 SWAP1 POP JUMP JUMPDEST PUSH1 0x0 PUSH1 0x0 NOT DUP3 EQ ISZERO PUSH3 0x90D JUMPI PUSH4 0x4E487B71 PUSH1 0xE0 SHL DUP2 MSTORE PUSH1 0x11 PUSH1 0x4 MSTORE PUSH1 0x24 DUP2 REVERT JUMPDEST POP PUSH1 0x1 ADD SWAP1 JUMP JUMPDEST PUSH4 0x4E487B71 PUSH1 0xE0 SHL PUSH1 0x0 MSTORE PUSH1 0x41 PUSH1 0x4 MSTORE PUSH1 0x24 PUSH1 0x0 REVERT JUMPDEST PUSH1 0x80 MLOAD PUSH1 0x60 SHR PUSH1 0xA0 MLOAD PUSH1 0x60 SHR PUSH1 0xC0 MLOAD PUSH1 0x60 SHR PUSH1 0xE0 MLOAD PUSH1 0x60 SHR PUSH2 0x2DBD PUSH3 0x9D9 PUSH1 0x0 CODECOPY PUSH1 0x0 DUP2 DUP2 PUSH2 0x70A ADD MSTORE DUP2 DUP2 PUSH2 0x841 ADD MSTORE DUP2 DUP2 PUSH2 0x948 ADD MSTORE DUP2 DUP2 PUSH2 0xD31 ADD MSTORE DUP2 DUP2 PUSH2 0xF08 ADD MSTORE DUP2 DUP2 PUSH2 0x10F3 ADD MSTORE DUP2 DUP2 PUSH2 0x1350 ADD MSTORE DUP2 DUP2 PUSH2 0x20BE ADD MSTORE PUSH2 0x21B6 ADD MSTORE PUSH1 0x0 DUP2 DUP2 PUSH2 0x54A ADD MSTORE DUP2 DUP2 PUSH2 0x5C5 ADD MSTORE DUP2 DUP2 PUSH2 0x975 ADD MSTORE DUP2 DUP2 PUSH2 0xA3A ADD MSTORE PUSH2 0xF89 ADD MSTORE PUSH1 0x0 PUSH2 0x2192 ADD MSTORE PUSH1 0x0 DUP2 DUP2 PUSH2 0x86E ADD MSTORE DUP2 DUP2 PUSH2 0xA9B ADD MSTORE DUP2 DUP2 PUSH2 0x145F ADD MSTORE PUSH2 0x21DA ADD MSTORE PUSH2 0x2DBD PUSH1 0x0 RETURN INVALID PUSH1 0x80 PUSH1 0x40 MSTORE PUSH1 0x4 CALLDATASIZE LT PUSH2 0x1D8 JUMPI PUSH1 0x0 CALLDATALOAD PUSH1 0xE0 SHR DUP1 PUSH4 0x67C897FE GT PUSH2 0x102 JUMPI DUP1 PUSH4 0xB2F5A54C GT PUSH2 0x95 JUMPI DUP1 PUSH4 0xB573C273 GT PUSH2 0x64 JUMPI DUP1 PUSH4 0xB573C273 EQ PUSH2 0x4E9 JUMPI DUP1 PUSH4 0xC45A0155 EQ PUSH2 0x509 JUMPI DUP1 PUSH4 0xD41C3A65 EQ PUSH2 0x51E JUMPI DUP1 PUSH4 0xF851A440 EQ PUSH2 0x533 JUMPI PUSH2 0x1D8 JUMP JUMPDEST DUP1 PUSH4 0xB2F5A54C EQ PUSH2 0x47C JUMPI DUP1 PUSH4 0xB3A907EE EQ PUSH2 0x491 JUMPI DUP1 PUSH4 0xB4E830F1 EQ PUSH2 0x4BF JUMPI DUP1 PUSH4 0xB5545A3C EQ PUSH2 0x4D4 JUMPI PUSH2 0x1D8 JUMP JUMPDEST DUP1 PUSH4 0x96B98862 GT PUSH2 0xD1 JUMPI DUP1 PUSH4 0x96B98862 EQ PUSH2 0x412 JUMPI DUP1 PUSH4 0x9F550293 EQ PUSH2 0x432 JUMPI DUP1 PUSH4 0xA7328181 EQ PUSH2 0x447 JUMPI DUP1 PUSH4 0xABE7C130 EQ PUSH2 0x467 JUMPI PUSH2 0x1D8 JUMP JUMPDEST DUP1 PUSH4 0x67C897FE EQ PUSH2 0x390 JUMPI DUP1 PUSH4 0x68A94DFC EQ PUSH2 0x3B2 JUMPI DUP1 PUSH4 0x68BF37CB EQ PUSH2 0x3D2 JUMPI DUP1 PUSH4 0x78340A89 EQ PUSH2 0x3F2 JUMPI PUSH2 0x1D8 JUMP JUMPDEST DUP1 PUSH4 0x3FEB5F2B GT PUSH2 0x17A JUMPI DUP1 PUSH4 0x4E69D560 GT PUSH2 0x149 JUMPI DUP1 PUSH4 0x4E69D560 EQ PUSH2 0x315 JUMPI DUP1 PUSH4 0x521FED2B EQ PUSH2 0x337 JUMPI DUP1 PUSH4 0x560D52D4 EQ PUSH2 0x359 JUMPI DUP1 PUSH4 0x5FC2F095 EQ PUSH2 0x36E JUMPI PUSH2 0x1D8 JUMP JUMPDEST DUP1 PUSH4 0x3FEB5F2B EQ PUSH2 0x2B8 JUMPI DUP1 PUSH4 0x45755DD6 EQ PUSH2 0x2D8 JUMPI DUP1 PUSH4 0x4C7CE18A EQ PUSH2 0x2EB JUMPI DUP1 PUSH4 0x4CCC1AE1 EQ PUSH2 0x300 JUMPI PUSH2 0x1D8 JUMP JUMPDEST DUP1 PUSH4 0x24600FC3 GT PUSH2 0x1B6 JUMPI DUP1 PUSH4 0x24600FC3 EQ PUSH2 0x257 JUMPI DUP1 PUSH4 0x25973089 EQ PUSH2 0x26E JUMPI DUP1 PUSH4 0x2AFCF480 EQ PUSH2 0x290 JUMPI DUP1 PUSH4 0x3013CE29 EQ PUSH2 0x2A3 JUMPI PUSH2 0x1D8 JUMP JUMPDEST DUP1 PUSH4 0x2D05D3F EQ PUSH2 0x1DD JUMPI DUP1 PUSH4 0x10329D4D EQ PUSH2 0x208 JUMPI DUP1 PUSH4 0x146B58DF EQ PUSH2 0x22A JUMPI JUMPDEST PUSH1 0x0 DUP1 REVERT JUMPDEST CALLVALUE DUP1 ISZERO PUSH2 0x1E9 JUMPI PUSH1 0x0 DUP1 REVERT JUMPDEST POP PUSH2 0x1F2 PUSH2 0x548 JUMP JUMPDEST PUSH1 0x40 MLOAD PUSH2 0x1FF SWAP2 SWAP1 PUSH2 0x269C JUMP JUMPDEST PUSH1 0x40 MLOAD DUP1 SWAP2 SUB SWAP1 RETURN JUMPDEST CALLVALUE DUP1 ISZERO PUSH2 0x214 JUMPI PUSH1 0x0 DUP1 REVERT JUMPDEST POP PUSH2 0x21D PUSH2 0x56C JUMP JUMPDEST PUSH1 0x40 MLOAD PUSH2 0x1FF SWAP2 SWAP1 PUSH2 0x2749 JUMP JUMPDEST CALLVALUE DUP1 ISZERO PUSH2 0x236 JUMPI PUSH1 0x0 DUP1 REVERT JUMPDEST POP PUSH2 0x24A PUSH2 0x245 CALLDATASIZE PUSH1 0x4 PUSH2 0x244B JUMP JUMPDEST PUSH2 0x575 JUMP JUMPDEST PUSH1 0x40 MLOAD PUSH2 0x1FF SWAP2 SWAP1 PUSH2 0x2C55 JUMP JUMPDEST CALLVALUE DUP1 ISZERO PUSH2 0x263 JUMPI PUSH1 0x0 DUP1 REVERT JUMPDEST POP PUSH2 0x26C PUSH2 0x590 JUMP JUMPDEST STOP JUMPDEST CALLVALUE DUP1 ISZERO PUSH2 0x27A JUMPI PUSH1 0x0 DUP1 REVERT JUMPDEST POP PUSH2 0x283 PUSH2 0xB07 JUMP JUMPDEST PUSH1 0x40 MLOAD PUSH2 0x1FF SWAP2 SWAP1 PUSH2 0x277C JUMP JUMPDEST PUSH2 0x26C PUSH2 0x29E CALLDATASIZE PUSH1 0x4 PUSH2 0x253A JUMP JUMPDEST PUSH2 0xB9D JUMP JUMPDEST CALLVALUE DUP1 ISZERO PUSH2 0x2AF JUMPI PUSH1 0x0 DUP1 REVERT JUMPDEST POP PUSH2 0x1F2 PUSH2 0xF06 JUMP JUMPDEST CALLVALUE DUP1 ISZERO PUSH2 0x2C4 JUMPI PUSH1 0x0 DUP1 REVERT JUMPDEST POP PUSH2 0x1F2 PUSH2 0x2D3 CALLDATASIZE PUSH1 0x4 PUSH2 0x253A JUMP JUMPDEST PUSH2 0xF2A JUMP JUMPDEST PUSH2 0x26C PUSH2 0x2E6 CALLDATASIZE PUSH1 0x4 PUSH2 0x253A JUMP JUMPDEST PUSH2 0xF54 JUMP JUMPDEST CALLVALUE DUP1 ISZERO PUSH2 0x2F7 JUMPI PUSH1 0x0 DUP1 REVERT JUMPDEST POP PUSH2 0x26C PUSH2 0x1253 JUMP JUMPDEST CALLVALUE DUP1 ISZERO PUSH2 0x30C JUMPI PUSH1 0x0 DUP1 REVERT JUMPDEST POP PUSH2 0x26C PUSH2 0x1448 JUMP JUMPDEST CALLVALUE DUP1 ISZERO PUSH2 0x321 JUMPI PUSH1 0x0 DUP1 REVERT JUMPDEST POP PUSH2 0x32A PUSH2 0x15B8 JUMP JUMPDEST PUSH1 0x40 MLOAD PUSH2 0x1FF SWAP2 SWAP1 PUSH2 0x2754 JUMP JUMPDEST CALLVALUE DUP1 ISZERO PUSH2 0x343 JUMPI PUSH1 0x0 DUP1 REVERT JUMPDEST POP PUSH2 0x34C PUSH2 0x15C7 JUMP JUMPDEST PUSH1 0x40 MLOAD PUSH2 0x1FF SWAP2 SWAP1 PUSH2 0x2C28 JUMP JUMPDEST CALLVALUE DUP1 ISZERO PUSH2 0x365 JUMPI PUSH1 0x0 DUP1 REVERT JUMPDEST POP PUSH2 0x24A PUSH2 0x1601 JUMP JUMPDEST CALLVALUE DUP1 ISZERO PUSH2 0x37A JUMPI PUSH1 0x0 DUP1 REVERT JUMPDEST POP PUSH2 0x383 PUSH2 0x1606 JUMP JUMPDEST PUSH1 0x40 MLOAD PUSH2 0x1FF SWAP2 SWAP1 PUSH2 0x26ED JUMP JUMPDEST CALLVALUE DUP1 ISZERO PUSH2 0x39C JUMPI PUSH1 0x0 DUP1 REVERT JUMPDEST POP PUSH2 0x3A5 PUSH2 0x1760 JUMP JUMPDEST PUSH1 0x40 MLOAD PUSH2 0x1FF SWAP2 SWAP1 PUSH2 0x2B6A JUMP JUMPDEST CALLVALUE DUP1 ISZERO PUSH2 0x3BE JUMPI PUSH1 0x0 DUP1 REVERT JUMPDEST POP PUSH2 0x21D PUSH2 0x3CD CALLDATASIZE PUSH1 0x4 PUSH2 0x244B JUMP JUMPDEST PUSH2 0x1B00 JUMP JUMPDEST CALLVALUE DUP1 ISZERO PUSH2 0x3DE JUMPI PUSH1 0x0 DUP1 REVERT JUMPDEST POP PUSH2 0x21D PUSH2 0x3ED CALLDATASIZE PUSH1 0x4 PUSH2 0x244B JUMP JUMPDEST PUSH2 0x1B15 JUMP JUMPDEST CALLVALUE DUP1 ISZERO PUSH2 0x3FE JUMPI PUSH1 0x0 DUP1 REVERT JUMPDEST POP PUSH2 0x26C PUSH2 0x40D CALLDATASIZE PUSH1 0x4 PUSH2 0x2499 JUMP JUMPDEST PUSH2 0x1B33 JUMP JUMPDEST CALLVALUE DUP1 ISZERO PUSH2 0x41E JUMPI PUSH1 0x0 DUP1 REVERT JUMPDEST POP PUSH2 0x24A PUSH2 0x42D CALLDATASIZE PUSH1 0x4 PUSH2 0x244B JUMP JUMPDEST PUSH2 0x1C10 JUMP JUMPDEST CALLVALUE DUP1 ISZERO PUSH2 0x43E JUMPI PUSH1 0x0 DUP1 REVERT JUMPDEST POP PUSH2 0x24A PUSH2 0x1C22 JUMP JUMPDEST CALLVALUE DUP1 ISZERO PUSH2 0x453 JUMPI PUSH1 0x0 DUP1 REVERT JUMPDEST POP PUSH2 0x21D PUSH2 0x462 CALLDATASIZE PUSH1 0x4 PUSH2 0x244B JUMP JUMPDEST PUSH2 0x1C36 JUMP JUMPDEST CALLVALUE DUP1 ISZERO PUSH2 0x473 JUMPI PUSH1 0x0 DUP1 REVERT JUMPDEST POP PUSH2 0x21D PUSH2 0x1C4B JUMP JUMPDEST CALLVALUE DUP1 ISZERO PUSH2 0x488 JUMPI PUSH1 0x0 DUP1 REVERT JUMPDEST POP PUSH2 0x383 PUSH2 0x1C54 JUMP JUMPDEST CALLVALUE DUP1 ISZERO PUSH2 0x49D JUMPI PUSH1 0x0 DUP1 REVERT JUMPDEST POP PUSH2 0x4B1 PUSH2 0x4AC CALLDATASIZE PUSH1 0x4 PUSH2 0x244B JUMP JUMPDEST PUSH2 0x1CB5 JUMP JUMPDEST PUSH1 0x40 MLOAD PUSH2 0x1FF SWAP3 SWAP2 SWAP1 PUSH2 0x2700 JUMP JUMPDEST CALLVALUE DUP1 ISZERO PUSH2 0x4CB JUMPI PUSH1 0x0 DUP1 REVERT JUMPDEST POP PUSH2 0x26C PUSH2 0x1F28 JUMP JUMPDEST CALLVALUE DUP1 ISZERO PUSH2 0x4E0 JUMPI PUSH1 0x0 DUP1 REVERT JUMPDEST POP PUSH2 0x26C PUSH2 0x1FD8 JUMP JUMPDEST CALLVALUE DUP1 ISZERO PUSH2 0x4F5 JUMPI PUSH1 0x0 DUP1 REVERT JUMPDEST POP PUSH2 0x21D PUSH2 0x504 CALLDATASIZE PUSH1 0x4 PUSH2 0x244B JUMP JUMPDEST PUSH2 0x2172 JUMP JUMPDEST CALLVALUE DUP1 ISZERO PUSH2 0x515 JUMPI PUSH1 0x0 DUP1 REVERT JUMPDEST POP PUSH2 0x1F2 PUSH2 0x2190 JUMP JUMPDEST CALLVALUE DUP1 ISZERO PUSH2 0x52A JUMPI PUSH1 0x0 DUP1 REVERT JUMPDEST POP PUSH2 0x1F2 PUSH2 0x21B4 JUMP JUMPDEST CALLVALUE DUP1 ISZERO PUSH2 0x53F JUMPI PUSH1 0x0 DUP1 REVERT JUMPDEST POP PUSH2 0x1F2 PUSH2 0x21D8 JUMP JUMPDEST PUSH32 0x0 DUP2 JUMP JUMPDEST PUSH1 0x16 SLOAD PUSH1 0xFF AND DUP2 JUMP JUMPDEST PUSH1 0x1 PUSH1 0x1 PUSH1 0xA0 SHL SUB AND PUSH1 0x0 SWAP1 DUP2 MSTORE PUSH1 0x12 PUSH1 0x20 MSTORE PUSH1 0x40 SWAP1 KECCAK256 SLOAD SWAP1 JUMP JUMPDEST PUSH2 0x598 PUSH2 0x21FC JUMP JUMPDEST PUSH1 0x40 DUP1 MLOAD DUP1 DUP3 ADD SWAP1 SWAP2 MSTORE PUSH1 0xB DUP2 MSTORE PUSH11 0x2737BA1031B932B0BA37B9 PUSH1 0xA9 SHL PUSH1 0x20 DUP3 ADD MSTORE CALLER PUSH1 0x1 PUSH1 0x1 PUSH1 0xA0 SHL SUB PUSH32 0x0 AND EQ PUSH2 0x60C JUMPI PUSH1 0x40 MLOAD PUSH3 0x461BCD PUSH1 0xE5 SHL DUP2 MSTORE PUSH1 0x4 ADD PUSH2 0x603 SWAP2 SWAP1 PUSH2 0x277C JUMP JUMPDEST PUSH1 0x40 MLOAD DUP1 SWAP2 SUB SWAP1 REVERT JUMPDEST POP PUSH1 0x3 PUSH1 0xF SLOAD PUSH1 0xFF AND PUSH1 0x5 DUP2 GT ISZERO PUSH2 0x634 JUMPI PUSH4 0x4E487B71 PUSH1 0xE0 SHL PUSH1 0x0 MSTORE PUSH1 0x21 PUSH1 0x4 MSTORE PUSH1 0x24 PUSH1 0x0 REVERT JUMPDEST EQ PUSH1 0x40 MLOAD DUP1 PUSH1 0x40 ADD PUSH1 0x40 MSTORE DUP1 PUSH1 0x12 DUP2 MSTORE PUSH1 0x20 ADD PUSH18 0x50726F6A656374206E6F7420616374697665 PUSH1 0x70 SHL DUP2 MSTORE POP SWAP1 PUSH2 0x67E JUMPI PUSH1 0x40 MLOAD PUSH3 0x461BCD PUSH1 0xE5 SHL DUP2 MSTORE PUSH1 0x4 ADD PUSH2 0x603 SWAP2 SWAP1 PUSH2 0x277C JUMP JUMPDEST POP PUSH1 0x6 SLOAD PUSH1 0x40 DUP1 MLOAD DUP1 DUP3 ADD SWAP1 SWAP2 MSTORE PUSH1 0x12 DUP2 MSTORE PUSH18 0x496E76616C696420646174652072616E6765 PUSH1 0x70 SHL PUSH1 0x20 DUP3 ADD MSTORE SWAP1 TIMESTAMP LT ISZERO PUSH2 0x6CC JUMPI PUSH1 0x40 MLOAD PUSH3 0x461BCD PUSH1 0xE5 SHL DUP2 MSTORE PUSH1 0x4 ADD PUSH2 0x603 SWAP2 SWAP1 PUSH2 0x277C JUMP JUMPDEST POP PUSH1 0x16 SLOAD PUSH1 0xFF AND ISZERO PUSH2 0x6F0 JUMPI PUSH1 0x40 MLOAD PUSH3 0x461BCD PUSH1 0xE5 SHL DUP2 MSTORE PUSH1 0x4 ADD PUSH2 0x603 SWAP1 PUSH2 0x28D6 JUMP JUMPDEST PUSH1 0x40 MLOAD PUSH4 0x70A08231 PUSH1 0xE0 SHL DUP2 MSTORE PUSH1 0x0 SWAP1 PUSH1 0x1 PUSH1 0x1 PUSH1 0xA0 SHL SUB PUSH32 0x0 AND SWAP1 PUSH4 0x70A08231 SWAP1 PUSH2 0x73F SWAP1 ADDRESS SWAP1 PUSH1 0x4 ADD PUSH2 0x269C JUMP JUMPDEST PUSH1 0x20 PUSH1 0x40 MLOAD DUP1 DUP4 SUB DUP2 DUP7 DUP1 EXTCODESIZE ISZERO DUP1 ISZERO PUSH2 0x757 JUMPI PUSH1 0x0 DUP1 REVERT JUMPDEST POP GAS STATICCALL ISZERO DUP1 ISZERO PUSH2 0x76B JUMPI RETURNDATASIZE PUSH1 0x0 DUP1 RETURNDATACOPY RETURNDATASIZE PUSH1 0x0 REVERT JUMPDEST POP POP POP POP PUSH1 0x40 MLOAD RETURNDATASIZE PUSH1 0x1F NOT PUSH1 0x1F DUP3 ADD AND DUP3 ADD DUP1 PUSH1 0x40 MSTORE POP DUP2 ADD SWAP1 PUSH2 0x78F SWAP2 SWAP1 PUSH2 0x2552 JUMP JUMPDEST SWAP1 POP PUSH1 0x0 DUP2 GT PUSH1 0x40 MLOAD DUP1 PUSH1 0x40 ADD PUSH1 0x40 MSTORE DUP1 PUSH1 0x12 DUP2 MSTORE PUSH1 0x20 ADD PUSH18 0x4E6F7420656E6F7567682062616C616E6365 PUSH1 0x70 SHL DUP2 MSTORE POP SWAP1 PUSH2 0x7DE JUMPI PUSH1 0x40 MLOAD PUSH3 0x461BCD PUSH1 0xE5 SHL DUP2 MSTORE PUSH1 0x4 ADD PUSH2 0x603 SWAP2 SWAP1 PUSH2 0x277C JUMP JUMPDEST POP PUSH1 0xF SLOAD PUSH1 0x0 SWAP1 PUSH1 0x64 SWAP1 PUSH2 0x802 SWAP1 PUSH1 0x1 SWAP1 PUSH2 0x100 SWAP1 DIV PUSH1 0x1 PUSH1 0x1 PUSH1 0x80 SHL SUB AND PUSH2 0x2CCF JUMP JUMPDEST PUSH2 0x80C SWAP2 SWAP1 PUSH2 0x2CAF JUMP JUMPDEST SWAP1 POP PUSH1 0x0 PUSH2 0x81A DUP3 DUP5 PUSH2 0x2CEE JUMP JUMPDEST PUSH1 0x16 DUP1 SLOAD PUSH1 0xFF NOT AND PUSH1 0x1 OR SWAP1 SSTORE PUSH1 0x40 MLOAD PUSH4 0xA9059CBB PUSH1 0xE0 SHL DUP2 MSTORE SWAP1 SWAP2 POP PUSH1 0x1 PUSH1 0x1 PUSH1 0xA0 SHL SUB PUSH32 0x0 AND SWAP1 PUSH4 0xA9059CBB SWAP1 PUSH2 0x898 SWAP1 PUSH32 0x0 SWAP1 DUP7 SWAP1 PUSH1 0x4 ADD PUSH2 0x26D4 JUMP JUMPDEST PUSH1 0x20 PUSH1 0x40 MLOAD DUP1 DUP4 SUB DUP2 PUSH1 0x0 DUP8 DUP1 EXTCODESIZE ISZERO DUP1 ISZERO PUSH2 0x8B2 JUMPI PUSH1 0x0 DUP1 REVERT JUMPDEST POP GAS CALL ISZERO DUP1 ISZERO PUSH2 0x8C6 JUMPI RETURNDATASIZE PUSH1 0x0 DUP1 RETURNDATACOPY RETURNDATASIZE PUSH1 0x0 REVERT JUMPDEST POP POP POP POP PUSH1 0x40 MLOAD RETURNDATASIZE PUSH1 0x1F NOT PUSH1 0x1F DUP3 ADD AND DUP3 ADD DUP1 PUSH1 0x40 MSTORE POP DUP2 ADD SWAP1 PUSH2 0x8EA SWAP2 SWAP1 PUSH2 0x2479 JUMP JUMPDEST PUSH1 0x40 MLOAD DUP1 PUSH1 0x40 ADD PUSH1 0x40 MSTORE DUP1 PUSH1 0xF DUP2 MSTORE PUSH1 0x20 ADD PUSH15 0x151C985B9CD9995C8819985A5B1959 PUSH1 0x8A SHL DUP2 MSTORE POP SWAP1 PUSH2 0x930 JUMPI PUSH1 0x40 MLOAD PUSH3 0x461BCD PUSH1 0xE5 SHL DUP2 MSTORE PUSH1 0x4 ADD PUSH2 0x603 SWAP2 SWAP1 PUSH2 0x277C JUMP JUMPDEST POP PUSH1 0x40 MLOAD PUSH4 0xA9059CBB PUSH1 0xE0 SHL DUP2 MSTORE PUSH1 0x1 PUSH1 0x1 PUSH1 0xA0 SHL SUB PUSH32 0x0 AND SWAP1 PUSH4 0xA9059CBB SWAP1 PUSH2 0x99F SWAP1 PUSH32 0x0 SWAP1 DUP6 SWAP1 PUSH1 0x4 ADD PUSH2 0x26D4 JUMP JUMPDEST PUSH1 0x20 PUSH1 0x40 MLOAD DUP1 DUP4 SUB DUP2 PUSH1 0x0 DUP8 DUP1 EXTCODESIZE ISZERO DUP1 ISZERO PUSH2 0x9B9 JUMPI PUSH1 0x0 DUP1 REVERT JUMPDEST POP GAS CALL ISZERO DUP1 ISZERO PUSH2 0x9CD JUMPI RETURNDATASIZE PUSH1 0x0 DUP1 RETURNDATACOPY RETURNDATASIZE PUSH1 0x0 REVERT JUMPDEST POP POP POP POP PUSH1 0x40 MLOAD RETURNDATASIZE PUSH1 0x1F NOT PUSH1 0x1F DUP3 ADD AND DUP3 ADD DUP1 PUSH1 0x40 MSTORE POP DUP2 ADD SWAP1 PUSH2 0x9F1 SWAP2 SWAP1 PUSH2 0x2479 JUMP JUMPDEST PUSH1 0x40 MLOAD DUP1 PUSH1 0x40 ADD PUSH1 0x40 MSTORE DUP1 PUSH1 0xF DUP2 MSTORE PUSH1 0x20 ADD PUSH15 0x151C985B9CD9995C8819985A5B1959 PUSH1 0x8A SHL DUP2 MSTORE POP SWAP1 PUSH2 0xA37 JUMPI PUSH1 0x40 MLOAD PUSH3 0x461BCD PUSH1 0xE5 SHL DUP2 MSTORE PUSH1 0x4 ADD PUSH2 0x603 SWAP2 SWAP1 PUSH2 0x277C JUMP JUMPDEST POP PUSH32 0x0 PUSH1 0x1 PUSH1 0x1 PUSH1 0xA0 SHL SUB AND PUSH32 0xEAFF4B37086828766AD3268786972C0CD24259D4C87A80F9D3963A3C3D999B0D DUP3 PUSH1 0x40 MLOAD PUSH2 0xA91 SWAP2 SWAP1 PUSH2 0x2C55 JUMP JUMPDEST PUSH1 0x40 MLOAD DUP1 SWAP2 SUB SWAP1 LOG2 PUSH32 0x0 PUSH1 0x1 PUSH1 0x1 PUSH1 0xA0 SHL SUB AND PUSH32 0xB22271622602AF8E76F473A71B98890DF40DC7FD2C2A5A574FDAA6D8FDBF2281 DUP4 PUSH1 0x40 MLOAD PUSH2 0xAF2 SWAP2 SWAP1 PUSH2 0x2C55 JUMP JUMPDEST PUSH1 0x40 MLOAD DUP1 SWAP2 SUB SWAP1 LOG2 POP POP POP PUSH2 0xB05 PUSH2 0x2226 JUMP JUMPDEST JUMP JUMPDEST PUSH1 0x60 PUSH1 0xF PUSH1 0x2 ADD DUP1 SLOAD PUSH2 0xB19 SWAP1 PUSH2 0x2D05 JUMP JUMPDEST DUP1 PUSH1 0x1F ADD PUSH1 0x20 DUP1 SWAP2 DIV MUL PUSH1 0x20 ADD PUSH1 0x40 MLOAD SWAP1 DUP2 ADD PUSH1 0x40 MSTORE DUP1 SWAP3 SWAP2 SWAP1 DUP2 DUP2 MSTORE PUSH1 0x20 ADD DUP3 DUP1 SLOAD PUSH2 0xB45 SWAP1 PUSH2 0x2D05 JUMP JUMPDEST DUP1 ISZERO PUSH2 0xB92 JUMPI DUP1 PUSH1 0x1F LT PUSH2 0xB67 JUMPI PUSH2 0x100 DUP1 DUP4 SLOAD DIV MUL DUP4 MSTORE SWAP2 PUSH1 0x20 ADD SWAP2 PUSH2 0xB92 JUMP JUMPDEST DUP3 ADD SWAP2 SWAP1 PUSH1 0x0 MSTORE PUSH1 0x20 PUSH1 0x0 KECCAK256 SWAP1 JUMPDEST DUP2 SLOAD DUP2 MSTORE SWAP1 PUSH1 0x1 ADD SWAP1 PUSH1 0x20 ADD DUP1 DUP4 GT PUSH2 0xB75 JUMPI DUP3 SWAP1 SUB PUSH1 0x1F AND DUP3 ADD SWAP2 JUMPDEST POP POP POP POP POP SWAP1 POP JUMPDEST SWAP1 JUMP JUMPDEST PUSH2 0xBA5 PUSH2 0x21FC JUMP JUMPDEST PUSH1 0xF CALLVALUE ISZERO PUSH2 0xBC5 JUMPI PUSH1 0x40 MLOAD PUSH3 0x461BCD PUSH1 0xE5 SHL DUP2 MSTORE PUSH1 0x4 ADD PUSH2 0x603 SWAP1 PUSH2 0x29F7 JUMP JUMPDEST PUSH1 0x0 DUP3 GT PUSH2 0xBE5 JUMPI PUSH1 0x40 MLOAD PUSH3 0x461BCD PUSH1 0xE5 SHL DUP2 MSTORE PUSH1 0x4 ADD PUSH2 0x603 SWAP1 PUSH2 0x290D JUMP JUMPDEST PUSH1 0x2 DUP2 SLOAD PUSH1 0xFF AND PUSH1 0x5 DUP2 GT ISZERO PUSH2 0xC0B JUMPI PUSH4 0x4E487B71 PUSH1 0xE0 SHL PUSH1 0x0 MSTORE PUSH1 0x21 PUSH1 0x4 MSTORE PUSH1 0x24 PUSH1 0x0 REVERT JUMPDEST EQ DUP1 PUSH2 0xC3A JUMPI POP PUSH1 0x3 DUP2 SLOAD PUSH1 0xFF AND PUSH1 0x5 DUP2 GT ISZERO PUSH2 0xC38 JUMPI PUSH4 0x4E487B71 PUSH1 0xE0 SHL PUSH1 0x0 MSTORE PUSH1 0x21 PUSH1 0x4 MSTORE PUSH1 0x24 PUSH1 0x0 REVERT JUMPDEST EQ JUMPDEST PUSH2 0xC56 JUMPI PUSH1 0x40 MLOAD PUSH3 0x461BCD PUSH1 0xE5 SHL DUP2 MSTORE PUSH1 0x4 ADD PUSH2 0x603 SWAP1 PUSH2 0x278F JUMP JUMPDEST PUSH1 0x5 SLOAD TIMESTAMP LT ISZERO PUSH2 0xC78 JUMPI PUSH1 0x40 MLOAD PUSH3 0x461BCD PUSH1 0xE5 SHL DUP2 MSTORE PUSH1 0x4 ADD PUSH2 0x603 SWAP1 PUSH2 0x27D3 JUMP JUMPDEST PUSH1 0x6 SLOAD TIMESTAMP GT ISZERO PUSH2 0xC9A JUMPI PUSH1 0x40 MLOAD PUSH3 0x461BCD PUSH1 0xE5 SHL DUP2 MSTORE PUSH1 0x4 ADD PUSH2 0x603 SWAP1 PUSH2 0x2989 JUMP JUMPDEST PUSH1 0x9 SLOAD DUP3 LT ISZERO PUSH2 0xCBC JUMPI PUSH1 0x40 MLOAD PUSH3 0x461BCD PUSH1 0xE5 SHL DUP2 MSTORE PUSH1 0x4 ADD PUSH2 0x603 SWAP1 PUSH2 0x2B33 JUMP JUMPDEST PUSH1 0xA SLOAD DUP3 GT ISZERO PUSH2 0xCDE JUMPI PUSH1 0x40 MLOAD PUSH3 0x461BCD PUSH1 0xE5 SHL DUP2 MSTORE PUSH1 0x4 ADD PUSH2 0x603 SWAP1 PUSH2 0x2803 JUMP JUMPDEST PUSH1 0x8 SLOAD DUP2 SLOAD PUSH2 0xCFC SWAP1 DUP5 SWAP1 PUSH2 0x100 SWAP1 DIV PUSH1 0x1 PUSH1 0x1 PUSH1 0x80 SHL SUB AND PUSH2 0x2C97 JUMP JUMPDEST GT ISZERO PUSH2 0xD1A JUMPI PUSH1 0x40 MLOAD PUSH3 0x461BCD PUSH1 0xE5 SHL DUP2 MSTORE PUSH1 0x4 ADD PUSH2 0x603 SWAP1 PUSH2 0x283A JUMP JUMPDEST PUSH1 0x40 MLOAD PUSH4 0x23B872DD PUSH1 0xE0 SHL DUP2 MSTORE PUSH1 0x1 PUSH1 0x1 PUSH1 0xA0 SHL SUB PUSH32 0x0 AND SWAP1 PUSH4 0x23B872DD SWAP1 PUSH2 0xD6A SWAP1 CALLER SWAP1 ADDRESS SWAP1 DUP8 SWAP1 PUSH1 0x4 ADD PUSH2 0x26B0 JUMP JUMPDEST PUSH1 0x20 PUSH1 0x40 MLOAD DUP1 DUP4 SUB DUP2 PUSH1 0x0 DUP8 DUP1 EXTCODESIZE ISZERO DUP1 ISZERO PUSH2 0xD84 JUMPI PUSH1 0x0 DUP1 REVERT JUMPDEST POP GAS CALL ISZERO DUP1 ISZERO PUSH2 0xD98 JUMPI RETURNDATASIZE PUSH1 0x0 DUP1 RETURNDATACOPY RETURNDATASIZE PUSH1 0x0 REVERT JUMPDEST POP POP POP POP PUSH1 0x40 MLOAD RETURNDATASIZE PUSH1 0x1F NOT PUSH1 0x1F DUP3 ADD AND DUP3 ADD DUP1 PUSH1 0x40 MSTORE POP DUP2 ADD SWAP1 PUSH2 0xDBC SWAP2 SWAP1 PUSH2 0x2479 JUMP JUMPDEST PUSH2 0xDD8 JUMPI PUSH1 0x40 MLOAD PUSH3 0x461BCD PUSH1 0xE5 SHL DUP2 MSTORE PUSH1 0x4 ADD PUSH2 0x603 SWAP1 PUSH2 0x2A97 JUMP JUMPDEST CALLER PUSH1 0x0 SWAP1 DUP2 MSTORE PUSH1 0x12 PUSH1 0x20 MSTORE PUSH1 0x40 SWAP1 KECCAK256 SLOAD PUSH2 0xE2F JUMPI PUSH1 0x15 DUP1 SLOAD PUSH1 0x1 DUP2 ADD DUP3 SSTORE PUSH1 0x0 SWAP2 SWAP1 SWAP2 MSTORE PUSH32 0x55F448FDEA98C4D29EB340757EF0A66CD03DBB9538908A6A81D96026B71EC475 ADD DUP1 SLOAD PUSH1 0x1 PUSH1 0x1 PUSH1 0xA0 SHL SUB NOT AND CALLER OR SWAP1 SSTORE JUMPDEST CALLER PUSH1 0x0 SWAP1 DUP2 MSTORE PUSH1 0x12 PUSH1 0x20 MSTORE PUSH1 0x40 DUP2 KECCAK256 DUP1 SLOAD DUP5 SWAP3 SWAP1 PUSH2 0xE4E SWAP1 DUP5 SWAP1 PUSH2 0x2C97 JUMP JUMPDEST SWAP1 SWAP2 SSTORE POP POP DUP1 SLOAD DUP3 SWAP1 DUP3 SWAP1 PUSH1 0x1 SWAP1 PUSH2 0xE75 SWAP1 DUP5 SWAP1 PUSH2 0x100 SWAP1 DIV PUSH1 0x1 PUSH1 0x1 PUSH1 0x80 SHL SUB AND PUSH2 0x2C6C JUMP JUMPDEST DUP3 SLOAD PUSH1 0x1 PUSH1 0x1 PUSH1 0x80 SHL SUB SWAP2 DUP3 AND PUSH2 0x100 SWAP4 DUP5 EXP SWAP1 DUP2 MUL SWAP1 DUP4 MUL NOT SWAP1 SWAP2 AND OR SWAP1 SWAP3 SSTORE PUSH1 0x1 DUP5 ADD SLOAD DUP5 SLOAD SWAP2 SWAP1 SWAP2 DIV DUP3 AND SWAP2 AND EQ ISZERO SWAP1 POP PUSH2 0xEB9 JUMPI DUP1 SLOAD PUSH1 0xFF NOT AND PUSH1 0x3 OR DUP2 SSTORE JUMPDEST CALLER PUSH1 0x1 PUSH1 0x1 PUSH1 0xA0 SHL SUB AND PUSH32 0x922308D0A22C67FF6F9852774E95FA4F7D10C9ECB1E430F0461143597003D377 DUP4 PUSH1 0x40 MLOAD PUSH2 0xEF2 SWAP2 SWAP1 PUSH2 0x2C55 JUMP JUMPDEST PUSH1 0x40 MLOAD DUP1 SWAP2 SUB SWAP1 LOG2 POP PUSH2 0xF03 PUSH2 0x2226 JUMP JUMPDEST POP JUMP JUMPDEST PUSH32 0x0 DUP2 JUMP JUMPDEST PUSH1 0x15 DUP2 DUP2 SLOAD DUP2 LT PUSH2 0xF3A JUMPI PUSH1 0x0 DUP1 REVERT JUMPDEST PUSH1 0x0 SWAP2 DUP3 MSTORE PUSH1 0x20 SWAP1 SWAP2 KECCAK256 ADD SLOAD PUSH1 0x1 PUSH1 0x1 PUSH1 0xA0 SHL SUB AND SWAP1 POP DUP2 JUMP JUMPDEST PUSH2 0xF5C PUSH2 0x21FC JUMP JUMPDEST PUSH1 0x40 DUP1 MLOAD DUP1 DUP3 ADD SWAP1 SWAP2 MSTORE PUSH1 0xB DUP2 MSTORE PUSH11 0x2737BA1031B932B0BA37B9 PUSH1 0xA9 SHL PUSH1 0x20 DUP3 ADD MSTORE CALLER PUSH1 0x1 PUSH1 0x1 PUSH1 0xA0 SHL SUB PUSH32 0x0 AND EQ PUSH2 0xFC7 JUMPI PUSH1 0x40 MLOAD PUSH3 0x461BCD PUSH1 0xE5 SHL DUP2 MSTORE PUSH1 0x4 ADD PUSH2 0x603 SWAP2 SWAP1 PUSH2 0x277C JUMP JUMPDEST POP PUSH1 0x3 PUSH1 0xF SLOAD PUSH1 0xFF AND PUSH1 0x5 DUP2 GT ISZERO PUSH2 0xFEF JUMPI PUSH4 0x4E487B71 PUSH1 0xE0 SHL PUSH1 0x0 MSTORE PUSH1 0x21 PUSH1 0x4 MSTORE PUSH1 0x24 PUSH1 0x0 REVERT JUMPDEST EQ PUSH1 0x40 MLOAD DUP1 PUSH1 0x40 ADD PUSH1 0x40 MSTORE DUP1 PUSH1 0x12 DUP2 MSTORE PUSH1 0x20 ADD PUSH18 0x50726F6A656374206E6F7420616374697665 PUSH1 0x70 SHL DUP2 MSTORE POP SWAP1 PUSH2 0x1039 JUMPI PUSH1 0x40 MLOAD PUSH3 0x461BCD PUSH1 0xE5 SHL DUP2 MSTORE PUSH1 0x4 ADD PUSH2 0x603 SWAP2 SWAP1 PUSH2 0x277C JUMP JUMPDEST POP CALLVALUE ISZERO PUSH2 0x1058 JUMPI PUSH1 0x40 MLOAD PUSH3 0x461BCD PUSH1 0xE5 SHL DUP2 MSTORE PUSH1 0x4 ADD PUSH2 0x603 SWAP1 PUSH2 0x29F7 JUMP JUMPDEST PUSH1 0xE SLOAD PUSH1 0x40 DUP1 MLOAD DUP1 DUP3 ADD SWAP1 SWAP2 MSTORE PUSH1 0x16 DUP2 MSTORE PUSH22 0x119D5B991CC8185B1C9958591E481C995D1D5C9B9959 PUSH1 0x52 SHL PUSH1 0x20 DUP3 ADD MSTORE SWAP1 PUSH1 0xFF AND ISZERO PUSH2 0x10AA JUMPI PUSH1 0x40 MLOAD PUSH3 0x461BCD PUSH1 0xE5 SHL DUP2 MSTORE PUSH1 0x4 ADD PUSH2 0x603 SWAP2 SWAP1 PUSH2 0x277C JUMP JUMPDEST POP PUSH1 0xF SLOAD PUSH2 0x100 SWAP1 DIV PUSH1 0x1 PUSH1 0x1 PUSH1 0x80 SHL SUB AND DUP1 DUP3 LT ISZERO PUSH2 0x10DC JUMPI PUSH1 0x40 MLOAD PUSH3 0x461BCD PUSH1 0xE5 SHL DUP2 MSTORE PUSH1 0x4 ADD PUSH2 0x603 SWAP1 PUSH2 0x2944 JUMP JUMPDEST PUSH1 0x40 MLOAD PUSH4 0x23B872DD PUSH1 0xE0 SHL DUP2 MSTORE PUSH1 0x1 PUSH1 0x1 PUSH1 0xA0 SHL SUB PUSH32 0x0 AND SWAP1 PUSH4 0x23B872DD SWAP1 PUSH2 0x112C SWAP1 CALLER SWAP1 ADDRESS SWAP1 DUP8 SWAP1 PUSH1 0x4 ADD PUSH2 0x26B0 JUMP JUMPDEST PUSH1 0x20 PUSH1 0x40 MLOAD DUP1 DUP4 SUB DUP2 PUSH1 0x0 DUP8 DUP1 EXTCODESIZE ISZERO DUP1 ISZERO PUSH2 0x1146 JUMPI PUSH1 0x0 DUP1 REVERT JUMPDEST POP GAS CALL ISZERO DUP1 ISZERO PUSH2 0x115A JUMPI RETURNDATASIZE PUSH1 0x0 DUP1 RETURNDATACOPY RETURNDATASIZE PUSH1 0x0 REVERT JUMPDEST POP POP POP POP PUSH1 0x40 MLOAD RETURNDATASIZE PUSH1 0x1F NOT PUSH1 0x1F DUP3 ADD AND DUP3 ADD DUP1 PUSH1 0x40 MSTORE POP DUP2 ADD SWAP1 PUSH2 0x117E SWAP2 SWAP1 PUSH2 0x2479 JUMP JUMPDEST PUSH2 0x119A JUMPI PUSH1 0x40 MLOAD PUSH3 0x461BCD PUSH1 0xE5 SHL DUP2 MSTORE PUSH1 0x4 ADD PUSH2 0x603 SWAP1 PUSH2 0x2A97 JUMP JUMPDEST PUSH1 0x0 PUSH2 0x11A6 DUP3 DUP5 PUSH2 0x2CEE JUMP JUMPDEST SWAP1 POP PUSH1 0x0 DUP3 PUSH2 0x11B6 DUP4 PUSH1 0x64 PUSH2 0x2CCF JUMP JUMPDEST PUSH2 0x11C0 SWAP2 SWAP1 PUSH2 0x2CAF JUMP JUMPDEST PUSH1 0x40 DUP1 MLOAD PUSH1 0x80 DUP2 ADD DUP3 MSTORE DUP7 DUP2 MSTORE PUSH1 0x20 DUP2 ADD DUP4 SWAP1 MSTORE TIMESTAMP DUP2 DUP4 ADD DUP2 SWAP1 MSTORE PUSH1 0x1 PUSH1 0x60 SWAP1 SWAP3 ADD DUP3 SWAP1 MSTORE PUSH1 0xB DUP9 SWAP1 SSTORE PUSH1 0xC DUP5 SWAP1 SSTORE PUSH1 0xD SSTORE PUSH1 0xE DUP1 SLOAD PUSH1 0xFF NOT SWAP1 DUP2 AND SWAP1 SWAP3 OR SWAP1 SSTORE PUSH1 0xF DUP1 SLOAD SWAP1 SWAP2 AND PUSH1 0x4 OR SWAP1 SSTORE MLOAD SWAP1 SWAP2 POP PUSH32 0xE5E9CFEEDE9FF1FC77B415BF8346E29706D16794B3BDECA347AC54A7FD3E0C3C SWAP1 PUSH2 0x1240 SWAP1 DUP7 SWAP1 DUP5 SWAP1 PUSH2 0x2C5E JUMP JUMPDEST PUSH1 0x40 MLOAD DUP1 SWAP2 SUB SWAP1 LOG1 POP POP POP PUSH2 0xF03 PUSH2 0x2226 JUMP JUMPDEST PUSH2 0x125B PUSH2 0x21FC JUMP JUMPDEST PUSH1 0xE SLOAD PUSH1 0xFF AND PUSH2 0x127D JUMPI PUSH1 0x40 MLOAD PUSH3 0x461BCD PUSH1 0xE5 SHL DUP2 MSTORE PUSH1 0x4 ADD PUSH2 0x603 SWAP1 PUSH2 0x289F JUMP JUMPDEST CALLER PUSH1 0x0 SWAP1 DUP2 MSTORE PUSH1 0x12 PUSH1 0x20 MSTORE PUSH1 0x40 SWAP1 KECCAK256 SLOAD PUSH2 0x12A9 JUMPI PUSH1 0x40 MLOAD PUSH3 0x461BCD PUSH1 0xE5 SHL DUP2 MSTORE PUSH1 0x4 ADD PUSH2 0x603 SWAP1 PUSH2 0x2A3A JUMP JUMPDEST CALLER PUSH1 0x0 SWAP1 DUP2 MSTORE PUSH1 0x14 PUSH1 0x20 MSTORE PUSH1 0x40 SWAP1 KECCAK256 SLOAD PUSH1 0xFF AND ISZERO PUSH2 0x12D9 JUMPI PUSH1 0x40 MLOAD PUSH3 0x461BCD PUSH1 0xE5 SHL DUP2 MSTORE PUSH1 0x4 ADD PUSH2 0x603 SWAP1 PUSH2 0x29C0 JUMP JUMPDEST CALLER PUSH1 0x0 SWAP1 DUP2 MSTORE PUSH1 0x12 PUSH1 0x20 MSTORE PUSH1 0x40 DUP2 KECCAK256 SLOAD PUSH1 0xB SLOAD PUSH1 0xF SLOAD SWAP2 SWAP3 SWAP1 SWAP2 PUSH2 0x100 SWAP1 DIV PUSH1 0x1 PUSH1 0x1 PUSH1 0x80 SHL SUB AND SWAP1 DUP2 PUSH2 0x130D DUP5 DUP7 PUSH2 0x2CCF JUMP JUMPDEST PUSH2 0x1317 SWAP2 SWAP1 PUSH2 0x2CAF JUMP JUMPDEST CALLER PUSH1 0x0 DUP2 DUP2 MSTORE PUSH1 0x12 PUSH1 0x20 SWAP1 DUP2 MSTORE PUSH1 0x40 DUP1 DUP4 KECCAK256 DUP4 SWAP1 SSTORE PUSH1 0x14 SWAP1 SWAP2 MSTORE SWAP1 DUP2 SWAP1 KECCAK256 DUP1 SLOAD PUSH1 0xFF NOT AND PUSH1 0x1 OR SWAP1 SSTORE MLOAD PUSH4 0xA9059CBB PUSH1 0xE0 SHL DUP2 MSTORE SWAP2 SWAP3 POP PUSH32 0x0 PUSH1 0x1 PUSH1 0x1 PUSH1 0xA0 SHL SUB AND SWAP2 PUSH4 0xA9059CBB SWAP2 PUSH2 0x138D SWAP2 DUP6 SWAP1 PUSH1 0x4 ADD PUSH2 0x26D4 JUMP JUMPDEST PUSH1 0x20 PUSH1 0x40 MLOAD DUP1 DUP4 SUB DUP2 PUSH1 0x0 DUP8 DUP1 EXTCODESIZE ISZERO DUP1 ISZERO PUSH2 0x13A7 JUMPI PUSH1 0x0 DUP1 REVERT JUMPDEST POP GAS CALL ISZERO DUP1 ISZERO PUSH2 0x13BB JUMPI RETURNDATASIZE PUSH1 0x0 DUP1 RETURNDATACOPY RETURNDATASIZE PUSH1 0x0 REVERT JUMPDEST POP POP POP POP PUSH1 0x40 MLOAD RETURNDATASIZE PUSH1 0x1F NOT PUSH1 0x1F DUP3 ADD AND DUP3 ADD DUP1 PUSH1 0x40 MSTORE POP DUP2 ADD SWAP1 PUSH2 0x13DF SWAP2 SWAP1 PUSH2 0x2479 JUMP JUMPDEST PUSH2 0x13FB JUMPI PUSH1 0x40 MLOAD PUSH3 0x461BCD PUSH1 0xE5 SHL DUP2 MSTORE PUSH1 0x4 ADD PUSH2 0x603 SWAP1 PUSH2 0x2A97 JUMP JUMPDEST CALLER PUSH1 0x1 PUSH1 0x1 PUSH1 0xA0 SHL SUB AND PUSH32 0xF9FA24C1D9FEBDAF99508F4923A7B5ADD9BD70EAB45C8FC614509DF79894938 DUP3 PUSH1 0x40 MLOAD PUSH2 0x1434 SWAP2 SWAP1 PUSH2 0x2C55 JUMP JUMPDEST PUSH1 0x40 MLOAD DUP1 SWAP2 SUB SWAP1 LOG2 POP POP POP POP PUSH2 0xB05 PUSH2 0x2226 JUMP JUMPDEST PUSH1 0x40 MLOAD PUSH4 0x1204DBDD PUSH1 0xE3 SHL DUP2 MSTORE PUSH1 0x1 PUSH1 0x1 PUSH1 0xA0 SHL SUB PUSH32 0x0 AND SWAP1 PUSH4 0x9026DEE8 SWAP1 PUSH2 0x1494 SWAP1 CALLER SWAP1 PUSH1 0x4 ADD PUSH2 0x269C JUMP JUMPDEST PUSH1 0x20 PUSH1 0x40 MLOAD DUP1 DUP4 SUB DUP2 DUP7 DUP1 EXTCODESIZE ISZERO DUP1 ISZERO PUSH2 0x14AC JUMPI PUSH1 0x0 DUP1 REVERT JUMPDEST POP GAS STATICCALL ISZERO DUP1 ISZERO PUSH2 0x14C0 JUMPI RETURNDATASIZE PUSH1 0x0 DUP1 RETURNDATACOPY RETURNDATASIZE PUSH1 0x0 REVERT JUMPDEST POP POP POP POP PUSH1 0x40 MLOAD RETURNDATASIZE PUSH1 0x1F NOT PUSH1 0x1F DUP3 ADD AND DUP3 ADD DUP1 PUSH1 0x40 MSTORE POP DUP2 ADD SWAP1 PUSH2 0x14E4 SWAP2 SWAP1 PUSH2 0x2479 JUMP JUMPDEST PUSH1 0x40 MLOAD DUP1 PUSH1 0x40 ADD PUSH1 0x40 MSTORE DUP1 PUSH1 0x9 DUP2 MSTORE PUSH1 0x20 ADD PUSH9 0x2737BA1030B236B4B7 PUSH1 0xB9 SHL DUP2 MSTORE POP SWAP1 PUSH2 0x1524 JUMPI PUSH1 0x40 MLOAD PUSH3 0x461BCD PUSH1 0xE5 SHL DUP2 MSTORE PUSH1 0x4 ADD PUSH2 0x603 SWAP2 SWAP1 PUSH2 0x277C JUMP JUMPDEST POP PUSH1 0x7 SLOAD TIMESTAMP GT PUSH2 0x1533 JUMPI PUSH1 0x0 DUP1 REVERT JUMPDEST PUSH1 0x3 PUSH1 0xF SLOAD PUSH1 0xFF AND PUSH1 0x5 DUP2 GT ISZERO PUSH2 0x155A JUMPI PUSH4 0x4E487B71 PUSH1 0xE0 SHL PUSH1 0x0 MSTORE PUSH1 0x21 PUSH1 0x4 MSTORE PUSH1 0x24 PUSH1 0x0 REVERT JUMPDEST EQ PUSH1 0x40 MLOAD DUP1 PUSH1 0x40 ADD PUSH1 0x40 MSTORE DUP1 PUSH1 0x16 DUP2 MSTORE PUSH1 0x20 ADD PUSH22 0x496E76616C69642070726F6A65637420737461747573 PUSH1 0x50 SHL DUP2 MSTORE POP SWAP1 PUSH2 0x15A8 JUMPI PUSH1 0x40 MLOAD PUSH3 0x461BCD PUSH1 0xE5 SHL DUP2 MSTORE PUSH1 0x4 ADD PUSH2 0x603 SWAP2 SWAP1 PUSH2 0x277C JUMP JUMPDEST POP PUSH1 0xF DUP1 SLOAD PUSH1 0xFF NOT AND PUSH1 0x5 OR SWAP1 SSTORE JUMP JUMPDEST PUSH1 0x0 PUSH2 0x15C2 PUSH2 0x222D JUMP JUMPDEST SWAP1 POP SWAP1 JUMP JUMPDEST PUSH2 0x15CF PUSH2 0x232C JUMP JUMPDEST POP PUSH1 0x40 DUP1 MLOAD PUSH1 0x80 DUP2 ADD DUP3 MSTORE PUSH1 0xB SLOAD DUP2 MSTORE PUSH1 0xC SLOAD PUSH1 0x20 DUP3 ADD MSTORE PUSH1 0xD SLOAD SWAP2 DUP2 ADD SWAP2 SWAP1 SWAP2 MSTORE PUSH1 0xE SLOAD PUSH1 0xFF AND ISZERO ISZERO PUSH1 0x60 DUP3 ADD MSTORE SWAP1 JUMP JUMPDEST PUSH1 0x1 DUP2 JUMP JUMPDEST PUSH1 0x15 SLOAD PUSH1 0x60 SWAP1 PUSH1 0x0 SWAP1 PUSH8 0xFFFFFFFFFFFFFFFF DUP2 GT ISZERO PUSH2 0x1635 JUMPI PUSH4 0x4E487B71 PUSH1 0xE0 SHL PUSH1 0x0 MSTORE PUSH1 0x41 PUSH1 0x4 MSTORE PUSH1 0x24 PUSH1 0x0 REVERT JUMPDEST PUSH1 0x40 MLOAD SWAP1 DUP1 DUP3 MSTORE DUP1 PUSH1 0x20 MUL PUSH1 0x20 ADD DUP3 ADD PUSH1 0x40 MSTORE DUP1 ISZERO PUSH2 0x165E JUMPI DUP2 PUSH1 0x20 ADD PUSH1 0x20 DUP3 MUL DUP1 CALLDATASIZE DUP4 CALLDATACOPY ADD SWAP1 POP JUMPDEST POP SWAP1 POP PUSH1 0x0 DUP1 JUMPDEST PUSH1 0x15 SLOAD DUP2 LT ISZERO PUSH2 0x1758 JUMPI PUSH1 0x0 PUSH1 0x12 PUSH1 0x0 PUSH1 0x15 DUP5 DUP2 SLOAD DUP2 LT PUSH2 0x1696 JUMPI PUSH4 0x4E487B71 PUSH1 0xE0 SHL PUSH1 0x0 MSTORE PUSH1 0x32 PUSH1 0x4 MSTORE PUSH1 0x24 PUSH1 0x0 REVERT JUMPDEST PUSH1 0x0 SWAP2 DUP3 MSTORE PUSH1 0x20 DUP1 DUP4 KECCAK256 SWAP1 SWAP2 ADD SLOAD PUSH1 0x1 PUSH1 0x1 PUSH1 0xA0 SHL SUB AND DUP4 MSTORE DUP3 ADD SWAP3 SWAP1 SWAP3 MSTORE PUSH1 0x40 ADD SWAP1 KECCAK256 SLOAD GT ISZERO PUSH2 0x1746 JUMPI PUSH1 0x15 DUP2 DUP2 SLOAD DUP2 LT PUSH2 0x16E2 JUMPI PUSH4 0x4E487B71 PUSH1 0xE0 SHL PUSH1 0x0 MSTORE PUSH1 0x32 PUSH1 0x4 MSTORE PUSH1 0x24 PUSH1 0x0 REVERT JUMPDEST SWAP1 PUSH1 0x0 MSTORE PUSH1 0x20 PUSH1 0x0 KECCAK256 ADD PUSH1 0x0 SWAP1 SLOAD SWAP1 PUSH2 0x100 EXP SWAP1 DIV PUSH1 0x1 PUSH1 0x1 PUSH1 0xA0 SHL SUB AND DUP4 DUP4 DUP2 MLOAD DUP2 LT PUSH2 0x1720 JUMPI PUSH4 0x4E487B71 PUSH1 0xE0 SHL PUSH1 0x0 MSTORE PUSH1 0x32 PUSH1 0x4 MSTORE PUSH1 0x24 PUSH1 0x0 REVERT JUMPDEST PUSH1 0x1 PUSH1 0x1 PUSH1 0xA0 SHL SUB SWAP1 SWAP3 AND PUSH1 0x20 SWAP3 DUP4 MUL SWAP2 SWAP1 SWAP2 ADD SWAP1 SWAP2 ADD MSTORE DUP2 PUSH2 0x1742 DUP2 PUSH2 0x2D40 JUMP JUMPDEST SWAP3 POP POP JUMPDEST DUP1 PUSH2 0x1750 DUP2 PUSH2 0x2D40 JUMP JUMPDEST SWAP2 POP POP PUSH2 0x1665 JUMP JUMPDEST POP DUP2 MSTORE SWAP1 POP SWAP1 JUMP JUMPDEST PUSH2 0x1768 PUSH2 0x2356 JUMP JUMPDEST PUSH1 0x40 DUP1 MLOAD PUSH2 0x140 DUP2 ADD SWAP1 SWAP2 MSTORE PUSH1 0x1 DUP1 SLOAD PUSH1 0x1 PUSH1 0x1 PUSH1 0xA0 SHL SUB AND DUP3 MSTORE PUSH1 0x2 DUP1 SLOAD PUSH1 0x20 DUP5 ADD SWAP2 SWAP1 PUSH2 0x1796 SWAP1 PUSH2 0x2D05 JUMP JUMPDEST DUP1 PUSH1 0x1F ADD PUSH1 0x20 DUP1 SWAP2 DIV MUL PUSH1 0x20 ADD PUSH1 0x40 MLOAD SWAP1 DUP2 ADD PUSH1 0x40 MSTORE DUP1 SWAP3 SWAP2 SWAP1 DUP2 DUP2 MSTORE PUSH1 0x20 ADD DUP3 DUP1 SLOAD PUSH2 0x17C2 SWAP1 PUSH2 0x2D05 JUMP JUMPDEST DUP1 ISZERO PUSH2 0x180F JUMPI DUP1 PUSH1 0x1F LT PUSH2 0x17E4 JUMPI PUSH2 0x100 DUP1 DUP4 SLOAD DIV MUL DUP4 MSTORE SWAP2 PUSH1 0x20 ADD SWAP2 PUSH2 0x180F JUMP JUMPDEST DUP3 ADD SWAP2 SWAP1 PUSH1 0x0 MSTORE PUSH1 0x20 PUSH1 0x0 KECCAK256 SWAP1 JUMPDEST DUP2 SLOAD DUP2 MSTORE SWAP1 PUSH1 0x1 ADD SWAP1 PUSH1 0x20 ADD DUP1 DUP4 GT PUSH2 0x17F2 JUMPI DUP3 SWAP1 SUB PUSH1 0x1F AND DUP3 ADD SWAP2 JUMPDEST POP POP POP POP POP DUP2 MSTORE PUSH1 0x20 ADD PUSH1 0x2 DUP3 ADD DUP1 SLOAD PUSH2 0x1828 SWAP1 PUSH2 0x2D05 JUMP JUMPDEST DUP1 PUSH1 0x1F ADD PUSH1 0x20 DUP1 SWAP2 DIV MUL PUSH1 0x20 ADD PUSH1 0x40 MLOAD SWAP1 DUP2 ADD PUSH1 0x40 MSTORE DUP1 SWAP3 SWAP2 SWAP1 DUP2 DUP2 MSTORE PUSH1 0x20 ADD DUP3 DUP1 SLOAD PUSH2 0x1854 SWAP1 PUSH2 0x2D05 JUMP JUMPDEST DUP1 ISZERO PUSH2 0x18A1 JUMPI DUP1 PUSH1 0x1F LT PUSH2 0x1876 JUMPI PUSH2 0x100 DUP1 DUP4 SLOAD DIV MUL DUP4 MSTORE SWAP2 PUSH1 0x20 ADD SWAP2 PUSH2 0x18A1 JUMP JUMPDEST DUP3 ADD SWAP2 SWAP1 PUSH1 0x0 MSTORE PUSH1 0x20 PUSH1 0x0 KECCAK256 SWAP1 JUMPDEST DUP2 SLOAD DUP2 MSTORE SWAP1 PUSH1 0x1 ADD SWAP1 PUSH1 0x20 ADD DUP1 DUP4 GT PUSH2 0x1884 JUMPI DUP3 SWAP1 SUB PUSH1 0x1F AND DUP3 ADD SWAP2 JUMPDEST POP POP POP POP POP DUP2 MSTORE PUSH1 0x20 ADD PUSH1 0x3 DUP3 ADD DUP1 SLOAD DUP1 PUSH1 0x20 MUL PUSH1 0x20 ADD PUSH1 0x40 MLOAD SWAP1 DUP2 ADD PUSH1 0x40 MSTORE DUP1 SWAP3 SWAP2 SWAP1 DUP2 DUP2 MSTORE PUSH1 0x20 ADD PUSH1 0x0 SWAP1 JUMPDEST DUP3 DUP3 LT ISZERO PUSH2 0x1AB7 JUMPI DUP4 DUP3 SWAP1 PUSH1 0x0 MSTORE PUSH1 0x20 PUSH1 0x0 KECCAK256 SWAP1 PUSH1 0x3 MUL ADD PUSH1 0x40 MLOAD DUP1 PUSH1 0x60 ADD PUSH1 0x40 MSTORE SWAP1 DUP2 PUSH1 0x0 DUP3 ADD DUP1 SLOAD PUSH2 0x1902 SWAP1 PUSH2 0x2D05 JUMP JUMPDEST DUP1 PUSH1 0x1F ADD PUSH1 0x20 DUP1 SWAP2 DIV MUL PUSH1 0x20 ADD PUSH1 0x40 MLOAD SWAP1 DUP2 ADD PUSH1 0x40 MSTORE DUP1 SWAP3 SWAP2 SWAP1 DUP2 DUP2 MSTORE PUSH1 0x20 ADD DUP3 DUP1 SLOAD PUSH2 0x192E SWAP1 PUSH2 0x2D05 JUMP JUMPDEST DUP1 ISZERO PUSH2 0x197B JUMPI DUP1 PUSH1 0x1F LT PUSH2 0x1950 JUMPI PUSH2 0x100 DUP1 DUP4 SLOAD DIV MUL DUP4 MSTORE SWAP2 PUSH1 0x20 ADD SWAP2 PUSH2 0x197B JUMP JUMPDEST DUP3 ADD SWAP2 SWAP1 PUSH1 0x0 MSTORE PUSH1 0x20 PUSH1 0x0 KECCAK256 SWAP1 JUMPDEST DUP2 SLOAD DUP2 MSTORE SWAP1 PUSH1 0x1 ADD SWAP1 PUSH1 0x20 ADD DUP1 DUP4 GT PUSH2 0x195E JUMPI DUP3 SWAP1 SUB PUSH1 0x1F AND DUP3 ADD SWAP2 JUMPDEST POP POP POP POP POP DUP2 MSTORE PUSH1 0x20 ADD PUSH1 0x1 DUP3 ADD DUP1 SLOAD PUSH2 0x1994 SWAP1 PUSH2 0x2D05 JUMP JUMPDEST DUP1 PUSH1 0x1F ADD PUSH1 0x20 DUP1 SWAP2 DIV MUL PUSH1 0x20 ADD PUSH1 0x40 MLOAD SWAP1 DUP2 ADD PUSH1 0x40 MSTORE DUP1 SWAP3 SWAP2 SWAP1 DUP2 DUP2 MSTORE PUSH1 0x20 ADD DUP3 DUP1 SLOAD PUSH2 0x19C0 SWAP1 PUSH2 0x2D05 JUMP JUMPDEST DUP1 ISZERO PUSH2 0x1A0D JUMPI DUP1 PUSH1 0x1F LT PUSH2 0x19E2 JUMPI PUSH2 0x100 DUP1 DUP4 SLOAD DIV MUL DUP4 MSTORE SWAP2 PUSH1 0x20 ADD SWAP2 PUSH2 0x1A0D JUMP JUMPDEST DUP3 ADD SWAP2 SWAP1 PUSH1 0x0 MSTORE PUSH1 0x20 PUSH1 0x0 KECCAK256 SWAP1 JUMPDEST DUP2 SLOAD DUP2 MSTORE SWAP1 PUSH1 0x1 ADD SWAP1 PUSH1 0x20 ADD DUP1 DUP4 GT PUSH2 0x19F0 JUMPI DUP3 SWAP1 SUB PUSH1 0x1F AND DUP3 ADD SWAP2 JUMPDEST POP POP POP POP POP DUP2 MSTORE PUSH1 0x20 ADD PUSH1 0x2 DUP3 ADD DUP1 SLOAD PUSH2 0x1A26 SWAP1 PUSH2 0x2D05 JUMP JUMPDEST DUP1 PUSH1 0x1F ADD PUSH1 0x20 DUP1 SWAP2 DIV MUL PUSH1 0x20 ADD PUSH1 0x40 MLOAD SWAP1 DUP2 ADD PUSH1 0x40 MSTORE DUP1 SWAP3 SWAP2 SWAP1 DUP2 DUP2 MSTORE PUSH1 0x20 ADD DUP3 DUP1 SLOAD PUSH2 0x1A52 SWAP1 PUSH2 0x2D05 JUMP JUMPDEST DUP1 ISZERO PUSH2 0x1A9F JUMPI DUP1 PUSH1 0x1F LT PUSH2 0x1A74 JUMPI PUSH2 0x100 DUP1 DUP4 SLOAD DIV MUL DUP4 MSTORE SWAP2 PUSH1 0x20 ADD SWAP2 PUSH2 0x1A9F JUMP JUMPDEST DUP3 ADD SWAP2 SWAP1 PUSH1 0x0 MSTORE PUSH1 0x20 PUSH1 0x0 KECCAK256 SWAP1 JUMPDEST DUP2 SLOAD DUP2 MSTORE SWAP1 PUSH1 0x1 ADD SWAP1 PUSH1 0x20 ADD DUP1 DUP4 GT PUSH2 0x1A82 JUMPI DUP3 SWAP1 SUB PUSH1 0x1F AND DUP3 ADD SWAP2 JUMPDEST POP POP POP POP POP DUP2 MSTORE POP POP DUP2 MSTORE PUSH1 0x20 ADD SWAP1 PUSH1 0x1 ADD SWAP1 PUSH2 0x18CF JUMP JUMPDEST POP POP POP POP DUP2 MSTORE PUSH1 0x20 ADD PUSH1 0x4 DUP3 ADD SLOAD DUP2 MSTORE PUSH1 0x20 ADD PUSH1 0x5 DUP3 ADD SLOAD DUP2 MSTORE PUSH1 0x20 ADD PUSH1 0x6 DUP3 ADD SLOAD DUP2 MSTORE PUSH1 0x20 ADD PUSH1 0x7 DUP3 ADD SLOAD DUP2 MSTORE PUSH1 0x20 ADD PUSH1 0x8 DUP3 ADD SLOAD DUP2 MSTORE PUSH1 0x20 ADD PUSH1 0x9 DUP3 ADD SLOAD DUP2 MSTORE POP POP SWAP1 POP SWAP1 JUMP JUMPDEST PUSH1 0x13 PUSH1 0x20 MSTORE PUSH1 0x0 SWAP1 DUP2 MSTORE PUSH1 0x40 SWAP1 KECCAK256 SLOAD PUSH1 0xFF AND DUP2 JUMP JUMPDEST PUSH1 0x1 PUSH1 0x1 PUSH1 0xA0 SHL SUB AND PUSH1 0x0 SWAP1 DUP2 MSTORE PUSH1 0x14 PUSH1 0x20 MSTORE PUSH1 0x40 SWAP1 KECCAK256 SLOAD PUSH1 0xFF AND SWAP1 JUMP JUMPDEST PUSH1 0xF PUSH1 0x0 DUP2 SLOAD PUSH1 0xFF AND PUSH1 0x5 DUP2 GT ISZERO PUSH2 0x1B5B JUMPI PUSH4 0x4E487B71 PUSH1 0xE0 SHL PUSH1 0x0 MSTORE PUSH1 0x21 PUSH1 0x4 MSTORE PUSH1 0x24 PUSH1 0x0 REVERT JUMPDEST EQ PUSH1 0x40 MLOAD DUP1 PUSH1 0x40 ADD PUSH1 0x40 MSTORE DUP1 PUSH1 0x16 DUP2 MSTORE PUSH1 0x20 ADD PUSH22 0x496E76616C69642070726F6A65637420737461747573 PUSH1 0x50 SHL DUP2 MSTORE POP SWAP1 PUSH2 0x1BA9 JUMPI PUSH1 0x40 MLOAD PUSH3 0x461BCD PUSH1 0xE5 SHL DUP2 MSTORE PUSH1 0x4 ADD PUSH2 0x603 SWAP2 SWAP1 PUSH2 0x277C JUMP JUMPDEST POP DUP1 SLOAD PUSH1 0xFF NOT AND PUSH1 0x1 OR DUP2 SSTORE DUP2 MLOAD PUSH2 0x1BCA SWAP1 PUSH1 0x2 DUP4 ADD SWAP1 PUSH1 0x20 DUP6 ADD SWAP1 PUSH2 0x23B2 JUMP JUMPDEST POP CALLER PUSH1 0x1 PUSH1 0x1 PUSH1 0xA0 SHL SUB AND PUSH32 0x4E44DF7F496EC6F3F7EE9440788A0EDD9B6CBD27982EB4C7AD22BD5B35C463EB DUP4 PUSH1 0x40 MLOAD PUSH2 0x1C04 SWAP2 SWAP1 PUSH2 0x277C JUMP JUMPDEST PUSH1 0x40 MLOAD DUP1 SWAP2 SUB SWAP1 LOG2 POP POP JUMP JUMPDEST PUSH1 0x12 PUSH1 0x20 MSTORE PUSH1 0x0 SWAP1 DUP2 MSTORE PUSH1 0x40 SWAP1 KECCAK256 SLOAD DUP2 JUMP JUMPDEST PUSH1 0xF SLOAD PUSH2 0x100 SWAP1 DIV PUSH1 0x1 PUSH1 0x1 PUSH1 0x80 SHL SUB AND SWAP1 JUMP JUMPDEST PUSH1 0x14 PUSH1 0x20 MSTORE PUSH1 0x0 SWAP1 DUP2 MSTORE PUSH1 0x40 SWAP1 KECCAK256 SLOAD PUSH1 0xFF AND DUP2 JUMP JUMPDEST PUSH1 0xE SLOAD PUSH1 0xFF AND SWAP1 JUMP JUMPDEST PUSH1 0x60 PUSH1 0x15 DUP1 SLOAD DUP1 PUSH1 0x20 MUL PUSH1 0x20 ADD PUSH1 0x40 MLOAD SWAP1 DUP2 ADD PUSH1 0x40 MSTORE DUP1 SWAP3 SWAP2 SWAP1 DUP2 DUP2 MSTORE PUSH1 0x20 ADD DUP3 DUP1 SLOAD DUP1 ISZERO PUSH2 0xB92 JUMPI PUSH1 0x20 MUL DUP3 ADD SWAP2 SWAP1 PUSH1 0x0 MSTORE PUSH1 0x20 PUSH1 0x0 KECCAK256 SWAP1 JUMPDEST DUP2 SLOAD PUSH1 0x1 PUSH1 0x1 PUSH1 0xA0 SHL SUB AND DUP2 MSTORE PUSH1 0x1 SWAP1 SWAP2 ADD SWAP1 PUSH1 0x20 ADD DUP1 DUP4 GT PUSH2 0x1C8E JUMPI POP POP POP POP POP SWAP1 POP SWAP1 JUMP JUMPDEST PUSH1 0x60 DUP1 PUSH1 0x0 DUP1 JUMPDEST PUSH1 0x15 SLOAD DUP2 LT ISZERO PUSH2 0x1D38 JUMPI PUSH1 0x0 PUSH1 0x12 PUSH1 0x0 PUSH1 0x15 DUP5 DUP2 SLOAD DUP2 LT PUSH2 0x1CED JUMPI PUSH4 0x4E487B71 PUSH1 0xE0 SHL PUSH1 0x0 MSTORE PUSH1 0x32 PUSH1 0x4 MSTORE PUSH1 0x24 PUSH1 0x0 REVERT JUMPDEST PUSH1 0x0 SWAP2 DUP3 MSTORE PUSH1 0x20 DUP1 DUP4 KECCAK256 SWAP1 SWAP2 ADD SLOAD PUSH1 0x1 PUSH1 0x1 PUSH1 0xA0 SHL SUB AND DUP4 MSTORE DUP3 ADD SWAP3 SWAP1 SWAP3 MSTORE PUSH1 0x40 ADD SWAP1 KECCAK256 SLOAD GT ISZERO PUSH2 0x1D26 JUMPI DUP2 PUSH2 0x1D22 DUP2 PUSH2 0x2D40 JUMP JUMPDEST SWAP3 POP POP JUMPDEST DUP1 PUSH2 0x1D30 DUP2 PUSH2 0x2D40 JUMP JUMPDEST SWAP2 POP POP PUSH2 0x1CBC JUMP JUMPDEST POP PUSH1 0x0 DUP2 PUSH8 0xFFFFFFFFFFFFFFFF DUP2 GT ISZERO PUSH2 0x1D62 JUMPI PUSH4 0x4E487B71 PUSH1 0xE0 SHL PUSH1 0x0 MSTORE PUSH1 0x41 PUSH1 0x4 MSTORE PUSH1 0x24 PUSH1 0x0 REVERT JUMPDEST PUSH1 0x40 MLOAD SWAP1 DUP1 DUP3 MSTORE DUP1 PUSH1 0x20 MUL PUSH1 0x20 ADD DUP3 ADD PUSH1 0x40 MSTORE DUP1 ISZERO PUSH2 0x1D8B JUMPI DUP2 PUSH1 0x20 ADD PUSH1 0x20 DUP3 MUL DUP1 CALLDATASIZE DUP4 CALLDATACOPY ADD SWAP1 POP JUMPDEST POP SWAP1 POP PUSH1 0x0 DUP3 PUSH8 0xFFFFFFFFFFFFFFFF DUP2 GT ISZERO PUSH2 0x1DB7 JUMPI PUSH4 0x4E487B71 PUSH1 0xE0 SHL PUSH1 0x0 MSTORE PUSH1 0x41 PUSH1 0x4 MSTORE PUSH1 0x24 PUSH1 0x0 REVERT JUMPDEST PUSH1 0x40 MLOAD SWAP1 DUP1 DUP3 MSTORE DUP1 PUSH1 0x20 MUL PUSH1 0x20 ADD DUP3 ADD PUSH1 0x40 MSTORE DUP1 ISZERO PUSH2 0x1DE0 JUMPI DUP2 PUSH1 0x20 ADD PUSH1 0x20 DUP3 MUL DUP1 CALLDATASIZE DUP4 CALLDATACOPY ADD SWAP1 POP JUMPDEST POP SWAP1 POP PUSH1 0x0 DUP1 JUMPDEST PUSH1 0x15 SLOAD DUP2 LT ISZERO PUSH2 0x1F1B JUMPI PUSH1 0x0 PUSH1 0x12 PUSH1 0x0 PUSH1 0x15 DUP5 DUP2 SLOAD DUP2 LT PUSH2 0x1E18 JUMPI PUSH4 0x4E487B71 PUSH1 0xE0 SHL PUSH1 0x0 MSTORE PUSH1 0x32 PUSH1 0x4 MSTORE PUSH1 0x24 PUSH1 0x0 REVERT JUMPDEST PUSH1 0x0 SWAP2 DUP3 MSTORE PUSH1 0x20 DUP1 DUP4 KECCAK256 SWAP1 SWAP2 ADD SLOAD PUSH1 0x1 PUSH1 0x1 PUSH1 0xA0 SHL SUB AND DUP4 MSTORE DUP3 ADD SWAP3 SWAP1 SWAP3 MSTORE PUSH1 0x40 ADD SWAP1 KECCAK256 SLOAD GT ISZERO PUSH2 0x1F09 JUMPI ADDRESS DUP5 DUP4 DUP2 MLOAD DUP2 LT PUSH2 0x1E64 JUMPI PUSH4 0x4E487B71 PUSH1 0xE0 SHL PUSH1 0x0 MSTORE PUSH1 0x32 PUSH1 0x4 MSTORE PUSH1 0x24 PUSH1 0x0 REVERT JUMPDEST PUSH1 0x20 MUL PUSH1 0x20 ADD ADD SWAP1 PUSH1 0x1 PUSH1 0x1 PUSH1 0xA0 SHL SUB AND SWAP1 DUP2 PUSH1 0x1 PUSH1 0x1 PUSH1 0xA0 SHL SUB AND DUP2 MSTORE POP POP PUSH1 0x12 PUSH1 0x0 PUSH1 0x15 DUP4 DUP2 SLOAD DUP2 LT PUSH2 0x1EA9 JUMPI PUSH4 0x4E487B71 PUSH1 0xE0 SHL PUSH1 0x0 MSTORE PUSH1 0x32 PUSH1 0x4 MSTORE PUSH1 0x24 PUSH1 0x0 REVERT JUMPDEST PUSH1 0x0 SWAP2 DUP3 MSTORE PUSH1 0x20 DUP1 DUP4 KECCAK256 SWAP1 SWAP2 ADD SLOAD PUSH1 0x1 PUSH1 0x1 PUSH1 0xA0 SHL SUB AND DUP4 MSTORE DUP3 ADD SWAP3 SWAP1 SWAP3 MSTORE PUSH1 0x40 ADD SWAP1 KECCAK256 SLOAD DUP4 MLOAD DUP5 SWAP1 DUP5 SWAP1 DUP2 LT PUSH2 0x1EF0 JUMPI PUSH4 0x4E487B71 PUSH1 0xE0 SHL PUSH1 0x0 MSTORE PUSH1 0x32 PUSH1 0x4 MSTORE PUSH1 0x24 PUSH1 0x0 REVERT JUMPDEST PUSH1 0x20 SWAP1 DUP2 MUL SWAP2 SWAP1 SWAP2 ADD ADD MSTORE DUP2 PUSH2 0x1F05 DUP2 PUSH2 0x2D40 JUMP JUMPDEST SWAP3 POP POP JUMPDEST DUP1 PUSH2 0x1F13 DUP2 PUSH2 0x2D40 JUMP JUMPDEST SWAP2 POP POP PUSH2 0x1DE7 JUMP JUMPDEST POP SWAP2 SWAP5 POP SWAP3 POP POP POP SWAP2 POP SWAP2 JUMP JUMPDEST PUSH1 0xF PUSH1 0x0 DUP2 SLOAD PUSH1 0xFF AND PUSH1 0x5 DUP2 GT ISZERO PUSH2 0x1F50 JUMPI PUSH4 0x4E487B71 PUSH1 0xE0 SHL PUSH1 0x0 MSTORE PUSH1 0x21 PUSH1 0x4 MSTORE PUSH1 0x24 PUSH1 0x0 REVERT JUMPDEST EQ PUSH1 0x40 MLOAD DUP1 PUSH1 0x40 ADD PUSH1 0x40 MSTORE DUP1 PUSH1 0x16 DUP2 MSTORE PUSH1 0x20 ADD PUSH22 0x496E76616C69642070726F6A65637420737461747573 PUSH1 0x50 SHL DUP2 MSTORE POP SWAP1 PUSH2 0x1F9E JUMPI PUSH1 0x40 MLOAD PUSH3 0x461BCD PUSH1 0xE5 SHL DUP2 MSTORE PUSH1 0x4 ADD PUSH2 0x603 SWAP2 SWAP1 PUSH2 0x277C JUMP JUMPDEST POP DUP1 SLOAD PUSH1 0xFF NOT AND PUSH1 0x2 OR DUP2 SSTORE PUSH1 0x40 MLOAD CALLER SWAP1 PUSH32 0x8B16DF08B6A45161A2ACCFAC7E351325FF3DF2AED213DD821E0BE370C010831C SWAP1 PUSH1 0x0 SWAP1 LOG2 POP JUMP JUMPDEST PUSH2 0x1FE0 PUSH2 0x21FC JUMP JUMPDEST PUSH1 0x5 PUSH2 0x1FEA PUSH2 0x222D JUMP JUMPDEST PUSH1 0x5 DUP2 GT ISZERO PUSH2 0x2009 JUMPI PUSH4 0x4E487B71 PUSH1 0xE0 SHL PUSH1 0x0 MSTORE PUSH1 0x21 PUSH1 0x4 MSTORE PUSH1 0x24 PUSH1 0x0 REVERT JUMPDEST EQ PUSH2 0x2026 JUMPI PUSH1 0x40 MLOAD PUSH3 0x461BCD PUSH1 0xE5 SHL DUP2 MSTORE PUSH1 0x4 ADD PUSH2 0x603 SWAP1 PUSH2 0x2868 JUMP JUMPDEST CALLER PUSH1 0x0 SWAP1 DUP2 MSTORE PUSH1 0x12 PUSH1 0x20 MSTORE PUSH1 0x40 SWAP1 KECCAK256 SLOAD PUSH2 0x2052 JUMPI PUSH1 0x40 MLOAD PUSH3 0x461BCD PUSH1 0xE5 SHL DUP2 MSTORE PUSH1 0x4 ADD PUSH2 0x603 SWAP1 PUSH2 0x2AC5 JUMP JUMPDEST CALLER PUSH1 0x0 SWAP1 DUP2 MSTORE PUSH1 0x13 PUSH1 0x20 MSTORE PUSH1 0x40 SWAP1 KECCAK256 SLOAD PUSH1 0xFF AND ISZERO PUSH2 0x2082 JUMPI PUSH1 0x40 MLOAD PUSH3 0x461BCD PUSH1 0xE5 SHL DUP2 MSTORE PUSH1 0x4 ADD PUSH2 0x603 SWAP1 PUSH2 0x2A67 JUMP JUMPDEST CALLER PUSH1 0x0 DUP2 DUP2 MSTORE PUSH1 0x12 PUSH1 0x20 SWAP1 DUP2 MSTORE PUSH1 0x40 DUP1 DUP4 KECCAK256 DUP1 SLOAD SWAP1 DUP5 SWAP1 SSTORE PUSH1 0x13 SWAP1 SWAP3 MSTORE SWAP2 DUP3 SWAP1 KECCAK256 DUP1 SLOAD PUSH1 0xFF NOT AND PUSH1 0x1 OR SWAP1 SSTORE SWAP1 MLOAD PUSH4 0xA9059CBB PUSH1 0xE0 SHL DUP2 MSTORE SWAP1 SWAP2 PUSH32 0x0 PUSH1 0x1 PUSH1 0x1 PUSH1 0xA0 SHL SUB AND SWAP2 PUSH4 0xA9059CBB SWAP2 PUSH2 0x20FB SWAP2 DUP6 SWAP1 PUSH1 0x4 ADD PUSH2 0x26D4 JUMP JUMPDEST PUSH1 0x20 PUSH1 0x40 MLOAD DUP1 DUP4 SUB DUP2 PUSH1 0x0 DUP8 DUP1 EXTCODESIZE ISZERO DUP1 ISZERO PUSH2 0x2115 JUMPI PUSH1 0x0 DUP1 REVERT JUMPDEST POP GAS CALL ISZERO DUP1 ISZERO PUSH2 0x2129 JUMPI RETURNDATASIZE PUSH1 0x0 DUP1 RETURNDATACOPY RETURNDATASIZE PUSH1 0x0 REVERT JUMPDEST POP POP POP POP PUSH1 0x40 MLOAD RETURNDATASIZE PUSH1 0x1F NOT PUSH1 0x1F DUP3 ADD AND DUP3 ADD DUP1 PUSH1 0x40 MSTORE POP DUP2 ADD SWAP1 PUSH2 0x214D SWAP2 SWAP1 PUSH2 0x2479 JUMP JUMPDEST PUSH2 0x2169 JUMPI PUSH1 0x40 MLOAD PUSH3 0x461BCD PUSH1 0xE5 SHL DUP2 MSTORE PUSH1 0x4 ADD PUSH2 0x603 SWAP1 PUSH2 0x2A97 JUMP JUMPDEST POP PUSH2 0xB05 PUSH2 0x2226 JUMP JUMPDEST PUSH1 0x1 PUSH1 0x1 PUSH1 0xA0 SHL SUB AND PUSH1 0x0 SWAP1 DUP2 MSTORE PUSH1 0x13 PUSH1 0x20 MSTORE PUSH1 0x40 SWAP1 KECCAK256 SLOAD PUSH1 0xFF AND SWAP1 JUMP JUMPDEST PUSH32 0x0 DUP2 JUMP JUMPDEST PUSH32 0x0 SWAP1 JUMP JUMPDEST PUSH32 0x0 DUP2 JUMP JUMPDEST PUSH1 0x2 PUSH1 0x0 SLOAD EQ ISZERO PUSH2 0x221F JUMPI PUSH1 0x40 MLOAD PUSH3 0x461BCD PUSH1 0xE5 SHL DUP2 MSTORE PUSH1 0x4 ADD PUSH2 0x603 SWAP1 PUSH2 0x2AFC JUMP JUMPDEST PUSH1 0x2 PUSH1 0x0 SSTORE JUMP JUMPDEST PUSH1 0x1 PUSH1 0x0 SSTORE JUMP JUMPDEST PUSH1 0x0 PUSH1 0xF DUP2 DUP2 SLOAD PUSH1 0xFF AND PUSH1 0x5 DUP2 GT ISZERO PUSH2 0x2256 JUMPI PUSH4 0x4E487B71 PUSH1 0xE0 SHL PUSH1 0x0 MSTORE PUSH1 0x21 PUSH1 0x4 MSTORE PUSH1 0x24 PUSH1 0x0 REVERT JUMPDEST EQ ISZERO PUSH2 0x2266 JUMPI PUSH1 0x0 SWAP2 POP POP PUSH2 0xB9A JUMP JUMPDEST PUSH1 0x1 DUP2 SLOAD PUSH1 0xFF AND PUSH1 0x5 DUP2 GT ISZERO PUSH2 0x228C JUMPI PUSH4 0x4E487B71 PUSH1 0xE0 SHL PUSH1 0x0 MSTORE PUSH1 0x21 PUSH1 0x4 MSTORE PUSH1 0x24 PUSH1 0x0 REVERT JUMPDEST EQ ISZERO PUSH2 0x229C JUMPI PUSH1 0x1 SWAP2 POP POP PUSH2 0xB9A JUMP JUMPDEST PUSH1 0x2 DUP2 SLOAD PUSH1 0xFF AND PUSH1 0x5 DUP2 GT ISZERO PUSH2 0x22C2 JUMPI PUSH4 0x4E487B71 PUSH1 0xE0 SHL PUSH1 0x0 MSTORE PUSH1 0x21 PUSH1 0x4 MSTORE PUSH1 0x24 PUSH1 0x0 REVERT JUMPDEST EQ ISZERO PUSH2 0x2323 JUMPI PUSH1 0x5 SLOAD TIMESTAMP LT ISZERO PUSH2 0x22DC JUMPI PUSH1 0x2 SWAP2 POP POP PUSH2 0xB9A JUMP JUMPDEST PUSH1 0x6 SLOAD TIMESTAMP GT PUSH2 0x22EF JUMPI PUSH1 0x3 SWAP2 POP POP PUSH2 0xB9A JUMP JUMPDEST PUSH1 0x1 DUP2 ADD SLOAD DUP2 SLOAD PUSH1 0x1 PUSH1 0x1 PUSH1 0x80 SHL SUB SWAP2 DUP3 AND PUSH2 0x100 SWAP1 SWAP2 DIV SWAP1 SWAP2 AND LT PUSH2 0x2319 JUMPI PUSH1 0x4 SWAP2 POP POP PUSH2 0xB9A JUMP JUMPDEST PUSH1 0x5 SWAP2 POP POP PUSH2 0xB9A JUMP JUMPDEST SLOAD PUSH1 0xFF AND SWAP1 POP SWAP1 JUMP JUMPDEST PUSH1 0x40 MLOAD DUP1 PUSH1 0x80 ADD PUSH1 0x40 MSTORE DUP1 PUSH1 0x0 DUP2 MSTORE PUSH1 0x20 ADD PUSH1 0x0 DUP2 MSTORE PUSH1 0x20 ADD PUSH1 0x0 DUP2 MSTORE PUSH1 0x20 ADD PUSH1 0x0 ISZERO ISZERO DUP2 MSTORE POP SWAP1 JUMP JUMPDEST PUSH1 0x40 MLOAD DUP1 PUSH2 0x140 ADD PUSH1 0x40 MSTORE DUP1 PUSH1 0x0 PUSH1 0x1 PUSH1 0x1 PUSH1 0xA0 SHL SUB AND DUP2 MSTORE PUSH1 0x20 ADD PUSH1 0x60 DUP2 MSTORE PUSH1 0x20 ADD PUSH1 0x60 DUP2 MSTORE PUSH1 0x20 ADD PUSH1 0x60 DUP2 MSTORE PUSH1 0x20 ADD PUSH1 0x0 DUP2 MSTORE PUSH1 0x20 ADD PUSH1 0x0 DUP2 MSTORE PUSH1 0x20 ADD PUSH1 0x0 DUP2 MSTORE PUSH1 0x20 ADD PUSH1 0x0 DUP2 MSTORE PUSH1 0x20 ADD PUSH1 0x0 DUP2 MSTORE PUSH1 0x20 ADD PUSH1 0x0 DUP2 MSTORE POP SWAP1 JUMP JUMPDEST DUP3 DUP1 SLOAD PUSH2 0x23BE SWAP1 PUSH2 0x2D05 JUMP JUMPDEST SWAP1 PUSH1 0x0 MSTORE PUSH1 0x20 PUSH1 0x0 KECCAK256 SWAP1 PUSH1 0x1F ADD PUSH1 0x20 SWAP1 DIV DUP2 ADD SWAP3 DUP3 PUSH2 0x23E0 JUMPI PUSH1 0x0 DUP6 SSTORE PUSH2 0x2426 JUMP JUMPDEST DUP3 PUSH1 0x1F LT PUSH2 0x23F9 JUMPI DUP1 MLOAD PUSH1 0xFF NOT AND DUP4 DUP1 ADD OR DUP6 SSTORE PUSH2 0x2426 JUMP JUMPDEST DUP3 DUP1 ADD PUSH1 0x1 ADD DUP6 SSTORE DUP3 ISZERO PUSH2 0x2426 JUMPI SWAP2 DUP3 ADD JUMPDEST DUP3 DUP2 GT ISZERO PUSH2 0x2426 JUMPI DUP3 MLOAD DUP3 SSTORE SWAP2 PUSH1 0x20 ADD SWAP2 SWAP1 PUSH1 0x1 ADD SWAP1 PUSH2 0x240B JUMP JUMPDEST POP PUSH2 0x2432 SWAP3 SWAP2 POP PUSH2 0x2436 JUMP JUMPDEST POP SWAP1 JUMP JUMPDEST JUMPDEST DUP1 DUP3 GT ISZERO PUSH2 0x2432 JUMPI PUSH1 0x0 DUP2 SSTORE PUSH1 0x1 ADD PUSH2 0x2437 JUMP JUMPDEST PUSH1 0x0 PUSH1 0x20 DUP3 DUP5 SUB SLT ISZERO PUSH2 0x245C JUMPI DUP1 DUP2 REVERT JUMPDEST DUP2 CALLDATALOAD PUSH1 0x1 PUSH1 0x1 PUSH1 0xA0 SHL SUB DUP2 AND DUP2 EQ PUSH2 0x2472 JUMPI DUP2 DUP3 REVERT JUMPDEST SWAP4 SWAP3 POP POP POP JUMP JUMPDEST PUSH1 0x0 PUSH1 0x20 DUP3 DUP5 SUB SLT ISZERO PUSH2 0x248A JUMPI DUP1 DUP2 REVERT JUMPDEST DUP2 MLOAD DUP1 ISZERO ISZERO DUP2 EQ PUSH2 0x2472 JUMPI DUP2 DUP3 REVERT JUMPDEST PUSH1 0x0 PUSH1 0x20 DUP1 DUP4 DUP6 SUB SLT ISZERO PUSH2 0x24AB JUMPI DUP2 DUP3 REVERT JUMPDEST DUP3 CALLDATALOAD PUSH8 0xFFFFFFFFFFFFFFFF DUP1 DUP3 GT ISZERO PUSH2 0x24C2 JUMPI DUP4 DUP5 REVERT JUMPDEST DUP2 DUP6 ADD SWAP2 POP DUP6 PUSH1 0x1F DUP4 ADD SLT PUSH2 0x24D5 JUMPI DUP4 DUP5 REVERT JUMPDEST DUP2 CALLDATALOAD DUP2 DUP2 GT ISZERO PUSH2 0x24E7 JUMPI PUSH2 0x24E7 PUSH2 0x2D71 JUMP JUMPDEST PUSH1 0x40 MLOAD PUSH1 0x1F DUP3 ADD PUSH1 0x1F NOT AND DUP2 ADD DUP6 ADD DUP4 DUP2 GT DUP3 DUP3 LT OR ISZERO PUSH2 0x250A JUMPI PUSH2 0x250A PUSH2 0x2D71 JUMP JUMPDEST PUSH1 0x40 MSTORE DUP2 DUP2 MSTORE DUP4 DUP3 ADD DUP6 ADD DUP9 LT ISZERO PUSH2 0x2520 JUMPI DUP6 DUP7 REVERT JUMPDEST DUP2 DUP6 DUP6 ADD DUP7 DUP4 ADD CALLDATACOPY SWAP1 DUP2 ADD SWAP1 SWAP4 ADD SWAP4 SWAP1 SWAP4 MSTORE POP SWAP4 SWAP3 POP POP POP JUMP JUMPDEST PUSH1 0x0 PUSH1 0x20 DUP3 DUP5 SUB SLT ISZERO PUSH2 0x254B JUMPI DUP1 DUP2 REVERT JUMPDEST POP CALLDATALOAD SWAP2 SWAP1 POP JUMP JUMPDEST PUSH1 0x0 PUSH1 0x20 DUP3 DUP5 SUB SLT ISZERO PUSH2 0x2563 JUMPI DUP1 DUP2 REVERT JUMPDEST POP MLOAD SWAP2 SWAP1 POP JUMP JUMPDEST PUSH1 0x1 PUSH1 0x1 PUSH1 0xA0 SHL SUB AND SWAP1 MSTORE JUMP JUMPDEST PUSH1 0x0 DUP2 MLOAD DUP1 DUP5 MSTORE PUSH1 0x20 DUP1 DUP6 ADD SWAP5 POP DUP1 DUP5 ADD DUP4 JUMPDEST DUP4 DUP2 LT ISZERO PUSH2 0x25AF JUMPI DUP2 MLOAD PUSH1 0x1 PUSH1 0x1 PUSH1 0xA0 SHL SUB AND DUP8 MSTORE SWAP6 DUP3 ADD SWAP6 SWAP1 DUP3 ADD SWAP1 PUSH1 0x1 ADD PUSH2 0x258A JUMP JUMPDEST POP SWAP5 SWAP6 SWAP5 POP POP POP POP POP JUMP JUMPDEST PUSH1 0x0 DUP3 DUP3 MLOAD DUP1 DUP6 MSTORE PUSH1 0x20 DUP1 DUP7 ADD SWAP6 POP DUP1 DUP2 DUP4 MUL DUP5 ADD ADD DUP2 DUP7 ADD DUP6 JUMPDEST DUP5 DUP2 LT ISZERO PUSH2 0x2644 JUMPI PUSH1 0x1F NOT DUP7 DUP5 SUB ADD DUP10 MSTORE DUP2 MLOAD PUSH1 0x60 DUP2 MLOAD DUP2 DUP7 MSTORE PUSH2 0x25FB DUP3 DUP8 ADD DUP3 PUSH2 0x2651 JUMP JUMPDEST SWAP2 POP POP DUP6 DUP3 ADD MLOAD DUP6 DUP3 SUB DUP8 DUP8 ADD MSTORE PUSH2 0x2613 DUP3 DUP3 PUSH2 0x2651 JUMP JUMPDEST SWAP2 POP POP PUSH1 0x40 DUP1 DUP4 ADD MLOAD SWAP3 POP DUP6 DUP3 SUB DUP2 DUP8 ADD MSTORE POP PUSH2 0x2630 DUP2 DUP4 PUSH2 0x2651 JUMP JUMPDEST SWAP11 DUP7 ADD SWAP11 SWAP5 POP POP POP SWAP1 DUP4 ADD SWAP1 PUSH1 0x1 ADD PUSH2 0x25D5 JUMP JUMPDEST POP SWAP1 SWAP8 SWAP7 POP POP POP POP POP POP POP JUMP JUMPDEST PUSH1 0x0 DUP2 MLOAD DUP1 DUP5 MSTORE DUP2 JUMPDEST DUP2 DUP2 LT ISZERO PUSH2 0x2676 JUMPI PUSH1 0x20 DUP2 DUP6 ADD DUP2 ADD MLOAD DUP7 DUP4 ADD DUP3 ADD MSTORE ADD PUSH2 0x265A JUMP JUMPDEST DUP2 DUP2 GT ISZERO PUSH2 0x2687 JUMPI DUP3 PUSH1 0x20 DUP4 DUP8 ADD ADD MSTORE JUMPDEST POP PUSH1 0x1F ADD PUSH1 0x1F NOT AND SWAP3 SWAP1 SWAP3 ADD PUSH1 0x20 ADD SWAP3 SWAP2 POP POP JUMP JUMPDEST PUSH1 0x1 PUSH1 0x1 PUSH1 0xA0 SHL SUB SWAP2 SWAP1 SWAP2 AND DUP2 MSTORE PUSH1 0x20 ADD SWAP1 JUMP JUMPDEST PUSH1 0x1 PUSH1 0x1 PUSH1 0xA0 SHL SUB SWAP4 DUP5 AND DUP2 MSTORE SWAP2 SWAP1 SWAP3 AND PUSH1 0x20 DUP3 ADD MSTORE PUSH1 0x40 DUP2 ADD SWAP2 SWAP1 SWAP2 MSTORE PUSH1 0x60 ADD SWAP1 JUMP JUMPDEST PUSH1 0x1 PUSH1 0x1 PUSH1 0xA0 SHL SUB SWAP3 SWAP1 SWAP3 AND DUP3 MSTORE PUSH1 0x20 DUP3 ADD MSTORE PUSH1 0x40 ADD SWAP1 JUMP JUMPDEST PUSH1 0x0 PUSH1 0x20 DUP3 MSTORE PUSH2 0x2472 PUSH1 0x20 DUP4 ADD DUP5 PUSH2 0x2577 JUMP JUMPDEST PUSH1 0x0 PUSH1 0x40 DUP3 MSTORE PUSH2 0x2713 PUSH1 0x40 DUP4 ADD DUP6 PUSH2 0x2577 JUMP JUMPDEST DUP3 DUP2 SUB PUSH1 0x20 DUP5 DUP2 ADD SWAP2 SWAP1 SWAP2 MSTORE DUP5 MLOAD DUP1 DUP4 MSTORE DUP6 DUP3 ADD SWAP3 DUP3 ADD SWAP1 DUP5 JUMPDEST DUP2 DUP2 LT ISZERO PUSH2 0x2644 JUMPI DUP5 MLOAD DUP4 MSTORE SWAP4 DUP4 ADD SWAP4 SWAP2 DUP4 ADD SWAP2 PUSH1 0x1 ADD PUSH2 0x272D JUMP JUMPDEST SWAP1 ISZERO ISZERO DUP2 MSTORE PUSH1 0x20 ADD SWAP1 JUMP JUMPDEST PUSH1 0x20 DUP2 ADD PUSH1 0x6 DUP4 LT PUSH2 0x2776 JUMPI PUSH4 0x4E487B71 PUSH1 0xE0 SHL PUSH1 0x0 MSTORE PUSH1 0x21 PUSH1 0x4 MSTORE PUSH1 0x24 PUSH1 0x0 REVERT JUMPDEST SWAP2 SWAP1 MSTORE SWAP1 JUMP JUMPDEST PUSH1 0x0 PUSH1 0x20 DUP3 MSTORE PUSH2 0x2472 PUSH1 0x20 DUP4 ADD DUP5 PUSH2 0x2651 JUMP JUMPDEST PUSH1 0x20 DUP1 DUP3 MSTORE PUSH1 0x24 SWAP1 DUP3 ADD MSTORE PUSH32 0x50726F6A656374206E6F7420617661696C61626C6520666F7220696E76657374 PUSH1 0x40 DUP3 ADD MSTORE PUSH4 0x1B595B9D PUSH1 0xE2 SHL PUSH1 0x60 DUP3 ADD MSTORE PUSH1 0x80 ADD SWAP1 JUMP JUMPDEST PUSH1 0x20 DUP1 DUP3 MSTORE PUSH1 0x16 SWAP1 DUP3 ADD MSTORE PUSH22 0x125B9D995CDD1B595B9D081B9BDD081CDD185C9D1959 PUSH1 0x52 SHL PUSH1 0x40 DUP3 ADD MSTORE PUSH1 0x60 ADD SWAP1 JUMP JUMPDEST PUSH1 0x20 DUP1 DUP3 MSTORE PUSH1 0x18 SWAP1 DUP3 ADD MSTORE PUSH32 0x41626F7665206D6178696D756D20696E766573746D656E740000000000000000 PUSH1 0x40 DUP3 ADD MSTORE PUSH1 0x60 ADD SWAP1 JUMP JUMPDEST PUSH1 0x20 DUP1 DUP3 MSTORE PUSH1 0x14 SWAP1 DUP3 ADD MSTORE PUSH20 0x115E18D959591CC8199D5B991A5B99C819DBD85B PUSH1 0x62 SHL PUSH1 0x40 DUP3 ADD MSTORE PUSH1 0x60 ADD SWAP1 JUMP JUMPDEST PUSH1 0x20 DUP1 DUP3 MSTORE PUSH1 0x17 SWAP1 DUP3 ADD MSTORE PUSH32 0x50726F6A656374206973206E6F74206465666572726564000000000000000000 PUSH1 0x40 DUP3 ADD MSTORE PUSH1 0x60 ADD SWAP1 JUMP JUMPDEST PUSH1 0x20 DUP1 DUP3 MSTORE PUSH1 0x19 SWAP1 DUP3 ADD MSTORE PUSH32 0x52657475726E73206E6F7420617661696C61626C652079657400000000000000 PUSH1 0x40 DUP3 ADD MSTORE PUSH1 0x60 ADD SWAP1 JUMP JUMPDEST PUSH1 0x20 DUP1 DUP3 MSTORE PUSH1 0x17 SWAP1 DUP3 ADD MSTORE PUSH32 0x46756E647320616C72656164792077697468647261776E000000000000000000 PUSH1 0x40 DUP3 ADD MSTORE PUSH1 0x60 ADD SWAP1 JUMP JUMPDEST PUSH1 0x20 DUP1 DUP3 MSTORE PUSH1 0x1D SWAP1 DUP3 ADD MSTORE PUSH32 0x416D6F756E74206D7573742062652067726561746572207468616E2030000000 PUSH1 0x40 DUP3 ADD MSTORE PUSH1 0x60 ADD SWAP1 JUMP JUMPDEST PUSH1 0x20 DUP1 DUP3 MSTORE PUSH1 0x25 SWAP1 DUP3 ADD MSTORE PUSH32 0x4D757374207265706179206174206C6561737420746865207261697365642061 PUSH1 0x40 DUP3 ADD MSTORE PUSH5 0x1B5BDD5B9D PUSH1 0xDA SHL PUSH1 0x60 DUP3 ADD MSTORE PUSH1 0x80 ADD SWAP1 JUMP JUMPDEST PUSH1 0x20 DUP1 DUP3 MSTORE PUSH1 0x17 SWAP1 DUP3 ADD MSTORE PUSH32 0x496E766573746D656E7420706572696F6420656E646564000000000000000000 PUSH1 0x40 DUP3 ADD MSTORE PUSH1 0x60 ADD SWAP1 JUMP JUMPDEST PUSH1 0x20 DUP1 DUP3 MSTORE PUSH1 0x19 SWAP1 DUP3 ADD MSTORE PUSH32 0x416C72656164792077697468647261776E2072657475726E7300000000000000 PUSH1 0x40 DUP3 ADD MSTORE PUSH1 0x60 ADD SWAP1 JUMP JUMPDEST PUSH1 0x20 DUP1 DUP3 MSTORE PUSH1 0x23 SWAP1 DUP3 ADD MSTORE PUSH32 0x4554482F424E42206E6F742061636365707465642C207573652055534454206F PUSH1 0x40 DUP3 ADD MSTORE PUSH3 0x6E6C79 PUSH1 0xE8 SHL PUSH1 0x60 DUP3 ADD MSTORE PUSH1 0x80 ADD SWAP1 JUMP JUMPDEST PUSH1 0x20 DUP1 DUP3 MSTORE PUSH1 0x13 SWAP1 DUP3 ADD MSTORE PUSH19 0x139BC81A5B9D995CDD1B595B9D08199BDD5B99 PUSH1 0x6A SHL PUSH1 0x40 DUP3 ADD MSTORE PUSH1 0x60 ADD SWAP1 JUMP JUMPDEST PUSH1 0x20 DUP1 DUP3 MSTORE PUSH1 0x16 SWAP1 DUP3 ADD MSTORE PUSH22 0x105B1C9958591E4818DB185A5B5959081C99599D5B99 PUSH1 0x52 SHL PUSH1 0x40 DUP3 ADD MSTORE PUSH1 0x60 ADD SWAP1 JUMP JUMPDEST PUSH1 0x20 DUP1 DUP3 MSTORE PUSH1 0x14 SWAP1 DUP3 ADD MSTORE PUSH20 0x1554D115081D1C985B9CD9995C8819985A5B1959 PUSH1 0x62 SHL PUSH1 0x40 DUP3 ADD MSTORE PUSH1 0x60 ADD SWAP1 JUMP JUMPDEST PUSH1 0x20 DUP1 DUP3 MSTORE PUSH1 0x17 SWAP1 DUP3 ADD MSTORE PUSH32 0x4E6F20696E766573746D656E7420746F20726566756E64000000000000000000 PUSH1 0x40 DUP3 ADD MSTORE PUSH1 0x60 ADD SWAP1 JUMP JUMPDEST PUSH1 0x20 DUP1 DUP3 MSTORE PUSH1 0x1F SWAP1 DUP3 ADD MSTORE PUSH32 0x5265656E7472616E637947756172643A207265656E7472616E742063616C6C00 PUSH1 0x40 DUP3 ADD MSTORE PUSH1 0x60 ADD SWAP1 JUMP JUMPDEST PUSH1 0x20 DUP1 DUP3 MSTORE PUSH1 0x18 SWAP1 DUP3 ADD MSTORE PUSH32 0x42656C6F77206D696E696D756D20696E766573746D656E740000000000000000 PUSH1 0x40 DUP3 ADD MSTORE PUSH1 0x60 ADD SWAP1 JUMP JUMPDEST PUSH1 0x0 PUSH1 0x20 DUP3 MSTORE PUSH2 0x2B7E PUSH1 0x20 DUP4 ADD DUP5 MLOAD PUSH2 0x256A JUMP JUMPDEST PUSH1 0x20 DUP4 ADD MLOAD PUSH2 0x140 DUP1 PUSH1 0x40 DUP6 ADD MSTORE PUSH2 0x2B9A PUSH2 0x160 DUP6 ADD DUP4 PUSH2 0x2651 JUMP JUMPDEST SWAP2 POP PUSH1 0x40 DUP6 ADD MLOAD PUSH1 0x1F NOT DUP1 DUP7 DUP6 SUB ADD PUSH1 0x60 DUP8 ADD MSTORE PUSH2 0x2BB8 DUP5 DUP4 PUSH2 0x2651 JUMP JUMPDEST SWAP4 POP PUSH1 0x60 DUP8 ADD MLOAD SWAP2 POP DUP1 DUP7 DUP6 SUB ADD PUSH1 0x80 DUP8 ADD MSTORE POP PUSH2 0x2BD6 DUP4 DUP3 PUSH2 0x25BA JUMP JUMPDEST SWAP3 POP POP PUSH1 0x80 DUP6 ADD MLOAD PUSH1 0xA0 DUP6 ADD MSTORE PUSH1 0xA0 DUP6 ADD MLOAD PUSH1 0xC0 DUP6 ADD MSTORE PUSH1 0xC0 DUP6 ADD MLOAD PUSH1 0xE0 DUP6 ADD MSTORE PUSH1 0xE0 DUP6 ADD MLOAD PUSH2 0x100 DUP2 DUP2 DUP8 ADD MSTORE DUP1 DUP8 ADD MLOAD SWAP2 POP POP PUSH2 0x120 DUP2 DUP2 DUP8 ADD MSTORE DUP1 DUP8 ADD MLOAD DUP4 DUP8 ADD MSTORE POP POP POP DUP1 SWAP2 POP POP SWAP3 SWAP2 POP POP JUMP JUMPDEST DUP2 MLOAD DUP2 MSTORE PUSH1 0x20 DUP1 DUP4 ADD MLOAD SWAP1 DUP3 ADD MSTORE PUSH1 0x40 DUP1 DUP4 ADD MLOAD SWAP1 DUP3 ADD MSTORE PUSH1 0x60 SWAP2 DUP3 ADD MLOAD ISZERO ISZERO SWAP2 DUP2 ADD SWAP2 SWAP1 SWAP2 MSTORE PUSH1 0x80 ADD SWAP1 JUMP JUMPDEST SWAP1 DUP2 MSTORE PUSH1 0x20 ADD SWAP1 JUMP JUMPDEST SWAP2 DUP3 MSTORE PUSH1 0x20 DUP3 ADD MSTORE PUSH1 0x40 ADD SWAP1 JUMP JUMPDEST PUSH1 0x0 PUSH1 0x1 PUSH1 0x1 PUSH1 0x80 SHL SUB DUP1 DUP4 AND DUP2 DUP6 AND DUP1 DUP4 SUB DUP3 GT ISZERO PUSH2 0x2C8E JUMPI PUSH2 0x2C8E PUSH2 0x2D5B JUMP JUMPDEST ADD SWAP5 SWAP4 POP POP POP POP JUMP JUMPDEST PUSH1 0x0 DUP3 NOT DUP3 GT ISZERO PUSH2 0x2CAA JUMPI PUSH2 0x2CAA PUSH2 0x2D5B JUMP JUMPDEST POP ADD SWAP1 JUMP JUMPDEST PUSH1 0x0 DUP3 PUSH2 0x2CCA JUMPI PUSH4 0x4E487B71 PUSH1 0xE0 SHL DUP2 MSTORE PUSH1 0x12 PUSH1 0x4 MSTORE PUSH1 0x24 DUP2 REVERT JUMPDEST POP DIV SWAP1 JUMP JUMPDEST PUSH1 0x0 DUP2 PUSH1 0x0 NOT DIV DUP4 GT DUP3 ISZERO ISZERO AND ISZERO PUSH2 0x2CE9 JUMPI PUSH2 0x2CE9 PUSH2 0x2D5B JUMP JUMPDEST POP MUL SWAP1 JUMP JUMPDEST PUSH1 0x0 DUP3 DUP3 LT ISZERO PUSH2 0x2D00 JUMPI PUSH2 0x2D00 PUSH2 0x2D5B JUMP JUMPDEST POP SUB SWAP1 JUMP JUMPDEST PUSH1 0x2 DUP2 DIV PUSH1 0x1 DUP3 AND DUP1 PUSH2 0x2D19 JUMPI PUSH1 0x7F DUP3 AND SWAP2 POP JUMPDEST PUSH1 0x20 DUP3 LT DUP2 EQ ISZERO PUSH2 0x2D3A JUMPI PUSH4 0x4E487B71 PUSH1 0xE0 SHL PUSH1 0x0 MSTORE PUSH1 0x22 PUSH1 0x4 MSTORE PUSH1 0x24 PUSH1 0x0 REVERT JUMPDEST POP SWAP2 SWAP1 POP JUMP JUMPDEST PUSH1 0x0 PUSH1 0x0 NOT DUP3 EQ ISZERO PUSH2 0x2D54 JUMPI PUSH2 0x2D54 PUSH2 0x2D5B JUMP JUMPDEST POP PUSH1 0x1 ADD SWAP1 JUMP JUMPDEST PUSH4 0x4E487B71 PUSH1 0xE0 SHL PUSH1 0x0 MSTORE PUSH1 0x11 PUSH1 0x4 MSTORE PUSH1 0x24 PUSH1 0x0 REVERT JUMPDEST PUSH4 0x4E487B71 PUSH1 0xE0 SHL PUSH1 0x0 MSTORE PUSH1 0x41 PUSH1 0x4 MSTORE PUSH1 0x24 PUSH1 0x0 REVERT INVALID LOG2 PUSH5 0x6970667358 0x22 SLT KECCAK256 0xE7 0xD JUMPI CALL JUMPI 0xCE DUP7 0xEF 0xC SWAP12 SWAP4 EXTCODEHASH DUP5 ISZERO 0xCE PUSH24 0xBEFB45B18AD2182441E66179C6A50F8164736F6C63430008 STOP STOP CALLER "},"gasEstimates":{"creation":{"codeDepositCost":"2341800","executionCost":"infinite","totalCost":"infinite"},"external":{"PLATFORM_FEE_PERCENT()":"317","admin()":"infinite","approveProject()":"infinite","claimRefund()":"infinite","creator()":"infinite","factory()":"infinite","getInvestment(address)":"1326","getInvestorProjectsWithAmounts(address)":"infinite","getInvestors()":"infinite","getMyInvestments()":"infinite","getPaymentToken()":"infinite","getProjectInfo()":"infinite","getRejectionReason()":"infinite","getReturnInfo()":"3838","getStatus()":"6255","getTotalRaised()":"1124","hasClaimedRefund(address)":"1297","hasCreatorRepaid()":"1151","hasCreatorWithdrawnFunds()":"1109","hasUserClaimedRefund(address)":"1291","hasUserWithdrawnReturns(address)":"1337","hasWithdrawnReturns(address)":"1318","invest(uint256)":"infinite","investments(address)":"1262","investors(uint256)":"2084","markAsDefaulted()":"infinite","paymentToken()":"infinite","rejectProject(string)":"infinite","returnFunds(uint256)":"infinite","withdrawFunds()":"infinite","withdrawReturns()":"infinite"},"internal":{"_determineStatus()":"5936","_initProjectInfo(struct CrowdfundStructs.ProjectInfo memory)":"infinite"}},"methodIdentifiers":{"PLATFORM_FEE_PERCENT()":"560d52d4","admin()":"f851a440","approveProject()":"b4e830f1","claimRefund()":"b5545a3c","creator()":"02d05d3f","factory()":"c45a0155","getInvestment(address)":"146b58df","getInvestorProjectsWithAmounts(address)":"b3a907ee","getInvestors()":"b2f5a54c","getMyInvestments()":"5fc2f095","getPaymentToken()":"d41c3a65","getProjectInfo()":"67c897fe","getRejectionReason()":"25973089","getReturnInfo()":"521fed2b","getStatus()":"4e69d560","getTotalRaised()":"9f550293","hasClaimedRefund(address)":"68a94dfc","hasCreatorRepaid()":"abe7c130","hasCreatorWithdrawnFunds()":"10329d4d","hasUserClaimedRefund(address)":"b573c273","hasUserWithdrawnReturns(address)":"68bf37cb","hasWithdrawnReturns(address)":"a7328181","invest(uint256)":"2afcf480","investments(address)":"96b98862","investors(uint256)":"3feb5f2b","markAsDefaulted()":"4ccc1ae1","paymentToken()":"3013ce29","rejectProject(string)":"78340a89","returnFunds(uint256)":"45755dd6","withdrawFunds()":"24600fc3","withdrawReturns()":"4c7ce18a"}},"storageLayout":{"storage":[{"astId":10,"contract":"contracts/CrowdfundProject.sol:CrowdfundProject","label":"_status","offset":0,"slot":"0","type":"t_uint256"},{"astId":1278,"contract":"contracts/CrowdfundProject.sol:CrowdfundProject","label":"projectInfo","offset":0,"slot":"1","type":"t_struct(ProjectInfo)2850_storage"},{"astId":1281,"contract":"contracts/CrowdfundProject.sol:CrowdfundProject","label":"returnInfo","offset":0,"slot":"11","type":"t_struct(ProjectReturn)2859_storage"},{"astId":1284,"contract":"contracts/CrowdfundProject.sol:CrowdfundProject","label":"projectStorage","offset":0,"slot":"15","type":"t_struct(ProjectStorage)1275_storage"},{"astId":1296,"contract":"contracts/CrowdfundProject.sol:CrowdfundProject","label":"investments","offset":0,"slot":"18","type":"t_mapping(t_address,t_uint256)"},{"astId":1300,"contract":"contracts/CrowdfundProject.sol:CrowdfundProject","label":"hasClaimedRefund","offset":0,"slot":"19","type":"t_mapping(t_address,t_bool)"},{"astId":1304,"contract":"contracts/CrowdfundProject.sol:CrowdfundProject","label":"hasWithdrawnReturns","offset":0,"slot":"20","type":"t_mapping(t_address,t_bool)"},{"astId":1307,"contract":"contracts/CrowdfundProject.sol:CrowdfundProject","label":"investors","offset":0,"slot":"21","type":"t_array(t_address)dyn_storage"},{"astId":1349,"contract":"contracts/CrowdfundProject.sol:CrowdfundProject","label":"hasCreatorWithdrawnFunds","offset":0,"slot":"22","type":"t_bool"}],"types":{"t_address":{"encoding":"inplace","label":"address","numberOfBytes":"20"},"t_array(t_address)dyn_storage":{"base":"t_address","encoding":"dynamic_array","label":"address[]","numberOfBytes":"32"},"t_array(t_struct(Document)2827_storage)dyn_storage":{"base":"t_struct(Document)2827_storage","encoding":"dynamic_array","label":"struct CrowdfundStructs.Document[]","numberOfBytes":"32"},"t_bool":{"encoding":"inplace","label":"bool","numberOfBytes":"1"},"t_enum(ProjectStatus)2820":{"encoding":"inplace","label":"enum CrowdfundStructs.ProjectStatus","numberOfBytes":"1"},"t_mapping(t_address,t_bool)":{"encoding":"mapping","key":"t_address","label":"mapping(address => bool)","numberOfBytes":"32","value":"t_bool"},"t_mapping(t_address,t_uint256)":{"encoding":"mapping","key":"t_address","label":"mapping(address => uint256)","numberOfBytes":"32","value":"t_uint256"},"t_string_storage":{"encoding":"bytes","label":"string","numberOfBytes":"32"},"t_struct(Document)2827_storage":{"encoding":"inplace","label":"struct CrowdfundStructs.Document","members":[{"astId":2822,"contract":"contracts/CrowdfundProject.sol:CrowdfundProject","label":"title","offset":0,"slot":"0","type":"t_string_storage"},{"astId":2824,"contract":"contracts/CrowdfundProject.sol:CrowdfundProject","label":"extension","offset":0,"slot":"1","type":"t_string_storage"},{"astId":2826,"contract":"contracts/CrowdfundProject.sol:CrowdfundProject","label":"ipfsHash","offset":0,"slot":"2","type":"t_string_storage"}],"numberOfBytes":"96"},"t_struct(ProjectInfo)2850_storage":{"encoding":"inplace","label":"struct CrowdfundStructs.ProjectInfo","members":[{"astId":2829,"contract":"contracts/CrowdfundProject.sol:CrowdfundProject","label":"creator","offset":0,"slot":"0","type":"t_address"},{"astId":2831,"contract":"contracts/CrowdfundProject.sol:CrowdfundProject","label":"title","offset":0,"slot":"1","type":"t_string_storage"},{"astId":2833,"contract":"contracts/CrowdfundProject.sol:CrowdfundProject","label":"description","offset":0,"slot":"2","type":"t_string_storage"},{"astId":2837,"contract":"contracts/CrowdfundProject.sol:CrowdfundProject","label":"documents","offset":0,"slot":"3","type":"t_array(t_struct(Document)2827_storage)dyn_storage"},{"astId":2839,"contract":"contracts/CrowdfundProject.sol:CrowdfundProject","label":"startDate","offset":0,"slot":"4","type":"t_uint256"},{"astId":2841,"contract":"contracts/CrowdfundProject.sol:CrowdfundProject","label":"endDate","offset":0,"slot":"5","type":"t_uint256"},{"astId":2843,"contract":"contracts/CrowdfundProject.sol:CrowdfundProject","label":"returnNotifyDate","offset":0,"slot":"6","type":"t_uint256"},{"astId":2845,"contract":"contracts/CrowdfundProject.sol:CrowdfundProject","label":"raiseAmount","offset":0,"slot":"7","type":"t_uint256"},{"astId":2847,"contract":"contracts/CrowdfundProject.sol:CrowdfundProject","label":"minInvestment","offset":0,"slot":"8","type":"t_uint256"},{"astId":2849,"contract":"contracts/CrowdfundProject.sol:CrowdfundProject","label":"maxInvestment","offset":0,"slot":"9","type":"t_uint256"}],"numberOfBytes":"320"},"t_struct(ProjectReturn)2859_storage":{"encoding":"inplace","label":"struct CrowdfundStructs.ProjectReturn","members":[{"astId":2852,"contract":"contracts/CrowdfundProject.sol:CrowdfundProject","label":"returnedAmount","offset":0,"slot":"0","type":"t_uint256"},{"astId":2854,"contract":"contracts/CrowdfundProject.sol:CrowdfundProject","label":"profitPercentage","offset":0,"slot":"1","type":"t_uint256"},{"astId":2856,"contract":"contracts/CrowdfundProject.sol:CrowdfundProject","label":"returnDate","offset":0,"slot":"2","type":"t_uint256"},{"astId":2858,"contract":"contracts/CrowdfundProject.sol:CrowdfundProject","label":"isReturned","offset":0,"slot":"3","type":"t_bool"}],"numberOfBytes":"128"},"t_struct(ProjectStorage)1275_storage":{"encoding":"inplace","label":"struct CrowdfundProject.ProjectStorage","members":[{"astId":1268,"contract":"contracts/CrowdfundProject.sol:CrowdfundProject","label":"status","offset":0,"slot":"0","type":"t_enum(ProjectStatus)2820"},{"astId":1270,"contract":"contracts/CrowdfundProject.sol:CrowdfundProject","label":"totalRaised","offset":1,"slot":"0","type":"t_uint128"},{"astId":1272,"contract":"contracts/CrowdfundProject.sol:CrowdfundProject","label":"raiseAmount","offset":0,"slot":"1","type":"t_uint128"},{"astId":1274,"contract":"contracts/CrowdfundProject.sol:CrowdfundProject","label":"rejectionReason","offset":0,"slot":"2","type":"t_string_storage"}],"numberOfBytes":"96"},"t_uint128":{"encoding":"inplace","label":"uint128","numberOfBytes":"16"},"t_uint256":{"encoding":"inplace","label":"uint256","numberOfBytes":"32"}}},"userdoc":{"kind":"user","methods":{},"version":1}}}}