{
  "_format": "hh-sol-artifact-1",
  "contractName": "CrowdfundFactory",
  "sourceName": "contracts/CrowdfundFactory.sol",
  "abi": [
    {
      "inputs": [],
      "stateMutability": "nonpayable",
      "type": "constructor"
    },
    {
      "anonymous": false,
      "inputs": [
        {
          "indexed": true,
          "internalType": "address",
          "name": "creator",
          "type": "address"
        },
        {
          "indexed": false,
          "internalType": "address",
          "name": "project",
          "type": "address"
        }
      ],
      "name": "ProjectCreated",
      "type": "event"
    },
    {
      "anonymous": false,
      "inputs": [
        {
          "indexed": true,
          "internalType": "address",
          "name": "project",
          "type": "address"
        },
        {
          "indexed": true,
          "internalType": "address",
          "name": "investor",
          "type": "address"
        }
      ],
      "name": "ReturnRequested",
      "type": "event"
    },
    {
      "inputs": [],
      "name": "USDT_TOKEN",
      "outputs": [
        {
          "internalType": "address",
          "name": "",
          "type": "address"
        }
      ],
      "stateMutability": "view",
      "type": "function"
    },
    {
      "inputs": [],
      "name": "admin",
      "outputs": [
        {
          "internalType": "address",
          "name": "",
          "type": "address"
        }
      ],
      "stateMutability": "view",
      "type": "function"
    },
    {
      "inputs": [
        {
          "internalType": "uint256",
          "name": "",
          "type": "uint256"
        }
      ],
      "name": "allProjects",
      "outputs": [
        {
          "internalType": "address",
          "name": "",
          "type": "address"
        }
      ],
      "stateMutability": "view",
      "type": "function"
    },
    {
      "inputs": [
        {
          "internalType": "string",
          "name": "title",
          "type": "string"
        },
        {
          "internalType": "string",
          "name": "description",
          "type": "string"
        },
        {
          "components": [
            {
              "internalType": "string",
              "name": "title",
              "type": "string"
            },
            {
              "internalType": "string",
              "name": "extension",
              "type": "string"
            },
            {
              "internalType": "string",
              "name": "ipfsHash",
              "type": "string"
            }
          ],
          "internalType": "struct CrowdfundStructs.Document[]",
          "name": "documents",
          "type": "tuple[]"
        },
        {
          "internalType": "uint256",
          "name": "startDate",
          "type": "uint256"
        },
        {
          "internalType": "uint256",
          "name": "endDate",
          "type": "uint256"
        },
        {
          "internalType": "uint256",
          "name": "returnNotifyDate",
          "type": "uint256"
        },
        {
          "internalType": "uint256",
          "name": "raiseAmount",
          "type": "uint256"
        },
        {
          "internalType": "uint256",
          "name": "minInvestment",
          "type": "uint256"
        },
        {
          "internalType": "uint256",
          "name": "maxInvestment",
          "type": "uint256"
        }
      ],
      "name": "createProject",
      "outputs": [
        {
          "internalType": "address",
          "name": "",
          "type": "address"
        }
      ],
      "stateMutability": "nonpayable",
      "type": "function"
    },
    {
      "inputs": [
        {
          "internalType": "address",
          "name": "",
          "type": "address"
        },
        {
          "internalType": "uint256",
          "name": "",
          "type": "uint256"
        }
      ],
      "name": "creatorProjects",
      "outputs": [
        {
          "internalType": "address",
          "name": "",
          "type": "address"
        }
      ],
      "stateMutability": "view",
      "type": "function"
    },
    {
      "inputs": [],
      "name": "getAdmin",
      "outputs": [
        {
          "internalType": "address",
          "name": "",
          "type": "address"
        }
      ],
      "stateMutability": "view",
      "type": "function"
    },
    {
      "inputs": [],
      "name": "getAllProjects",
      "outputs": [
        {
          "internalType": "address[]",
          "name": "",
          "type": "address[]"
        }
      ],
      "stateMutability": "view",
      "type": "function"
    },
    {
      "inputs": [],
      "name": "getAllProjectsDetails",
      "outputs": [
        {
          "components": [
            {
              "internalType": "address",
              "name": "projectAddress",
              "type": "address"
            },
            {
              "internalType": "address",
              "name": "creator",
              "type": "address"
            },
            {
              "internalType": "string",
              "name": "title",
              "type": "string"
            },
            {
              "internalType": "string",
              "name": "description",
              "type": "string"
            },
            {
              "components": [
                {
                  "internalType": "string",
                  "name": "title",
                  "type": "string"
                },
                {
                  "internalType": "string",
                  "name": "extension",
                  "type": "string"
                },
                {
                  "internalType": "string",
                  "name": "ipfsHash",
                  "type": "string"
                }
              ],
              "internalType": "struct CrowdfundStructs.Document[]",
              "name": "documents",
              "type": "tuple[]"
            },
            {
              "internalType": "uint256",
              "name": "startDate",
              "type": "uint256"
            },
            {
              "internalType": "uint256",
              "name": "endDate",
              "type": "uint256"
            },
            {
              "internalType": "uint256",
              "name": "returnNotifyDate",
              "type": "uint256"
            },
            {
              "internalType": "uint256",
              "name": "raiseAmount",
              "type": "uint256"
            },
            {
              "internalType": "uint256",
              "name": "minInvestment",
              "type": "uint256"
            },
            {
              "internalType": "uint256",
              "name": "maxInvestment",
              "type": "uint256"
            },
            {
              "internalType": "uint256",
              "name": "totalRaised",
              "type": "uint256"
            },
            {
              "internalType": "enum CrowdfundStructs.ProjectStatus",
              "name": "status",
              "type": "uint8"
            },
            {
              "internalType": "address",
              "name": "paymentToken",
              "type": "address"
            },
            {
              "components": [
                {
                  "internalType": "uint256",
                  "name": "returnedAmount",
                  "type": "uint256"
                },
                {
                  "internalType": "uint256",
                  "name": "profitPercentage",
                  "type": "uint256"
                },
                {
                  "internalType": "uint256",
                  "name": "returnDate",
                  "type": "uint256"
                },
                {
                  "internalType": "bool",
                  "name": "isReturned",
                  "type": "bool"
                }
              ],
              "internalType": "struct CrowdfundStructs.ProjectReturn",
              "name": "returnInfo",
              "type": "tuple"
            },
            {
              "internalType": "string",
              "name": "rejectionReason",
              "type": "string"
            }
          ],
          "internalType": "struct CrowdfundStructs.ProjectDetail[]",
          "name": "",
          "type": "tuple[]"
        }
      ],
      "stateMutability": "view",
      "type": "function"
    },
    {
      "inputs": [
        {
          "internalType": "address",
          "name": "creator",
          "type": "address"
        }
      ],
      "name": "getCreatorProjects",
      "outputs": [
        {
          "internalType": "address[]",
          "name": "",
          "type": "address[]"
        }
      ],
      "stateMutability": "view",
      "type": "function"
    },
    {
      "inputs": [
        {
          "internalType": "address",
          "name": "investor",
          "type": "address"
        }
      ],
      "name": "getInvestorProjectsWithAmounts",
      "outputs": [
        {
          "components": [
            {
              "internalType": "address",
              "name": "projectAddress",
              "type": "address"
            },
            {
              "internalType": "address",
              "name": "creator",
              "type": "address"
            },
            {
              "internalType": "string",
              "name": "title",
              "type": "string"
            },
            {
              "internalType": "string",
              "name": "description",
              "type": "string"
            },
            {
              "components": [
                {
                  "internalType": "string",
                  "name": "title",
                  "type": "string"
                },
                {
                  "internalType": "string",
                  "name": "extension",
                  "type": "string"
                },
                {
                  "internalType": "string",
                  "name": "ipfsHash",
                  "type": "string"
                }
              ],
              "internalType": "struct CrowdfundStructs.Document[]",
              "name": "documents",
              "type": "tuple[]"
            },
            {
              "internalType": "uint256",
              "name": "startDate",
              "type": "uint256"
            },
            {
              "internalType": "uint256",
              "name": "endDate",
              "type": "uint256"
            },
            {
              "internalType": "uint256",
              "name": "returnNotifyDate",
              "type": "uint256"
            },
            {
              "internalType": "uint256",
              "name": "raiseAmount",
              "type": "uint256"
            },
            {
              "internalType": "uint256",
              "name": "minInvestment",
              "type": "uint256"
            },
            {
              "internalType": "uint256",
              "name": "maxInvestment",
              "type": "uint256"
            },
            {
              "internalType": "uint256",
              "name": "totalRaised",
              "type": "uint256"
            },
            {
              "internalType": "enum CrowdfundStructs.ProjectStatus",
              "name": "status",
              "type": "uint8"
            },
            {
              "internalType": "address",
              "name": "paymentToken",
              "type": "address"
            },
            {
              "components": [
                {
                  "internalType": "uint256",
                  "name": "returnedAmount",
                  "type": "uint256"
                },
                {
                  "internalType": "uint256",
                  "name": "profitPercentage",
                  "type": "uint256"
                },
                {
                  "internalType": "uint256",
                  "name": "returnDate",
                  "type": "uint256"
                },
                {
                  "internalType": "bool",
                  "name": "isReturned",
                  "type": "bool"
                }
              ],
              "internalType": "struct CrowdfundStructs.ProjectReturn",
              "name": "returnInfo",
              "type": "tuple"
            },
            {
              "internalType": "string",
              "name": "rejectionReason",
              "type": "string"
            }
          ],
          "internalType": "struct CrowdfundStructs.ProjectDetail[]",
          "name": "",
          "type": "tuple[]"
        },
        {
          "internalType": "uint256[]",
          "name": "",
          "type": "uint256[]"
        }
      ],
      "stateMutability": "view",
      "type": "function"
    },
    {
      "inputs": [
        {
          "internalType": "address",
          "name": "project",
          "type": "address"
        }
      ],
      "name": "getProjectDetails",
      "outputs": [
        {
          "components": [
            {
              "internalType": "address",
              "name": "creator",
              "type": "address"
            },
            {
              "internalType": "string",
              "name": "title",
              "type": "string"
            },
            {
              "internalType": "string",
              "name": "description",
              "type": "string"
            },
            {
              "components": [
                {
                  "internalType": "string",
                  "name": "title",
                  "type": "string"
                },
                {
                  "internalType": "string",
                  "name": "extension",
                  "type": "string"
                },
                {
                  "internalType": "string",
                  "name": "ipfsHash",
                  "type": "string"
                }
              ],
              "internalType": "struct CrowdfundStructs.Document[]",
              "name": "documents",
              "type": "tuple[]"
            },
            {
              "internalType": "uint256",
              "name": "startDate",
              "type": "uint256"
            },
            {
              "internalType": "uint256",
              "name": "endDate",
              "type": "uint256"
            },
            {
              "internalType": "uint256",
              "name": "returnNotifyDate",
              "type": "uint256"
            },
            {
              "internalType": "uint256",
              "name": "raiseAmount",
              "type": "uint256"
            },
            {
              "internalType": "uint256",
              "name": "minInvestment",
              "type": "uint256"
            },
            {
              "internalType": "uint256",
              "name": "maxInvestment",
              "type": "uint256"
            }
          ],
          "internalType": "struct CrowdfundStructs.ProjectInfo",
          "name": "",
          "type": "tuple"
        }
      ],
      "stateMutability": "view",
      "type": "function"
    },
    {
      "inputs": [
        {
          "internalType": "address",
          "name": "",
          "type": "address"
        }
      ],
      "name": "isProject",
      "outputs": [
        {
          "internalType": "bool",
          "name": "",
          "type": "bool"
        }
      ],
      "stateMutability": "view",
      "type": "function"
    },
    {
      "inputs": [
        {
          "internalType": "address",
          "name": "project",
          "type": "address"
        }
      ],
      "name": "requestReturn",
      "outputs": [],
      "stateMutability": "nonpayable",
      "type": "function"
    },
    {
      "inputs": [
        {
          "internalType": "address",
          "name": "",
          "type": "address"
        }
      ],
      "name": "returnRequested",
      "outputs": [
        {
          "internalType": "bool",
          "name": "",
          "type": "bool"
        }
      ],
      "stateMutability": "view",
      "type": "function"
    }
  ],
  "bytecode": "0x608060405234801561001057600080fd5b50600080546001600160a01b03191633179055615a46806100326000396000f3fe60806040523480156200001157600080fd5b5060043610620001005760003560e01c80637ec4a5a611620000995780639096675b116200006f5780639096675b14620001fe578063a0a3fbd71462000224578063b3a907ee146200023b578063f851a44014620002625762000100565b80637ec4a5a614620001c4578063801ea8ca14620001dd57806380d0382914620001f45762000100565b806353b3194c11620000db57806353b3194c1462000173578063649f675d14620001995780636e9960c314620001b057806377b330c914620001ba5762000100565b80630439e24d146200010557806305c81408146200013457806330c7793c146200015a575b600080fd5b6200011c620001163660046200191b565b6200026c565b6040516200012b91906200208e565b60405180910390f35b6200014b620001453660046200191b565b620002e5565b6040516200012b91906200213f565b62000164620002fa565b6040516200012b9190620020dd565b6200018a6200018436600462001cd5565b62000811565b6040516200012b919062002043565b6200018a620001aa36600462001a88565b6200083c565b6200018a62000b0a565b6200018a62000b19565b620001db620001d53660046200191b565b62000b31565b005b6200014b620001ee3660046200191b565b62000caf565b6200011c62000cc4565b620002156200020f3660046200191b565b62000d28565b6040516200012b91906200215f565b6200018a6200023536600462001960565b62000e14565b620002526200024c3660046200191b565b62000e4d565b6040516200012b929190620020f2565b6200018a620014f2565b6001600160a01b038116600090815260026020908152604091829020805483518184028101840190945280845260609392830182828015620002d857602002820191906000526020600020905b81546001600160a01b03168152600190910190602001808311620002b9575b505050505090505b919050565b60036020526000908152604090205460ff1681565b60606000306001600160a01b03166380d038296040518163ffffffff1660e01b815260040160006040518083038186803b1580156200033857600080fd5b505afa1580156200034d573d6000803e3d6000fd5b505050506040513d6000823e601f3d908101601f191682016040526200037791908101906200198e565b80519091506000816001600160401b03811115620003a557634e487b7160e01b600052604160045260246000fd5b604051908082528060200260200182016040528015620003e257816020015b620003ce62001501565b815260200190600190039081620003c45790505b50905060005b82811015620008095760008482815181106200041457634e487b7160e01b600052603260045260246000fd5b6020026020010151905060008190506000306001600160a01b0316639096675b846040518263ffffffff1660e01b815260040162000453919062002043565b60006040518083038186803b1580156200046c57600080fd5b505afa15801562000481573d6000803e3d6000fd5b505050506040513d6000823e601f3d908101601f19168201604052620004ab919081019062001b4d565b9050604051806102000160405280846001600160a01b0316815260200182600001516001600160a01b03168152602001826020015181526020018260400151815260200182606001518152602001826080015181526020018260a0015181526020018260c0015181526020018260e00151815260200182610100015181526020018261012001518152602001836001600160a01b0316639f5502936040518163ffffffff1660e01b815260040160206040518083038186803b1580156200057157600080fd5b505afa15801562000586573d6000803e3d6000fd5b505050506040513d601f19601f82011682018060405250810190620005ac919062001cee565b8152602001836001600160a01b0316634e69d5606040518163ffffffff1660e01b815260040160206040518083038186803b158015620005eb57600080fd5b505afa15801562000600573d6000803e3d6000fd5b505050506040513d601f19601f8201168201806040525081019062000626919062001a31565b60058111156200064657634e487b7160e01b600052602160045260246000fd5b8152602001836001600160a01b031663d41c3a656040518163ffffffff1660e01b815260040160206040518083038186803b1580156200068557600080fd5b505afa1580156200069a573d6000803e3d6000fd5b505050506040513d601f19601f82011682018060405250810190620006c0919062001941565b6001600160a01b03168152602001836001600160a01b031663521fed2b6040518163ffffffff1660e01b815260040160806040518083038186803b1580156200070857600080fd5b505afa1580156200071d573d6000803e3d6000fd5b505050506040513d601f19601f8201168201806040525081019062000743919062001c62565b8152602001836001600160a01b031663259730896040518163ffffffff1660e01b815260040160006040518083038186803b1580156200078257600080fd5b505afa15801562000797573d6000803e3d6000fd5b505050506040513d6000823e601f3d908101601f19168201604052620007c1919081019062001a52565b815250858581518110620007e557634e487b7160e01b600052603260045260246000fd5b60200260200101819052505050508080620008009062002223565b915050620003e8565b509250505090565b600181815481106200082257600080fd5b6000918252602090912001546001600160a01b0316905081565b600086861160405180604001604052806012815260200171496e76616c696420646174652072616e676560701b81525090620008965760405162461bcd60e51b81526004016200088d91906200214a565b60405180910390fd5b50604080518082019091526012815271496e76616c696420646174652072616e676560701b6020820152868611620008e35760405162461bcd60e51b81526004016200088d91906200214a565b5060408051808201909152600e81526d125b9d985b1a5908185b5bdd5b9d60921b6020820152828411156200092d5760405162461bcd60e51b81526004016200088d91906200214a565b5060408051808201909152600e81526d125b9d985b1a5908185b5bdd5b9d60921b602082015284831115620009775760405162461bcd60e51b81526004016200088d91906200214a565b506000604051806101400160405280336001600160a01b031681526020018c81526020018b81526020018a815260200189815260200188815260200187815260200186815260200185815260200184815250905060008060009054906101000a90046001600160a01b0316827355d398326f99059ff775485246999027b319795560405162000a0690620015b8565b62000a149392919062002057565b604051809103906000f08015801562000a31573d6000803e3d6000fd5b506001805480820182557fb10e2d527612073b26eecdfd717e6a320cf44b4afac2b0732d9fcbe2b7fa0cf60180546001600160a01b0384166001600160a01b03199182168117909255336000818152600260209081526040808320805480890182559084528284200180549095168617909455938152600390935291819020805460ff1916909317909255905191925082917f8cb1f5e0b7508307e592a641586f535256dba226b02388100691c6133f65e22e9062000af290849062002043565b60405180910390a29c9b505050505050505050505050565b6000546001600160a01b031690565b7355d398326f99059ff775485246999027b319795581565b6001600160a01b038116600090815260036020908152604091829020548251808401909352600b83526a139bdd08141c9bda9958dd60aa1b9183019190915260ff1662000b935760405162461bcd60e51b81526004016200088d91906200214a565b5060405163146b58df60e01b81526000906001600160a01b0383169063146b58df9062000bc590339060040162002043565b60206040518083038186803b15801562000bde57600080fd5b505afa15801562000bf3573d6000803e3d6000fd5b505050506040513d601f19601f8201168201806040525081019062000c19919062001cee565b116040518060400160405280600c81526020016b2737ba1034b73b32b9ba37b960a11b8152509062000c605760405162461bcd60e51b81526004016200088d91906200214a565b506001600160a01b038116600081815260046020526040808220805460ff19166001179055513392917fc65799a494603623b56fabb9ba036e26aa7fca42f51c71f138de25f199c859f591a350565b60046020526000908152604090205460ff1681565b6060600180548060200260200160405190810160405280929190818152602001828054801562000d1e57602002820191906000526020600020905b81546001600160a01b0316815260019091019060200180831162000cff575b5050505050905090565b62000d32620015c6565b6001600160a01b038216600090815260036020908152604091829020548251808401909352600b83526a139bdd08141c9bda9958dd60aa1b9183019190915260ff1662000d945760405162461bcd60e51b81526004016200088d91906200214a565b50816001600160a01b03166367c897fe6040518163ffffffff1660e01b815260040160006040518083038186803b15801562000dcf57600080fd5b505afa15801562000de4573d6000803e3d6000fd5b505050506040513d6000823e601f3d908101601f1916820160405262000e0e919081019062001b4d565b92915050565b6002602052816000526040600020818154811062000e3157600080fd5b6000918252602090912001546001600160a01b03169150829050565b6060806000805b60015481101562000f3e5760006001828154811062000e8357634e487b7160e01b600052603260045260246000fd5b60009182526020909120015460405163146b58df60e01b81526001600160a01b039091169063146b58df9062000ebe90899060040162002043565b60206040518083038186803b15801562000ed757600080fd5b505afa15801562000eec573d6000803e3d6000fd5b505050506040513d601f19601f8201168201806040525081019062000f12919062001cee565b111562000f29578162000f258162002223565b9250505b8062000f358162002223565b91505062000e54565b506000816001600160401b0381111562000f6857634e487b7160e01b600052604160045260246000fd5b60405190808252806020026020018201604052801562000fa557816020015b62000f9162001501565b81526020019060019003908162000f875790505b5090506000826001600160401b0381111562000fd157634e487b7160e01b600052604160045260246000fd5b60405190808252806020026020018201604052801562000ffb578160200160208202803683370190505b5090506000805b600154811015620014e5576000600182815481106200103157634e487b7160e01b600052603260045260246000fd5b600091825260208220015460405163146b58df60e01b81526001600160a01b039091169250829190829063146b58df9062001071908e9060040162002043565b60206040518083038186803b1580156200108a57600080fd5b505afa1580156200109f573d6000803e3d6000fd5b505050506040513d601f19601f82011682018060405250810190620010c5919062001cee565b90508015620014cc576000826001600160a01b03166367c897fe6040518163ffffffff1660e01b815260040160006040518083038186803b1580156200110a57600080fd5b505afa1580156200111f573d6000803e3d6000fd5b505050506040513d6000823e601f3d908101601f1916820160405262001149919081019062001b4d565b9050604051806102000160405280856001600160a01b0316815260200182600001516001600160a01b03168152602001826020015181526020018260400151815260200182606001518152602001826080015181526020018260a0015181526020018260c0015181526020018260e00151815260200182610100015181526020018261012001518152602001846001600160a01b0316639f5502936040518163ffffffff1660e01b815260040160206040518083038186803b1580156200120f57600080fd5b505afa15801562001224573d6000803e3d6000fd5b505050506040513d601f19601f820116820180604052508101906200124a919062001cee565b8152602001846001600160a01b0316634e69d5606040518163ffffffff1660e01b815260040160206040518083038186803b1580156200128957600080fd5b505afa1580156200129e573d6000803e3d6000fd5b505050506040513d601f19601f82011682018060405250810190620012c4919062001a31565b6005811115620012e457634e487b7160e01b600052602160045260246000fd5b8152602001846001600160a01b031663d41c3a656040518163ffffffff1660e01b815260040160206040518083038186803b1580156200132357600080fd5b505afa15801562001338573d6000803e3d6000fd5b505050506040513d601f19601f820116820180604052508101906200135e919062001941565b6001600160a01b03168152602001846001600160a01b031663521fed2b6040518163ffffffff1660e01b815260040160806040518083038186803b158015620013a657600080fd5b505afa158015620013bb573d6000803e3d6000fd5b505050506040513d601f19601f82011682018060405250810190620013e1919062001c62565b8152602001846001600160a01b031663259730896040518163ffffffff1660e01b815260040160006040518083038186803b1580156200142057600080fd5b505afa15801562001435573d6000803e3d6000fd5b505050506040513d6000823e601f3d908101601f191682016040526200145f919081019062001a52565b8152508887815181106200148357634e487b7160e01b600052603260045260246000fd5b602002602001018190525081878781518110620014b057634e487b7160e01b600052603260045260246000fd5b602090810291909101015285620014c78162002223565b965050505b5050508080620014dc9062002223565b91505062001002565b5091945092505050915091565b6000546001600160a01b031681565b60405180610200016040528060006001600160a01b0316815260200160006001600160a01b0316815260200160608152602001606081526020016060815260200160008152602001600081526020016000815260200160008152602001600081526020016000815260200160008152602001600060058111156200159557634e487b7160e01b600052602160045260246000fd5b815260006020820152604001620015ab62001622565b8152602001606081525090565b613796806200227b83390190565b60405180610140016040528060006001600160a01b031681526020016060815260200160608152602001606081526020016000815260200160008152602001600081526020016000815260200160008152602001600081525090565b60405180608001604052806000815260200160008152602001600081526020016000151581525090565b8051620002e08162002261565b600082601f8301126200166a578081fd5b81356020620016836200167d83620021a0565b62002174565b82815281810190858301855b85811015620017655781358801606080601f19838d03011215620016b1578889fd5b604080518281016001600160401b038282108183111715620016d757620016d76200224b565b908352848a01359080821115620016ec578c8dfd5b620016fc8f8c8489010162001878565b83528386013591508082111562001711578c8dfd5b620017218f8c8489010162001878565b838c015293850135938085111562001737578c8dfd5b5050620017498d8a8587010162001878565b918101919091528652505092840192908401906001016200168f565b5090979650505050505050565b600082601f83011262001783578081fd5b81516020620017966200167d83620021a0565b82815281810190858301855b85811015620017655781518801606080601f19838d03011215620017c4578889fd5b604080518281016001600160401b038282108183111715620017ea57620017ea6200224b565b908352848a01519080821115620017ff578c8dfd5b6200180f8f8c84890101620018c9565b83528386015191508082111562001824578c8dfd5b620018348f8c84890101620018c9565b838c01529385015193808511156200184a578c8dfd5b50506200185c8d8a85870101620018c9565b91810191909152865250509284019290840190600101620017a2565b600082601f83011262001889578081fd5b81356200189a6200167d82620021c6565b818152846020838601011115620018af578283fd5b816020850160208301379081016020019190915292915050565b600082601f830112620018da578081fd5b8151620018eb6200167d82620021c6565b81815284602083860101111562001900578283fd5b62001913826020830160208701620021f0565b949350505050565b6000602082840312156200192d578081fd5b81356200193a8162002261565b9392505050565b60006020828403121562001953578081fd5b81516200193a8162002261565b6000806040838503121562001973578081fd5b8235620019808162002261565b946020939093013593505050565b60006020808385031215620019a1578182fd5b82516001600160401b03811115620019b7578283fd5b8301601f81018513620019c8578283fd5b8051620019d96200167d82620021a0565b8181528381019083850185840285018601891015620019f6578687fd5b8694505b8385101562001a2557805162001a108162002261565b835260019490940193918501918501620019fa565b50979650505050505050565b60006020828403121562001a43578081fd5b8151600681106200193a578182fd5b60006020828403121562001a64578081fd5b81516001600160401b0381111562001a7a578182fd5b6200191384828501620018c9565b60008060008060008060008060006101208a8c03121562001aa7578485fd5b89356001600160401b038082111562001abe578687fd5b62001acc8d838e0162001878565b9a5060208c013591508082111562001ae2578687fd5b62001af08d838e0162001878565b995060408c013591508082111562001b06578687fd5b5062001b158c828d0162001659565b999c989b5098996060810135995060808101359860a0820135985060c0820135975060e0820135965061010090910135945092505050565b60006020828403121562001b5f578081fd5b81516001600160401b038082111562001b76578283fd5b818401915061014080838703121562001b8d578384fd5b62001b988162002174565b905062001ba5836200164c565b815260208301518281111562001bb9578485fd5b62001bc787828601620018c9565b60208301525060408301518281111562001bdf578485fd5b62001bed87828601620018c9565b60408301525060608301518281111562001c05578485fd5b62001c138782860162001772565b6060830152506080838101519082015260a0808401519082015260c0808401519082015260e0808401519082015261010080840151908201526101209283015192810192909252509392505050565b60006080828403121562001c74578081fd5b604051608081018181106001600160401b038211171562001c995762001c996200224b565b80604052508251815260208301516020820152604083015160408201526060830151801515811462001cc9578283fd5b60608201529392505050565b60006020828403121562001ce7578081fd5b5035919050565b60006020828403121562001d00578081fd5b5051919050565b6001600160a01b03169052565b6000815180845260208085018081965082840281019150828601855b8581101562001da357828403895281516060815181875262001d558288018262001f3d565b915050868201518682038888015262001d6f828262001f3d565b9150506040808301519250868203818801525062001d8e818362001f3d565b9a87019a955050509084019060010162001d30565b5091979650505050505050565b6000815180845260208085018081965082840281019150828601855b8581101562001da3578284038952815161026062001dec86835162001d07565b8682015162001dfe8888018262001d07565b50604080830151828289015262001e188389018262001f3d565b925050506060808301518783038289015262001e35838262001f3d565b925050506080808301518783038289015262001e52838262001d14565b60a085810151908a015260c080860151908a015260e080860151908a015261010080860151908a015261012080860151908a015261014080860151908a015261016080860151908a0152610180808601519194509250905062001eb88289018262001f1a565b50506101a08083015162001ecf8289018262001d07565b50506101c08083015162001ee6828901826200201b565b50506101e0820151915085810361024087015262001f05818362001f3d565b9a87019a955050509084019060010162001dcc565b6006811062001f3957634e487b7160e01b600052602160045260246000fd5b9052565b6000815180845262001f57816020860160208601620021f0565b601f01601f19169290920160200192915050565b600061014062001f7d84845162001d07565b602083015181602086015262001f968286018262001f3d565b9150506040830151848203604086015262001fb2828262001f3d565b9150506060830151848203606086015262001fce828262001d14565b9150506080830151608085015260a083015160a085015260c083015160c085015260e083015160e08501526101008084015181860152506101208084015181860152508091505092915050565b8051825260208101516020830152604081015160408301526060810151151560608301525050565b6001600160a01b0391909116815260200190565b600060018060a01b038086168352606060208401526200207b606084018662001f6b565b9150808416604084015250949350505050565b6020808252825182820181905260009190848201906040850190845b81811015620020d15783516001600160a01b031683529284019291840191600101620020aa565b50909695505050505050565b6000602082526200193a602083018462001db0565b60006040825262002107604083018562001db0565b828103602084810191909152845180835285820192820190845b81811015620017655784518352938301939183019160010162002121565b901515815260200190565b6000602082526200193a602083018462001f3d565b6000602082526200193a602083018462001f6b565b6040518181016001600160401b03811182821017156200219857620021986200224b565b604052919050565b60006001600160401b03821115620021bc57620021bc6200224b565b5060209081020190565b60006001600160401b03821115620021e257620021e26200224b565b50601f01601f191660200190565b60005b838110156200220d578181015183820152602001620021f3565b838111156200221d576000848401525b50505050565b60006000198214156200224457634e487b7160e01b81526011600452602481fd5b5060010190565b634e487b7160e01b600052604160045260246000fd5b6001600160a01b03811681146200227757600080fd5b5056fe6101006040523480156200001257600080fd5b506040516200379638038062003796833981016040819052620000359162000698565b6001600055608082015160a0830151604080518082019091526012815271496e76616c696420646174652072616e676560701b60208201529110620000985760405162461bcd60e51b81526004016200008f9190620007d7565b60405180910390fd5b508160a001518260c001511160405180604001604052806012815260200171496e76616c696420646174652072616e676560701b81525090620000f05760405162461bcd60e51b81526004016200008f9190620007d7565b5081610120015182610100015111156040518060400160405280600e81526020016d125b9d985b1a5908185b5bdd5b9d60921b81525090620001475760405162461bcd60e51b81526004016200008f9190620007d7565b508160e0015182610120015111156040518060400160405280600e81526020016d125b9d985b1a5908185b5bdd5b9d60921b815250906200019d5760405162461bcd60e51b81526004016200008f9190620007d7565b506001600160a01b038116620001c75760405162461bcd60e51b81526004016200008f906200080c565b6001600160601b0319606084811b821660805233811b60a0528351811b821660c05282901b1660e052620001fb82620002de565b604080516080810182526000808252602080830182905260e08601516001600160801b0316838501528351908101909352825260608101919091528051600f8054909190829060ff191660018360058111156200026857634e487b7160e01b600052602160045260246000fd5b02179055506020828101518254610100600160881b0319166101006001600160801b039283160217835560408401516001840180546001600160801b0319169190921617905560608301518051620002c7926002850192019062000440565b50506016805460ff19169055506200092a92505050565b8051600180546001600160a01b0319166001600160a01b0390921691909117815560208083015180516200031792600292019062000440565b50604082015180516200033591600284019160209091019062000440565b506080820151600482015560a0820151600582015560c0820151600682015560e082015160078201556101008201516008820155610120820151600982015560005b8260600151518110156200043b578160030183606001518281518110620003ae57634e487b7160e01b600052603260045260246000fd5b602090810291909101810151825460018101845560009384529282902081518051929460030290910192620003e99284929091019062000440565b50602082810151805162000404926001850192019062000440565b50604082015180516200042291600284019160209091019062000440565b50505080806200043290620008ec565b91505062000377565b505050565b8280546200044e90620008af565b90600052602060002090601f016020900481019282620004725760008555620004bd565b82601f106200048d57805160ff1916838001178555620004bd565b82800160010185558215620004bd579182015b82811115620004bd578251825591602001919060010190620004a0565b50620004cb929150620004cf565b5090565b5b80821115620004cb5760008155600101620004d0565b80516001600160a01b0381168114620004fe57600080fd5b919050565b600082601f83011262000514578081fd5b815160206001600160401b038083111562000533576200053362000914565b62000542828385020162000850565b83815282810190868401865b86811015620006185781518901606080601f19838e030112156200057057898afd5b604080518281018181108a821117156200058e576200058e62000914565b8252838a015189811115620005a1578c8dfd5b620005b18f8c8388010162000626565b8252508184015189811115620005c5578c8dfd5b620005d58f8c8388010162000626565b828c015250918301519188831115620005ec578b8cfd5b620005fc8e8b8587010162000626565b918101919091528652505092850192908501906001016200054e565b509098975050505050505050565b600082601f83011262000637578081fd5b81516001600160401b0381111562000653576200065362000914565b62000668601f8201601f191660200162000850565b8181528460208386010111156200067d578283fd5b620006908260208301602087016200087c565b949350505050565b600080600060608486031215620006ad578283fd5b620006b884620004e6565b60208501519093506001600160401b0380821115620006d5578384fd5b8186019150610140808389031215620006ec578485fd5b620006f78162000850565b90506200070483620004e6565b815260208301518281111562000718578586fd5b620007268982860162000626565b6020830152506040830151828111156200073e578586fd5b6200074c8982860162000626565b60408301525060608301518281111562000764578586fd5b620007728982860162000503565b6060830152506080830151608082015260a083015160a082015260c083015160c082015260e083015160e08201526101009150818301518282015261012091508183015182820152809450505050620007ce60408501620004e6565b90509250925092565b6000602082528251806020840152620007f88160408501602087016200087c565b601f01601f19169190910160400192915050565b60208082526024908201527f5061796d656e7420746f6b656e2063616e6e6f74206265207a65726f206164646040820152637265737360e01b606082015260800190565b6040518181016001600160401b038111828210171562000874576200087462000914565b604052919050565b60005b83811015620008995781810151838201526020016200087f565b83811115620008a9576000848401525b50505050565b600281046001821680620008c457607f821691505b60208210811415620008e657634e487b7160e01b600052602260045260246000fd5b50919050565b60006000198214156200090d57634e487b7160e01b81526011600452602481fd5b5060010190565b634e487b7160e01b600052604160045260246000fd5b60805160601c60a05160601c60c05160601c60e05160601c612dbd620009d96000396000818161070a015281816108410152818161094801528181610d3101528181610f08015281816110f301528181611350015281816120be01526121b601526000818161054a015281816105c50152818161097501528181610a3a0152610f890152600061219201526000818161086e01528181610a9b0152818161145f01526121da0152612dbd6000f3fe6080604052600436106101d85760003560e01c806367c897fe11610102578063b2f5a54c11610095578063b573c27311610064578063b573c273146104e9578063c45a015514610509578063d41c3a651461051e578063f851a44014610533576101d8565b8063b2f5a54c1461047c578063b3a907ee14610491578063b4e830f1146104bf578063b5545a3c146104d4576101d8565b806396b98862116100d157806396b98862146104125780639f55029314610432578063a732818114610447578063abe7c13014610467576101d8565b806367c897fe1461039057806368a94dfc146103b257806368bf37cb146103d257806378340a89146103f2576101d8565b80633feb5f2b1161017a5780634e69d560116101495780634e69d56014610315578063521fed2b14610337578063560d52d4146103595780635fc2f0951461036e576101d8565b80633feb5f2b146102b857806345755dd6146102d85780634c7ce18a146102eb5780634ccc1ae114610300576101d8565b806324600fc3116101b657806324600fc314610257578063259730891461026e5780632afcf480146102905780633013ce29146102a3576101d8565b806302d05d3f146101dd57806310329d4d14610208578063146b58df1461022a575b600080fd5b3480156101e957600080fd5b506101f2610548565b6040516101ff919061269c565b60405180910390f35b34801561021457600080fd5b5061021d61056c565b6040516101ff9190612749565b34801561023657600080fd5b5061024a61024536600461244b565b610575565b6040516101ff9190612c55565b34801561026357600080fd5b5061026c610590565b005b34801561027a57600080fd5b50610283610b07565b6040516101ff919061277c565b61026c61029e36600461253a565b610b9d565b3480156102af57600080fd5b506101f2610f06565b3480156102c457600080fd5b506101f26102d336600461253a565b610f2a565b61026c6102e636600461253a565b610f54565b3480156102f757600080fd5b5061026c611253565b34801561030c57600080fd5b5061026c611448565b34801561032157600080fd5b5061032a6115b8565b6040516101ff9190612754565b34801561034357600080fd5b5061034c6115c7565b6040516101ff9190612c28565b34801561036557600080fd5b5061024a611601565b34801561037a57600080fd5b50610383611606565b6040516101ff91906126ed565b34801561039c57600080fd5b506103a5611760565b6040516101ff9190612b6a565b3480156103be57600080fd5b5061021d6103cd36600461244b565b611b00565b3480156103de57600080fd5b5061021d6103ed36600461244b565b611b15565b3480156103fe57600080fd5b5061026c61040d366004612499565b611b33565b34801561041e57600080fd5b5061024a61042d36600461244b565b611c10565b34801561043e57600080fd5b5061024a611c22565b34801561045357600080fd5b5061021d61046236600461244b565b611c36565b34801561047357600080fd5b5061021d611c4b565b34801561048857600080fd5b50610383611c54565b34801561049d57600080fd5b506104b16104ac36600461244b565b611cb5565b6040516101ff929190612700565b3480156104cb57600080fd5b5061026c611f28565b3480156104e057600080fd5b5061026c611fd8565b3480156104f557600080fd5b5061021d61050436600461244b565b612172565b34801561051557600080fd5b506101f2612190565b34801561052a57600080fd5b506101f26121b4565b34801561053f57600080fd5b506101f26121d8565b7f000000000000000000000000000000000000000000000000000000000000000081565b60165460ff1681565b6001600160a01b031660009081526012602052604090205490565b6105986121fc565b60408051808201909152600b81526a2737ba1031b932b0ba37b960a91b6020820152336001600160a01b037f0000000000000000000000000000000000000000000000000000000000000000161461060c5760405162461bcd60e51b8152600401610603919061277c565b60405180910390fd5b506003600f5460ff16600581111561063457634e487b7160e01b600052602160045260246000fd5b146040518060400160405280601281526020017150726f6a656374206e6f742061637469766560701b8152509061067e5760405162461bcd60e51b8152600401610603919061277c565b50600654604080518082019091526012815271496e76616c696420646174652072616e676560701b6020820152904210156106cc5760405162461bcd60e51b8152600401610603919061277c565b5060165460ff16156106f05760405162461bcd60e51b8152600401610603906128d6565b6040516370a0823160e01b81526000906001600160a01b037f000000000000000000000000000000000000000000000000000000000000000016906370a082319061073f90309060040161269c565b60206040518083038186803b15801561075757600080fd5b505afa15801561076b573d6000803e3d6000fd5b505050506040513d601f19601f8201168201806040525081019061078f9190612552565b905060008111604051806040016040528060128152602001714e6f7420656e6f7567682062616c616e636560701b815250906107de5760405162461bcd60e51b8152600401610603919061277c565b50600f546000906064906108029060019061010090046001600160801b0316612ccf565b61080c9190612caf565b9050600061081a8284612cee565b6016805460ff1916600117905560405163a9059cbb60e01b81529091506001600160a01b037f0000000000000000000000000000000000000000000000000000000000000000169063a9059cbb90610898907f00000000000000000000000000000000000000000000000000000000000000009086906004016126d4565b602060405180830381600087803b1580156108b257600080fd5b505af11580156108c6573d6000803e3d6000fd5b505050506040513d601f19601f820116820180604052508101906108ea9190612479565b6040518060400160405280600f81526020016e151c985b9cd9995c8819985a5b1959608a1b815250906109305760405162461bcd60e51b8152600401610603919061277c565b5060405163a9059cbb60e01b81526001600160a01b037f0000000000000000000000000000000000000000000000000000000000000000169063a9059cbb9061099f907f00000000000000000000000000000000000000000000000000000000000000009085906004016126d4565b602060405180830381600087803b1580156109b957600080fd5b505af11580156109cd573d6000803e3d6000fd5b505050506040513d601f19601f820116820180604052508101906109f19190612479565b6040518060400160405280600f81526020016e151c985b9cd9995c8819985a5b1959608a1b81525090610a375760405162461bcd60e51b8152600401610603919061277c565b507f00000000000000000000000000000000000000000000000000000000000000006001600160a01b03167feaff4b37086828766ad3268786972c0cd24259d4c87a80f9d3963a3c3d999b0d82604051610a919190612c55565b60405180910390a27f00000000000000000000000000000000000000000000000000000000000000006001600160a01b03167fb22271622602af8e76f473a71b98890df40dc7fd2c2a5a574fdaa6d8fdbf228183604051610af29190612c55565b60405180910390a2505050610b05612226565b565b6060600f6002018054610b1990612d05565b80601f0160208091040260200160405190810160405280929190818152602001828054610b4590612d05565b8015610b925780601f10610b6757610100808354040283529160200191610b92565b820191906000526020600020905b815481529060010190602001808311610b7557829003601f168201915b505050505090505b90565b610ba56121fc565b600f3415610bc55760405162461bcd60e51b8152600401610603906129f7565b60008211610be55760405162461bcd60e51b81526004016106039061290d565b6002815460ff166005811115610c0b57634e487b7160e01b600052602160045260246000fd5b1480610c3a57506003815460ff166005811115610c3857634e487b7160e01b600052602160045260246000fd5b145b610c565760405162461bcd60e51b81526004016106039061278f565b600554421015610c785760405162461bcd60e51b8152600401610603906127d3565b600654421115610c9a5760405162461bcd60e51b815260040161060390612989565b600954821015610cbc5760405162461bcd60e51b815260040161060390612b33565b600a54821115610cde5760405162461bcd60e51b815260040161060390612803565b6008548154610cfc90849061010090046001600160801b0316612c97565b1115610d1a5760405162461bcd60e51b81526004016106039061283a565b6040516323b872dd60e01b81526001600160a01b037f000000000000000000000000000000000000000000000000000000000000000016906323b872dd90610d6a903390309087906004016126b0565b602060405180830381600087803b158015610d8457600080fd5b505af1158015610d98573d6000803e3d6000fd5b505050506040513d601f19601f82011682018060405250810190610dbc9190612479565b610dd85760405162461bcd60e51b815260040161060390612a97565b33600090815260126020526040902054610e2f57601580546001810182556000919091527f55f448fdea98c4d29eb340757ef0a66cd03dbb9538908a6a81d96026b71ec4750180546001600160a01b031916331790555b3360009081526012602052604081208054849290610e4e908490612c97565b9091555050805482908290600190610e7590849061010090046001600160801b0316612c6c565b82546001600160801b0391821661010093840a908102908302199091161790925560018401548454919091048216911614159050610eb957805460ff191660031781555b336001600160a01b03167f922308d0a22c67ff6f9852774e95fa4f7d10c9ecb1e430f0461143597003d37783604051610ef29190612c55565b60405180910390a250610f03612226565b50565b7f000000000000000000000000000000000000000000000000000000000000000081565b60158181548110610f3a57600080fd5b6000918252602090912001546001600160a01b0316905081565b610f5c6121fc565b60408051808201909152600b81526a2737ba1031b932b0ba37b960a91b6020820152336001600160a01b037f00000000000000000000000000000000000000000000000000000000000000001614610fc75760405162461bcd60e51b8152600401610603919061277c565b506003600f5460ff166005811115610fef57634e487b7160e01b600052602160045260246000fd5b146040518060400160405280601281526020017150726f6a656374206e6f742061637469766560701b815250906110395760405162461bcd60e51b8152600401610603919061277c565b5034156110585760405162461bcd60e51b8152600401610603906129f7565b600e54604080518082019091526016815275119d5b991cc8185b1c9958591e481c995d1d5c9b995960521b60208201529060ff16156110aa5760405162461bcd60e51b8152600401610603919061277c565b50600f5461010090046001600160801b0316808210156110dc5760405162461bcd60e51b815260040161060390612944565b6040516323b872dd60e01b81526001600160a01b037f000000000000000000000000000000000000000000000000000000000000000016906323b872dd9061112c903390309087906004016126b0565b602060405180830381600087803b15801561114657600080fd5b505af115801561115a573d6000803e3d6000fd5b505050506040513d601f19601f8201168201806040525081019061117e9190612479565b61119a5760405162461bcd60e51b815260040161060390612a97565b60006111a68284612cee565b90506000826111b6836064612ccf565b6111c09190612caf565b60408051608081018252868152602081018390524281830181905260016060909201829052600b889055600c849055600d55600e805460ff199081169092179055600f80549091166004179055519091507fe5e9cfeede9ff1fc77b415bf8346e29706d16794b3bdeca347ac54a7fd3e0c3c906112409086908490612c5e565b60405180910390a1505050610f03612226565b61125b6121fc565b600e5460ff1661127d5760405162461bcd60e51b81526004016106039061289f565b336000908152601260205260409020546112a95760405162461bcd60e51b815260040161060390612a3a565b3360009081526014602052604090205460ff16156112d95760405162461bcd60e51b8152600401610603906129c0565b33600090815260126020526040812054600b54600f549192909161010090046001600160801b0316908161130d8486612ccf565b6113179190612caf565b336000818152601260209081526040808320839055601490915290819020805460ff191660011790555163a9059cbb60e01b81529192507f00000000000000000000000000000000000000000000000000000000000000006001600160a01b03169163a9059cbb9161138d9185906004016126d4565b602060405180830381600087803b1580156113a757600080fd5b505af11580156113bb573d6000803e3d6000fd5b505050506040513d601f19601f820116820180604052508101906113df9190612479565b6113fb5760405162461bcd60e51b815260040161060390612a97565b336001600160a01b03167f0f9fa24c1d9febdaf99508f4923a7b5add9bd70eab45c8fc614509df79894938826040516114349190612c55565b60405180910390a250505050610b05612226565b604051631204dbdd60e31b81526001600160a01b037f00000000000000000000000000000000000000000000000000000000000000001690639026dee89061149490339060040161269c565b60206040518083038186803b1580156114ac57600080fd5b505afa1580156114c0573d6000803e3d6000fd5b505050506040513d601f19601f820116820180604052508101906114e49190612479565b604051806040016040528060098152602001682737ba1030b236b4b760b91b815250906115245760405162461bcd60e51b8152600401610603919061277c565b50600754421161153357600080fd5b6003600f5460ff16600581111561155a57634e487b7160e01b600052602160045260246000fd5b1460405180604001604052806016815260200175496e76616c69642070726f6a6563742073746174757360501b815250906115a85760405162461bcd60e51b8152600401610603919061277c565b50600f805460ff19166005179055565b60006115c261222d565b905090565b6115cf61232c565b5060408051608081018252600b548152600c546020820152600d5491810191909152600e5460ff161515606082015290565b600181565b60155460609060009067ffffffffffffffff81111561163557634e487b7160e01b600052604160045260246000fd5b60405190808252806020026020018201604052801561165e578160200160208202803683370190505b5090506000805b601554811015611758576000601260006015848154811061169657634e487b7160e01b600052603260045260246000fd5b60009182526020808320909101546001600160a01b03168352820192909252604001902054111561174657601581815481106116e257634e487b7160e01b600052603260045260246000fd5b9060005260206000200160009054906101000a90046001600160a01b031683838151811061172057634e487b7160e01b600052603260045260246000fd5b6001600160a01b03909216602092830291909101909101528161174281612d40565b9250505b8061175081612d40565b915050611665565b508152905090565b611768612356565b604080516101408101909152600180546001600160a01b031682526002805460208401919061179690612d05565b80601f01602080910402602001604051908101604052809291908181526020018280546117c290612d05565b801561180f5780601f106117e45761010080835404028352916020019161180f565b820191906000526020600020905b8154815290600101906020018083116117f257829003601f168201915b5050505050815260200160028201805461182890612d05565b80601f016020809104026020016040519081016040528092919081815260200182805461185490612d05565b80156118a15780601f10611876576101008083540402835291602001916118a1565b820191906000526020600020905b81548152906001019060200180831161188457829003601f168201915b5050505050815260200160038201805480602002602001604051908101604052809291908181526020016000905b82821015611ab7578382906000526020600020906003020160405180606001604052908160008201805461190290612d05565b80601f016020809104026020016040519081016040528092919081815260200182805461192e90612d05565b801561197b5780601f106119505761010080835404028352916020019161197b565b820191906000526020600020905b81548152906001019060200180831161195e57829003601f168201915b5050505050815260200160018201805461199490612d05565b80601f01602080910402602001604051908101604052809291908181526020018280546119c090612d05565b8015611a0d5780601f106119e257610100808354040283529160200191611a0d565b820191906000526020600020905b8154815290600101906020018083116119f057829003601f168201915b50505050508152602001600282018054611a2690612d05565b80601f0160208091040260200160405190810160405280929190818152602001828054611a5290612d05565b8015611a9f5780601f10611a7457610100808354040283529160200191611a9f565b820191906000526020600020905b815481529060010190602001808311611a8257829003601f168201915b505050505081525050815260200190600101906118cf565b5050505081526020016004820154815260200160058201548152602001600682015481526020016007820154815260200160088201548152602001600982015481525050905090565b60136020526000908152604090205460ff1681565b6001600160a01b031660009081526014602052604090205460ff1690565b600f6000815460ff166005811115611b5b57634e487b7160e01b600052602160045260246000fd5b1460405180604001604052806016815260200175496e76616c69642070726f6a6563742073746174757360501b81525090611ba95760405162461bcd60e51b8152600401610603919061277c565b50805460ff191660011781558151611bca90600283019060208501906123b2565b50336001600160a01b03167f4e44df7f496ec6f3f7ee9440788a0edd9b6cbd27982eb4c7ad22bd5b35c463eb83604051611c04919061277c565b60405180910390a25050565b60126020526000908152604090205481565b600f5461010090046001600160801b031690565b60146020526000908152604090205460ff1681565b600e5460ff1690565b60606015805480602002602001604051908101604052809291908181526020018280548015610b9257602002820191906000526020600020905b81546001600160a01b03168152600190910190602001808311611c8e575050505050905090565b6060806000805b601554811015611d385760006012600060158481548110611ced57634e487b7160e01b600052603260045260246000fd5b60009182526020808320909101546001600160a01b031683528201929092526040019020541115611d265781611d2281612d40565b9250505b80611d3081612d40565b915050611cbc565b5060008167ffffffffffffffff811115611d6257634e487b7160e01b600052604160045260246000fd5b604051908082528060200260200182016040528015611d8b578160200160208202803683370190505b50905060008267ffffffffffffffff811115611db757634e487b7160e01b600052604160045260246000fd5b604051908082528060200260200182016040528015611de0578160200160208202803683370190505b5090506000805b601554811015611f1b5760006012600060158481548110611e1857634e487b7160e01b600052603260045260246000fd5b60009182526020808320909101546001600160a01b031683528201929092526040019020541115611f095730848381518110611e6457634e487b7160e01b600052603260045260246000fd5b60200260200101906001600160a01b031690816001600160a01b0316815250506012600060158381548110611ea957634e487b7160e01b600052603260045260246000fd5b60009182526020808320909101546001600160a01b031683528201929092526040019020548351849084908110611ef057634e487b7160e01b600052603260045260246000fd5b602090810291909101015281611f0581612d40565b9250505b80611f1381612d40565b915050611de7565b5091945092505050915091565b600f6000815460ff166005811115611f5057634e487b7160e01b600052602160045260246000fd5b1460405180604001604052806016815260200175496e76616c69642070726f6a6563742073746174757360501b81525090611f9e5760405162461bcd60e51b8152600401610603919061277c565b50805460ff1916600217815560405133907f8b16df08b6a45161a2accfac7e351325ff3df2aed213dd821e0be370c010831c90600090a250565b611fe06121fc565b6005611fea61222d565b600581111561200957634e487b7160e01b600052602160045260246000fd5b146120265760405162461bcd60e51b815260040161060390612868565b336000908152601260205260409020546120525760405162461bcd60e51b815260040161060390612ac5565b3360009081526013602052604090205460ff16156120825760405162461bcd60e51b815260040161060390612a67565b336000818152601260209081526040808320805490849055601390925291829020805460ff19166001179055905163a9059cbb60e01b815290917f00000000000000000000000000000000000000000000000000000000000000006001600160a01b03169163a9059cbb916120fb9185906004016126d4565b602060405180830381600087803b15801561211557600080fd5b505af1158015612129573d6000803e3d6000fd5b505050506040513d601f19601f8201168201806040525081019061214d9190612479565b6121695760405162461bcd60e51b815260040161060390612a97565b50610b05612226565b6001600160a01b031660009081526013602052604090205460ff1690565b7f000000000000000000000000000000000000000000000000000000000000000081565b7f000000000000000000000000000000000000000000000000000000000000000090565b7f000000000000000000000000000000000000000000000000000000000000000081565b6002600054141561221f5760405162461bcd60e51b815260040161060390612afc565b6002600055565b6001600055565b6000600f81815460ff16600581111561225657634e487b7160e01b600052602160045260246000fd5b1415612266576000915050610b9a565b6001815460ff16600581111561228c57634e487b7160e01b600052602160045260246000fd5b141561229c576001915050610b9a565b6002815460ff1660058111156122c257634e487b7160e01b600052602160045260246000fd5b1415612323576005544210156122dc576002915050610b9a565b60065442116122ef576003915050610b9a565b600181015481546001600160801b0391821661010090910490911610612319576004915050610b9a565b6005915050610b9a565b5460ff16905090565b60405180608001604052806000815260200160008152602001600081526020016000151581525090565b60405180610140016040528060006001600160a01b031681526020016060815260200160608152602001606081526020016000815260200160008152602001600081526020016000815260200160008152602001600081525090565b8280546123be90612d05565b90600052602060002090601f0160209004810192826123e05760008555612426565b82601f106123f957805160ff1916838001178555612426565b82800160010185558215612426579182015b8281111561242657825182559160200191906001019061240b565b50612432929150612436565b5090565b5b808211156124325760008155600101612437565b60006020828403121561245c578081fd5b81356001600160a01b0381168114612472578182fd5b9392505050565b60006020828403121561248a578081fd5b81518015158114612472578182fd5b600060208083850312156124ab578182fd5b823567ffffffffffffffff808211156124c2578384fd5b818501915085601f8301126124d5578384fd5b8135818111156124e7576124e7612d71565b604051601f8201601f191681018501838111828210171561250a5761250a612d71565b6040528181528382018501881015612520578586fd5b818585018683013790810190930193909352509392505050565b60006020828403121561254b578081fd5b5035919050565b600060208284031215612563578081fd5b5051919050565b6001600160a01b03169052565b6000815180845260208085019450808401835b838110156125af5781516001600160a01b03168752958201959082019060010161258a565b509495945050505050565b60008282518085526020808601955080818302840101818601855b8481101561264457601f198684030189528151606081518186526125fb82870182612651565b91505085820151858203878701526126138282612651565b915050604080830151925085820381870152506126308183612651565b9a86019a94505050908301906001016125d5565b5090979650505050505050565b60008151808452815b818110156126765760208185018101518683018201520161265a565b818111156126875782602083870101525b50601f01601f19169290920160200192915050565b6001600160a01b0391909116815260200190565b6001600160a01b039384168152919092166020820152604081019190915260600190565b6001600160a01b03929092168252602082015260400190565b6000602082526124726020830184612577565b6000604082526127136040830185612577565b828103602084810191909152845180835285820192820190845b818110156126445784518352938301939183019160010161272d565b901515815260200190565b602081016006831061277657634e487b7160e01b600052602160045260246000fd5b91905290565b6000602082526124726020830184612651565b60208082526024908201527f50726f6a656374206e6f7420617661696c61626c6520666f7220696e766573746040820152631b595b9d60e21b606082015260800190565b602080825260169082015275125b9d995cdd1b595b9d081b9bdd081cdd185c9d195960521b604082015260600190565b60208082526018908201527f41626f7665206d6178696d756d20696e766573746d656e740000000000000000604082015260600190565b602080825260149082015273115e18d959591cc8199d5b991a5b99c819dbd85b60621b604082015260600190565b60208082526017908201527f50726f6a656374206973206e6f74206465666572726564000000000000000000604082015260600190565b60208082526019908201527f52657475726e73206e6f7420617661696c61626c652079657400000000000000604082015260600190565b60208082526017908201527f46756e647320616c72656164792077697468647261776e000000000000000000604082015260600190565b6020808252601d908201527f416d6f756e74206d7573742062652067726561746572207468616e2030000000604082015260600190565b60208082526025908201527f4d757374207265706179206174206c65617374207468652072616973656420616040820152641b5bdd5b9d60da1b606082015260800190565b60208082526017908201527f496e766573746d656e7420706572696f6420656e646564000000000000000000604082015260600190565b60208082526019908201527f416c72656164792077697468647261776e2072657475726e7300000000000000604082015260600190565b60208082526023908201527f4554482f424e42206e6f742061636365707465642c207573652055534454206f6040820152626e6c7960e81b606082015260800190565b602080825260139082015272139bc81a5b9d995cdd1b595b9d08199bdd5b99606a1b604082015260600190565b602080825260169082015275105b1c9958591e4818db185a5b5959081c99599d5b9960521b604082015260600190565b6020808252601490820152731554d115081d1c985b9cd9995c8819985a5b195960621b604082015260600190565b60208082526017908201527f4e6f20696e766573746d656e7420746f20726566756e64000000000000000000604082015260600190565b6020808252601f908201527f5265656e7472616e637947756172643a207265656e7472616e742063616c6c00604082015260600190565b60208082526018908201527f42656c6f77206d696e696d756d20696e766573746d656e740000000000000000604082015260600190565b600060208252612b7e60208301845161256a565b6020830151610140806040850152612b9a610160850183612651565b91506040850151601f1980868503016060870152612bb88483612651565b9350606087015191508086850301608087015250612bd683826125ba565b925050608085015160a085015260a085015160c085015260c085015160e085015260e0850151610100818187015280870151915050610120818187015280870151838701525050508091505092915050565b81518152602080830151908201526040808301519082015260609182015115159181019190915260800190565b90815260200190565b918252602082015260400190565b60006001600160801b03808316818516808303821115612c8e57612c8e612d5b565b01949350505050565b60008219821115612caa57612caa612d5b565b500190565b600082612cca57634e487b7160e01b81526012600452602481fd5b500490565b6000816000190483118215151615612ce957612ce9612d5b565b500290565b600082821015612d0057612d00612d5b565b500390565b600281046001821680612d1957607f821691505b60208210811415612d3a57634e487b7160e01b600052602260045260246000fd5b50919050565b6000600019821415612d5457612d54612d5b565b5060010190565b634e487b7160e01b600052601160045260246000fd5b634e487b7160e01b600052604160045260246000fdfea2646970667358221220e70d57f157ce86ef0c9b933f8415ce77befb45b18ad2182441e66179c6a50f8164736f6c63430008000033a26469706673582212200a8466a8f591e6541292fdfd00936729ba6affb45cfdda5c56bd8cb64835961564736f6c63430008000033",
  "linkReferences": {},
  "deployedLinkReferences": {}
}